{
  "_format": "hh-sol-artifact-1",
  "contractName": "Factory",
  "sourceName": "contracts/Factory.sol",
  "abi": [
    {
      "inputs": [
        {
          "internalType": "address",
          "name": "initialOwner",
          "type": "address"
        }
      ],
      "stateMutability": "nonpayable",
      "type": "constructor"
    },
    {
      "anonymous": false,
      "inputs": [
        {
          "indexed": true,
          "internalType": "string",
          "name": "templateName",
          "type": "string"
        },
        {
          "indexed": true,
          "internalType": "address",
          "name": "templateAddr",
          "type": "address"
        },
        {
          "indexed": true,
          "internalType": "address",
          "name": "deployedAddr",
          "type": "address"
        },
        {
          "indexed": false,
          "internalType": "bytes",
          "name": "abiArgs",
          "type": "bytes"
        }
      ],
      "name": "Deployed",
      "type": "event"
    },
    {
      "anonymous": false,
      "inputs": [
        {
          "indexed": true,
          "internalType": "address",
          "name": "oldGoverner",
          "type": "address"
        },
        {
          "indexed": true,
          "internalType": "address",
          "name": "newGoverner",
          "type": "address"
        }
      ],
      "name": "GovernanceChanged",
      "type": "event"
    },
    {
      "anonymous": false,
      "inputs": [
        {
          "indexed": true,
          "internalType": "string",
          "name": "templateName",
          "type": "string"
        },
        {
          "indexed": true,
          "internalType": "address",
          "name": "templateAddr",
          "type": "address"
        },
        {
          "indexed": true,
          "internalType": "address",
          "name": "governer",
          "type": "address"
        }
      ],
      "name": "TemplateAdded",
      "type": "event"
    },
    {
      "inputs": [
        {
          "internalType": "string",
          "name": "templateName",
          "type": "string"
        },
        {
          "internalType": "address",
          "name": "templateAddr",
          "type": "address"
        }
      ],
      "name": "addTemplate",
      "outputs": [],
      "stateMutability": "nonpayable",
      "type": "function"
    },
    {
      "inputs": [
        {
          "internalType": "string",
          "name": "templateName",
          "type": "string"
        },
        {
          "internalType": "bytes",
          "name": "abiArgs",
          "type": "bytes"
        }
      ],
      "name": "deploy",
      "outputs": [
        {
          "internalType": "address",
          "name": "deployedAddr",
          "type": "address"
        }
      ],
      "stateMutability": "nonpayable",
      "type": "function"
    },
    {
      "inputs": [],
      "name": "governance",
      "outputs": [
        {
          "internalType": "address",
          "name": "",
          "type": "address"
        }
      ],
      "stateMutability": "view",
      "type": "function"
    },
    {
      "inputs": [
        {
          "internalType": "address",
          "name": "newGoverner",
          "type": "address"
        }
      ],
      "name": "setGovernance",
      "outputs": [],
      "stateMutability": "nonpayable",
      "type": "function"
    },
    {
      "inputs": [
        {
          "internalType": "string",
          "name": "",
          "type": "string"
        }
      ],
      "name": "templates",
      "outputs": [
        {
          "internalType": "address",
          "name": "",
          "type": "address"
        }
      ],
      "stateMutability": "view",
      "type": "function"
    }
  ],
  "bytecode": "0x608060405234801561001057600080fd5b50604051610ebe380380610ebe8339818101604052810190610032919061008e565b80600160006101000a81548173ffffffffffffffffffffffffffffffffffffffff021916908373ffffffffffffffffffffffffffffffffffffffff16021790555050610100565b600081519050610088816100e9565b92915050565b6000602082840312156100a057600080fd5b60006100ae84828501610079565b91505092915050565b60006100c2826100c9565b9050919050565b600073ffffffffffffffffffffffffffffffffffffffff82169050919050565b6100f2816100b7565b81146100fd57600080fd5b50565b610daf8061010f6000396000f3fe608060405234801561001057600080fd5b50600436106100575760003560e01c80635aa6e6751461005c578063ab033ea91461007a578063b22beeda14610096578063be3397e9146100c6578063dd3fac7c146100f6575b600080fd5b610064610112565b6040516100719190610a52565b60405180910390f35b610094600480360381019061008f9190610806565b610138565b005b6100b060048036038101906100ab9190610858565b610288565b6040516100bd9190610a52565b60405180910390f35b6100e060048036038101906100db91906108ed565b6102d1565b6040516100ed9190610a52565b60405180910390f35b610110600480360381019061010b9190610899565b610472565b005b600160009054906101000a900473ffffffffffffffffffffffffffffffffffffffff1681565b600160009054906101000a900473ffffffffffffffffffffffffffffffffffffffff1673ffffffffffffffffffffffffffffffffffffffff163373ffffffffffffffffffffffffffffffffffffffff16146101c8576040517f08c379a00000000000000000000000000000000000000000000000000000000081526004016101bf90610acf565b60405180910390fd5b8073ffffffffffffffffffffffffffffffffffffffff16600160009054906101000a900473ffffffffffffffffffffffffffffffffffffffff1673ffffffffffffffffffffffffffffffffffffffff167f3aaaebeb4821d6a7e5c77ece53cff0afcc56c82add2c978dbbb7f73e84cbcfd260405160405180910390a380600160006101000a81548173ffffffffffffffffffffffffffffffffffffffff021916908373ffffffffffffffffffffffffffffffffffffffff16021790555050565b6000818051602081018201805184825260208301602085012081835280955050505050506000915054906101000a900473ffffffffffffffffffffffffffffffffffffffff1681565b6000806000846040516102e49190610a3b565b908152602001604051809103902060009054906101000a900473ffffffffffffffffffffffffffffffffffffffff16905061031e816106a2565b915060008273ffffffffffffffffffffffffffffffffffffffff1663439fab91856040518263ffffffff1660e01b815260040161035b9190610a6d565b602060405180830381600087803b15801561037557600080fd5b505af1158015610389573d6000803e3d6000fd5b505050506040513d601f19601f820116820180604052508101906103ad919061082f565b9050806103ef576040517f08c379a00000000000000000000000000000000000000000000000000000000081526004016103e690610a8f565b60405180910390fd5b8273ffffffffffffffffffffffffffffffffffffffff168273ffffffffffffffffffffffffffffffffffffffff168660405161042b9190610a3b565b60405180910390207f261e55859c1dbb07030e27c5f02c1446d292b3e02419b29dcca970196283e7eb876040516104629190610a6d565b60405180910390a4505092915050565b600160009054906101000a900473ffffffffffffffffffffffffffffffffffffffff1673ffffffffffffffffffffffffffffffffffffffff163373ffffffffffffffffffffffffffffffffffffffff1614610502576040517f08c379a00000000000000000000000000000000000000000000000000000000081526004016104f990610acf565b60405180910390fd5b600073ffffffffffffffffffffffffffffffffffffffff1660008360405161052a9190610a3b565b908152602001604051809103902060009054906101000a900473ffffffffffffffffffffffffffffffffffffffff1673ffffffffffffffffffffffffffffffffffffffff16146105af576040517f08c379a00000000000000000000000000000000000000000000000000000000081526004016105a690610aaf565b60405180910390fd5b806000836040516105c09190610a3b565b908152602001604051809103902060006101000a81548173ffffffffffffffffffffffffffffffffffffffff021916908373ffffffffffffffffffffffffffffffffffffffff160217905550600160009054906101000a900473ffffffffffffffffffffffffffffffffffffffff1673ffffffffffffffffffffffffffffffffffffffff168173ffffffffffffffffffffffffffffffffffffffff168360405161066a9190610a3b565b60405180910390207f723df8b5c179a677dc2dc19d7904aef24eb403b08a15218a43357705f703370660405160405180910390a45050565b6000808260601b90506040517f3d602d80600a3d3981f3363d3d373d3d3d363d7300000000000000000000000081528160148201527f5af43d82803e903d91602b57fd5bf3000000000000000000000000000000000060288201526037816000f092505050919050565b600061071f61071a84610b14565b610aef565b90508281526020810184848401111561073757600080fd5b610742848285610bf7565b509392505050565b600061075d61075884610b45565b610aef565b90508281526020810184848401111561077557600080fd5b610780848285610bf7565b509392505050565b60008135905061079781610d4b565b92915050565b6000815190506107ac81610d62565b92915050565b600082601f8301126107c357600080fd5b81356107d384826020860161070c565b91505092915050565b600082601f8301126107ed57600080fd5b81356107fd84826020860161074a565b91505092915050565b60006020828403121561081857600080fd5b600061082684828501610788565b91505092915050565b60006020828403121561084157600080fd5b600061084f8482850161079d565b91505092915050565b60006020828403121561086a57600080fd5b600082013567ffffffffffffffff81111561088457600080fd5b610890848285016107dc565b91505092915050565b600080604083850312156108ac57600080fd5b600083013567ffffffffffffffff8111156108c657600080fd5b6108d2858286016107dc565b92505060206108e385828601610788565b9150509250929050565b6000806040838503121561090057600080fd5b600083013567ffffffffffffffff81111561091a57600080fd5b610926858286016107dc565b925050602083013567ffffffffffffffff81111561094357600080fd5b61094f858286016107b2565b9150509250929050565b61096281610bb9565b82525050565b600061097382610b76565b61097d8185610b8c565b935061098d818560208601610c06565b61099681610c99565b840191505092915050565b60006109ac82610b81565b6109b68185610bae565b93506109c6818560208601610c06565b80840191505092915050565b60006109df601483610b9d565b91506109ea82610caa565b602082019050919050565b6000610a02602483610b9d565b9150610a0d82610cd3565b604082019050919050565b6000610a25601883610b9d565b9150610a3082610d22565b602082019050919050565b6000610a4782846109a1565b915081905092915050565b6000602082019050610a676000830184610959565b92915050565b60006020820190508181036000830152610a878184610968565b905092915050565b60006020820190508181036000830152610aa8816109d2565b9050919050565b60006020820190508181036000830152610ac8816109f5565b9050919050565b60006020820190508181036000830152610ae881610a18565b9050919050565b6000610af9610b0a565b9050610b058282610c39565b919050565b6000604051905090565b600067ffffffffffffffff821115610b2f57610b2e610c6a565b5b610b3882610c99565b9050602081019050919050565b600067ffffffffffffffff821115610b6057610b5f610c6a565b5b610b6982610c99565b9050602081019050919050565b600081519050919050565b600081519050919050565b600082825260208201905092915050565b600082825260208201905092915050565b600081905092915050565b6000610bc482610bd7565b9050919050565b60008115159050919050565b600073ffffffffffffffffffffffffffffffffffffffff82169050919050565b82818337600083830152505050565b60005b83811015610c24578082015181840152602081019050610c09565b83811115610c33576000848401525b50505050565b610c4282610c99565b810181811067ffffffffffffffff82111715610c6157610c60610c6a565b5b80604052505050565b7f4e487b7100000000000000000000000000000000000000000000000000000000600052604160045260246000fd5b6000601f19601f8301169050919050565b7f4661696c656420746f20696e697469616c697a65000000000000000000000000600082015250565b7f546869732074656d706c617465206e616d6520697320616c726561647920746160008201527f6b656e2e00000000000000000000000000000000000000000000000000000000602082015250565b7f596f75277265206e6f742074686520676f7665726e65722e0000000000000000600082015250565b610d5481610bb9565b8114610d5f57600080fd5b50565b610d6b81610bcb565b8114610d7657600080fd5b5056fea2646970667358221220ab1820a064671be22fea2c820d2ca919709f0ca7deb5adc863544729b4f61f9764736f6c63430008030033",
  "linkReferences": {},
  "deployedLinkReferences": {}
}