{
  "_format": "hh-sol-artifact-1",
  "contractName": "Factory",
  "sourceName": "contracts/Factory.sol",
  "abi": [
    {
      "inputs": [
        {
          "internalType": "address",
          "name": "initialOwner",
          "type": "address"
        }
      ],
      "stateMutability": "nonpayable",
      "type": "constructor"
    },
    {
      "anonymous": false,
      "inputs": [
        {
          "indexed": true,
          "internalType": "address",
          "name": "sender",
          "type": "address"
        },
        {
          "indexed": true,
          "internalType": "string",
          "name": "templateName",
          "type": "string"
        },
        {
          "indexed": true,
          "internalType": "address",
          "name": "deployedAddr",
          "type": "address"
        },
        {
          "indexed": false,
          "internalType": "bytes32[2]",
          "name": "payloads",
          "type": "bytes32[2]"
        }
      ],
      "name": "Deployed",
      "type": "event"
    },
    {
      "anonymous": false,
      "inputs": [
        {
          "indexed": true,
          "internalType": "address",
          "name": "oldGoverner",
          "type": "address"
        },
        {
          "indexed": true,
          "internalType": "address",
          "name": "newGoverner",
          "type": "address"
        }
      ],
      "name": "GovernanceChanged",
      "type": "event"
    },
    {
      "anonymous": false,
      "inputs": [
        {
          "indexed": true,
          "internalType": "address",
          "name": "sender",
          "type": "address"
        },
        {
          "indexed": false,
          "internalType": "uint256",
          "name": "fee",
          "type": "uint256"
        },
        {
          "indexed": false,
          "internalType": "uint256",
          "name": "treasury",
          "type": "uint256"
        }
      ],
      "name": "Received",
      "type": "event"
    },
    {
      "anonymous": false,
      "inputs": [
        {
          "indexed": true,
          "internalType": "string",
          "name": "templateName",
          "type": "string"
        },
        {
          "indexed": true,
          "internalType": "address",
          "name": "templateAddr",
          "type": "address"
        },
        {
          "indexed": true,
          "internalType": "address",
          "name": "governer",
          "type": "address"
        }
      ],
      "name": "TemplateAdded",
      "type": "event"
    },
    {
      "anonymous": false,
      "inputs": [
        {
          "indexed": true,
          "internalType": "address",
          "name": "sender",
          "type": "address"
        },
        {
          "indexed": true,
          "internalType": "string",
          "name": "templateName",
          "type": "string"
        },
        {
          "indexed": true,
          "internalType": "address",
          "name": "deployedAddr",
          "type": "address"
        },
        {
          "indexed": false,
          "internalType": "bytes",
          "name": "abiArgs",
          "type": "bytes"
        }
      ],
      "name": "TokenCloneDeployed",
      "type": "event"
    },
    {
      "anonymous": false,
      "inputs": [
        {
          "indexed": true,
          "internalType": "address",
          "name": "sender",
          "type": "address"
        },
        {
          "indexed": false,
          "internalType": "address",
          "name": "governance",
          "type": "address"
        },
        {
          "indexed": false,
          "internalType": "uint256",
          "name": "amount",
          "type": "uint256"
        },
        {
          "indexed": false,
          "internalType": "uint256",
          "name": "treasuryAfter",
          "type": "uint256"
        }
      ],
      "name": "Withdrawn",
      "type": "event"
    },
    {
      "inputs": [
        {
          "internalType": "string",
          "name": "templateName",
          "type": "string"
        },
        {
          "internalType": "address",
          "name": "templateAddr",
          "type": "address"
        }
      ],
      "name": "addTemplate",
      "outputs": [],
      "stateMutability": "nonpayable",
      "type": "function"
    },
    {
      "inputs": [
        {
          "internalType": "bytes32",
          "name": "b1",
          "type": "bytes32"
        },
        {
          "internalType": "bytes32",
          "name": "b2",
          "type": "bytes32"
        }
      ],
      "name": "concat",
      "outputs": [
        {
          "internalType": "bytes",
          "name": "",
          "type": "bytes"
        }
      ],
      "stateMutability": "pure",
      "type": "function"
    },
    {
      "inputs": [
        {
          "internalType": "string",
          "name": "templateName",
          "type": "string"
        },
        {
          "internalType": "address",
          "name": "token1Addr",
          "type": "address"
        },
        {
          "internalType": "uint256",
          "name": "sellingAmount",
          "type": "uint256"
        },
        {
          "internalType": "bytes32[2]",
          "name": "payloads",
          "type": "bytes32[2]"
        }
      ],
      "name": "deploy",
      "outputs": [
        {
          "internalType": "address",
          "name": "deployedAddr",
          "type": "address"
        }
      ],
      "stateMutability": "nonpayable",
      "type": "function"
    },
    {
      "inputs": [
        {
          "internalType": "string",
          "name": "templateName",
          "type": "string"
        },
        {
          "internalType": "bytes",
          "name": "abiArgs",
          "type": "bytes"
        }
      ],
      "name": "deployTokenClone",
      "outputs": [
        {
          "internalType": "address",
          "name": "deployedAddr",
          "type": "address"
        }
      ],
      "stateMutability": "nonpayable",
      "type": "function"
    },
    {
      "inputs": [],
      "name": "governance",
      "outputs": [
        {
          "internalType": "address",
          "name": "",
          "type": "address"
        }
      ],
      "stateMutability": "view",
      "type": "function"
    },
    {
      "inputs": [
        {
          "internalType": "address",
          "name": "newGoverner",
          "type": "address"
        }
      ],
      "name": "setGovernance",
      "outputs": [],
      "stateMutability": "nonpayable",
      "type": "function"
    },
    {
      "inputs": [
        {
          "internalType": "string",
          "name": "",
          "type": "string"
        }
      ],
      "name": "templates",
      "outputs": [
        {
          "internalType": "address",
          "name": "",
          "type": "address"
        }
      ],
      "stateMutability": "view",
      "type": "function"
    },
    {
      "inputs": [
        {
          "internalType": "address",
          "name": "to",
          "type": "address"
        },
        {
          "internalType": "uint256",
          "name": "amount",
          "type": "uint256"
        }
      ],
      "name": "withdraw",
      "outputs": [],
      "stateMutability": "nonpayable",
      "type": "function"
    },
    {
      "stateMutability": "payable",
      "type": "receive"
    }
  ],
  "bytecode": "0x608060405260006003553480156200001657600080fd5b50604051620027bf380380620027bf83398181016040528101906200003c9190620000a3565b600160008190555080600260006101000a81548173ffffffffffffffffffffffffffffffffffffffff021916908373ffffffffffffffffffffffffffffffffffffffff160217905550506200011d565b6000815190506200009d8162000103565b92915050565b600060208284031215620000b657600080fd5b6000620000c6848285016200008c565b91505092915050565b6000620000dc82620000e3565b9050919050565b600073ffffffffffffffffffffffffffffffffffffffff82169050919050565b6200010e81620000cf565b81146200011a57600080fd5b50565b612692806200012d6000396000f3fe60806040526004361061007f5760003560e01c8063ab033ea91161004e578063ab033ea9146101bd578063b22beeda146101e6578063dd3fac7c14610223578063f3fef3a31461024c576100d6565b80634106d2b3146100db5780635aa6e6751461011857806361838643146101435780637b9e620014610180576100d6565b366100d6573373ffffffffffffffffffffffffffffffffffffffff167f74cf3d18d0ddca79038197ad0dd2c7fa5005ef61a5d1ed190e8a8a437e2fcf1034476040516100cc929190611fe8565b60405180910390a2005b600080fd5b3480156100e757600080fd5b5061010260048036038101906100fd9190611810565b610275565b60405161010f9190611ce9565b60405180910390f35b34801561012457600080fd5b5061012d6104c5565b60405161013a9190611ce9565b60405180910390f35b34801561014f57600080fd5b5061016a60048036038101906101659190611795565b6104eb565b6040516101779190611ce9565b60405180910390f35b34801561018c57600080fd5b506101a760048036038101906101a291906116c4565b610b6d565b6040516101b49190611db6565b60405180910390f35b3480156101c957600080fd5b506101e460048036038101906101df9190611636565b610bfd565b005b3480156101f257600080fd5b5061020d60048036038101906102089190611700565b610dbd565b60405161021a9190611ce9565b60405180910390f35b34801561022f57600080fd5b5061024a60048036038101906102459190611741565b610e06565b005b34801561025857600080fd5b50610273600480360381019061026e919061165f565b611036565b005b6000808351116102ba576040517f08c379a00000000000000000000000000000000000000000000000000000000081526004016102b190611e68565b60405180910390fd5b60006001846040516102cc9190611cbd565b908152602001604051809103902060009054906101000a900473ffffffffffffffffffffffffffffffffffffffff169050600073ffffffffffffffffffffffffffffffffffffffff168173ffffffffffffffffffffffffffffffffffffffff16141561036d576040517f08c379a000000000000000000000000000000000000000000000000000000000815260040161036490611e48565b60405180910390fd5b61037781846112f4565b91508173ffffffffffffffffffffffffffffffffffffffff1663439fab91846040518263ffffffff1660e01b81526004016103b29190611db6565b602060405180830381600087803b1580156103cc57600080fd5b505af11580156103e0573d6000803e3d6000fd5b505050506040513d601f19601f82011682018060405250810190610404919061169b565b610443576040517f08c379a000000000000000000000000000000000000000000000000000000000815260040161043a90611ec8565b60405180910390fd5b8173ffffffffffffffffffffffffffffffffffffffff16846040516104689190611cbd565b60405180910390203373ffffffffffffffffffffffffffffffffffffffff167f963b25a3046538cf230a89488527b2bee2eba00f25f06f8e5a4a14e57eba6880866040516104b69190611db6565b60405180910390a45092915050565b600260009054906101000a900473ffffffffffffffffffffffffffffffffffffffff1681565b600060026000541415610533576040517f08c379a000000000000000000000000000000000000000000000000000000000815260040161052a90611fc8565b60405180910390fd5b6002600081905550600085511161057f576040517f08c379a000000000000000000000000000000000000000000000000000000000815260040161057690611e68565b60405180910390fd5b600073ffffffffffffffffffffffffffffffffffffffff168473ffffffffffffffffffffffffffffffffffffffff1614156105ef576040517f08c379a00000000000000000000000000000000000000000000000000000000081526004016105e690611ea8565b60405180910390fd5b60006001866040516106019190611cbd565b908152602001604051809103902060009054906101000a900473ffffffffffffffffffffffffffffffffffffffff169050600073ffffffffffffffffffffffffffffffffffffffff168173ffffffffffffffffffffffffffffffffffffffff1614156106a2576040517f08c379a000000000000000000000000000000000000000000000000000000000815260040161069990611e48565b60405180910390fd5b600084116106e5576040517f08c379a00000000000000000000000000000000000000000000000000000000081526004016106dc90611f48565b60405180910390fd5b60008573ffffffffffffffffffffffffffffffffffffffff1663dd62ed3e33306040518363ffffffff1660e01b8152600401610722929190611d04565b60206040518083038186803b15801561073a57600080fd5b505afa15801561074e573d6000803e3d6000fd5b505050506040513d601f19601f82011682018060405250810190610772919061187c565b9050600081116107b7576040517f08c379a00000000000000000000000000000000000000000000000000000000081526004016107ae90611ee8565b60405180910390fd5b848110156107fa576040517f08c379a00000000000000000000000000000000000000000000000000000000081526004016107f190611e88565b60405180910390fd5b6108396040518060400160405280600c81526020017f6761736c65667428293a257300000000000000000000000000000000000000008152505a6113ae565b6108c8826108c38660006002811061087a577f4e487b7100000000000000000000000000000000000000000000000000000000600052603260045260246000fd5b6020020151876001600281106108b9577f4e487b7100000000000000000000000000000000000000000000000000000000600052603260045260246000fd5b6020020151610b6d565b6112f4565b92506109096040518060400160405280600c81526020017f6761736c65667428293a257300000000000000000000000000000000000000008152505a6113ae565b8573ffffffffffffffffffffffffffffffffffffffff166323b872dd3385886040518463ffffffff1660e01b815260040161094693929190611d2d565b602060405180830381600087803b15801561096057600080fd5b505af1158015610974573d6000803e3d6000fd5b505050506040513d601f19601f82011682018060405250810190610998919061169b565b6109d7576040517f08c379a00000000000000000000000000000000000000000000000000000000081526004016109ce90611e28565b60405180910390fd5b610a166040518060400160405280600c81526020017f6761736c65667428293a257300000000000000000000000000000000000000008152505a6113ae565b8273ffffffffffffffffffffffffffffffffffffffff16632d160321856040518263ffffffff1660e01b8152600401610a4f9190611d9b565b602060405180830381600087803b158015610a6957600080fd5b505af1158015610a7d573d6000803e3d6000fd5b505050506040513d601f19601f82011682018060405250810190610aa1919061169b565b610ae0576040517f08c379a0000000000000000000000000000000000000000000000000000000008152600401610ad790611ec8565b60405180910390fd5b8273ffffffffffffffffffffffffffffffffffffffff1687604051610b059190611cbd565b60405180910390203373ffffffffffffffffffffffffffffffffffffffff167fcfcd5a38dc571cef79ab30d6c156f2b1dfc439633458910c421639865b9a40ae87604051610b539190611d9b565b60405180910390a450506001600081905550949350505050565b60606000604067ffffffffffffffff811115610bb2577f4e487b7100000000000000000000000000000000000000000000000000000000600052604160045260246000fd5b6040519080825280601f01601f191660200182016040528015610be45781602001600182028036833780820191505090505b5090508360208201528260408201528091505092915050565b600260009054906101000a900473ffffffffffffffffffffffffffffffffffffffff1673ffffffffffffffffffffffffffffffffffffffff163373ffffffffffffffffffffffffffffffffffffffff1614610c8d576040517f08c379a0000000000000000000000000000000000000000000000000000000008152600401610c8490611fa8565b60405180910390fd5b600073ffffffffffffffffffffffffffffffffffffffff168173ffffffffffffffffffffffffffffffffffffffff161415610cfd576040517f08c379a0000000000000000000000000000000000000000000000000000000008152600401610cf490611f08565b60405180910390fd5b8073ffffffffffffffffffffffffffffffffffffffff16600260009054906101000a900473ffffffffffffffffffffffffffffffffffffffff1673ffffffffffffffffffffffffffffffffffffffff167f3aaaebeb4821d6a7e5c77ece53cff0afcc56c82add2c978dbbb7f73e84cbcfd260405160405180910390a380600260006101000a81548173ffffffffffffffffffffffffffffffffffffffff021916908373ffffffffffffffffffffffffffffffffffffffff16021790555050565b6001818051602081018201805184825260208301602085012081835280955050505050506000915054906101000a900473ffffffffffffffffffffffffffffffffffffffff1681565b600260009054906101000a900473ffffffffffffffffffffffffffffffffffffffff1673ffffffffffffffffffffffffffffffffffffffff163373ffffffffffffffffffffffffffffffffffffffff1614610e96576040517f08c379a0000000000000000000000000000000000000000000000000000000008152600401610e8d90611fa8565b60405180910390fd5b600073ffffffffffffffffffffffffffffffffffffffff16600183604051610ebe9190611cbd565b908152602001604051809103902060009054906101000a900473ffffffffffffffffffffffffffffffffffffffff1673ffffffffffffffffffffffffffffffffffffffff1614610f43576040517f08c379a0000000000000000000000000000000000000000000000000000000008152600401610f3a90611f28565b60405180910390fd5b80600183604051610f549190611cbd565b908152602001604051809103902060006101000a81548173ffffffffffffffffffffffffffffffffffffffff021916908373ffffffffffffffffffffffffffffffffffffffff160217905550600260009054906101000a900473ffffffffffffffffffffffffffffffffffffffff1673ffffffffffffffffffffffffffffffffffffffff168173ffffffffffffffffffffffffffffffffffffffff1683604051610ffe9190611cbd565b60405180910390207f723df8b5c179a677dc2dc19d7904aef24eb403b08a15218a43357705f703370660405160405180910390a45050565b600260009054906101000a900473ffffffffffffffffffffffffffffffffffffffff1673ffffffffffffffffffffffffffffffffffffffff163373ffffffffffffffffffffffffffffffffffffffff16146110c6576040517f08c379a00000000000000000000000000000000000000000000000000000000081526004016110bd90611fa8565b60405180910390fd5b6002600054141561110c576040517f08c379a000000000000000000000000000000000000000000000000000000000815260040161110390611fc8565b60405180910390fd5b6002600081905550600073ffffffffffffffffffffffffffffffffffffffff168273ffffffffffffffffffffffffffffffffffffffff161415611184576040517f08c379a000000000000000000000000000000000000000000000000000000000815260040161117b90611e08565b60405180910390fd5b804710156111c7576040517f08c379a00000000000000000000000000000000000000000000000000000000081526004016111be90611f88565b60405180910390fd5b60008273ffffffffffffffffffffffffffffffffffffffff16826040516111ed90611cd4565b60006040518083038185875af1925050503d806000811461122a576040519150601f19603f3d011682016040523d82523d6000602084013e61122f565b606091505b5050905080611273576040517f08c379a000000000000000000000000000000000000000000000000000000000815260040161126a90611f68565b60405180910390fd5b3373ffffffffffffffffffffffffffffffffffffffff167f91fb9d98b786c57d74c099ccd2beca1739e9f6a81fb49001ca465c4b7591bbe2600260009054906101000a900473ffffffffffffffffffffffffffffffffffffffff1684476040516112df93929190611d64565b60405180910390a25060016000819055505050565b6000808360601b90506001600360008282546113109190612139565b9250508190555060008484336003546040516020016113329493929190611c73565b6040516020818303038152906040528051906020012090506040517f3d602d80600a3d3981f3363d3d373d3d3d363d7300000000000000000000000081528260148201527f5af43d82803e903d91602b57fd5bf300000000000000000000000000000000006028820152816037826000f5935050505092915050565b61144682826040516024016113c4929190611dd8565b6040516020818303038152906040527f9710a9d0000000000000000000000000000000000000000000000000000000007bffffffffffffffffffffffffffffffffffffffffffffffffffffffff19166020820180517bffffffffffffffffffffffffffffffffffffffffffffffffffffffff838183161783525050505061144a565b5050565b60008151905060006a636f6e736f6c652e6c6f679050602083016000808483855afa5050505050565b600061148661148184612036565b612011565b9050808285602086028201111561149c57600080fd5b60005b858110156114cc57816114b288826115a3565b84526020840193506020830192505060018101905061149f565b5050509392505050565b60006114e96114e48461205c565b612011565b90508281526020810184848401111561150157600080fd5b61150c8482856121e1565b509392505050565b60006115276115228461208d565b612011565b90508281526020810184848401111561153f57600080fd5b61154a8482856121e1565b509392505050565b60008135905061156181612600565b92915050565b600082601f83011261157857600080fd5b6002611585848285611473565b91505092915050565b60008151905061159d81612617565b92915050565b6000813590506115b28161262e565b92915050565b600082601f8301126115c957600080fd5b81356115d98482602086016114d6565b91505092915050565b600082601f8301126115f357600080fd5b8135611603848260208601611514565b91505092915050565b60008135905061161b81612645565b92915050565b60008151905061163081612645565b92915050565b60006020828403121561164857600080fd5b600061165684828501611552565b91505092915050565b6000806040838503121561167257600080fd5b600061168085828601611552565b92505060206116918582860161160c565b9150509250929050565b6000602082840312156116ad57600080fd5b60006116bb8482850161158e565b91505092915050565b600080604083850312156116d757600080fd5b60006116e5858286016115a3565b92505060206116f6858286016115a3565b9150509250929050565b60006020828403121561171257600080fd5b600082013567ffffffffffffffff81111561172c57600080fd5b611738848285016115e2565b91505092915050565b6000806040838503121561175457600080fd5b600083013567ffffffffffffffff81111561176e57600080fd5b61177a858286016115e2565b925050602061178b85828601611552565b9150509250929050565b60008060008060a085870312156117ab57600080fd5b600085013567ffffffffffffffff8111156117c557600080fd5b6117d1878288016115e2565b94505060206117e287828801611552565b93505060406117f38782880161160c565b925050606061180487828801611567565b91505092959194509250565b6000806040838503121561182357600080fd5b600083013567ffffffffffffffff81111561183d57600080fd5b611849858286016115e2565b925050602083013567ffffffffffffffff81111561186657600080fd5b611872858286016115b8565b9150509250929050565b60006020828403121561188e57600080fd5b600061189c84828501611621565b91505092915050565b60006118b1838361193a565b60208301905092915050565b6118c68161218f565b82525050565b6118dd6118d88261218f565b612254565b82525050565b6118ec816120c8565b6118f681846120f6565b9250611901826120be565b8060005b8381101561193257815161191987826118a5565b9650611924836120e9565b925050600181019050611905565b505050505050565b611943816121ad565b82525050565b6000611954826120d3565b61195e8185612101565b935061196e8185602086016121f0565b611977816122e0565b840191505092915050565b600061198d826120d3565b6119978185612112565b93506119a78185602086016121f0565b80840191505092915050565b60006119be826120de565b6119c8818561211d565b93506119d88185602086016121f0565b6119e1816122e0565b840191505092915050565b60006119f7826120de565b611a01818561212e565b9350611a118185602086016121f0565b80840191505092915050565b6000611a2a60168361211d565b9150611a35826122fe565b602082019050919050565b6000611a4d60148361211d565b9150611a5882612327565b602082019050919050565b6000611a70601d8361211d565b9150611a7b82612350565b602082019050919050565b6000611a93600d8361211d565b9150611a9e82612379565b602082019050919050565b6000611ab660188361211d565b9150611ac1826123a2565b602082019050919050565b6000611ad960198361211d565b9150611ae4826123cb565b602082019050919050565b6000611afc60298361211d565b9150611b07826123f4565b604082019050919050565b6000611b1f60258361211d565b9150611b2a82612443565b604082019050919050565b6000611b42600083612112565b9150611b4d82612492565b600082019050919050565b6000611b6560178361211d565b9150611b7082612495565b602082019050919050565b6000611b8860248361211d565b9150611b93826124be565b604082019050919050565b6000611bab60318361211d565b9150611bb68261250d565b604082019050919050565b6000611bce600f8361211d565b9150611bd98261255c565b602082019050919050565b6000611bf160118361211d565b9150611bfc82612585565b602082019050919050565b6000611c1460188361211d565b9150611c1f826125ae565b602082019050919050565b6000611c37601f8361211d565b9150611c42826125d7565b602082019050919050565b611c56816121d7565b82525050565b611c6d611c68826121d7565b612278565b82525050565b6000611c7f82876118cc565b601482019150611c8f8286611982565b9150611c9b82856118cc565b601482019150611cab8284611c5c565b60208201915081905095945050505050565b6000611cc982846119ec565b915081905092915050565b6000611cdf82611b35565b9150819050919050565b6000602082019050611cfe60008301846118bd565b92915050565b6000604082019050611d1960008301856118bd565b611d2660208301846118bd565b9392505050565b6000606082019050611d4260008301866118bd565b611d4f60208301856118bd565b611d5c6040830184611c4d565b949350505050565b6000606082019050611d7960008301866118bd565b611d866020830185611c4d565b611d936040830184611c4d565b949350505050565b6000604082019050611db060008301846118e3565b92915050565b60006020820190508181036000830152611dd08184611949565b905092915050565b60006040820190508181036000830152611df281856119b3565b9050611e016020830184611c4d565b9392505050565b60006020820190508181036000830152611e2181611a1d565b9050919050565b60006020820190508181036000830152611e4181611a40565b9050919050565b60006020820190508181036000830152611e6181611a63565b9050919050565b60006020820190508181036000830152611e8181611a86565b9050919050565b60006020820190508181036000830152611ea181611aa9565b9050919050565b60006020820190508181036000830152611ec181611acc565b9050919050565b60006020820190508181036000830152611ee181611aef565b9050919050565b60006020820190508181036000830152611f0181611b12565b9050919050565b60006020820190508181036000830152611f2181611b58565b9050919050565b60006020820190508181036000830152611f4181611b7b565b9050919050565b60006020820190508181036000830152611f6181611b9e565b9050919050565b60006020820190508181036000830152611f8181611bc1565b9050919050565b60006020820190508181036000830152611fa181611be4565b9050919050565b60006020820190508181036000830152611fc181611c07565b9050919050565b60006020820190508181036000830152611fe181611c2a565b9050919050565b6000604082019050611ffd6000830185611c4d565b61200a6020830184611c4d565b9392505050565b600061201b61202c565b90506120278282612223565b919050565b6000604051905090565b600067ffffffffffffffff821115612051576120506122b1565b5b602082029050919050565b600067ffffffffffffffff821115612077576120766122b1565b5b612080826122e0565b9050602081019050919050565b600067ffffffffffffffff8211156120a8576120a76122b1565b5b6120b1826122e0565b9050602081019050919050565b6000819050919050565b600060029050919050565b600081519050919050565b600081519050919050565b6000602082019050919050565b600081905092915050565b600082825260208201905092915050565b600081905092915050565b600082825260208201905092915050565b600081905092915050565b6000612144826121d7565b915061214f836121d7565b9250827fffffffffffffffffffffffffffffffffffffffffffffffffffffffffffffffff0382111561218457612183612282565b5b828201905092915050565b600061219a826121b7565b9050919050565b60008115159050919050565b6000819050919050565b600073ffffffffffffffffffffffffffffffffffffffff82169050919050565b6000819050919050565b82818337600083830152505050565b60005b8381101561220e5780820151818401526020810190506121f3565b8381111561221d576000848401525b50505050565b61222c826122e0565b810181811067ffffffffffffffff8211171561224b5761224a6122b1565b5b80604052505050565b600061225f82612266565b9050919050565b6000612271826122f1565b9050919050565b6000819050919050565b7f4e487b7100000000000000000000000000000000000000000000000000000000600052601160045260246000fd5b7f4e487b7100000000000000000000000000000000000000000000000000000000600052604160045260246000fd5b6000601f19601f8301169050919050565b60008160601b9050919050565b7f446f6e2774206469736361726420747265617572792100000000000000000000600082015250565b7f5472616e7366657246726f6d206661696c65642e000000000000000000000000600082015250565b7f4e6f20737563682074656d706c61746520696e20746865206c6973742e000000600082015250565b7f456d70747920737472696e672e00000000000000000000000000000000000000600082015250565b7f616c6c6f77616e6365206973206e6f7420656e6f7567682e0000000000000000600082015250565b7f476f2077697468206e6f6e206e756c6c20616464726573732e00000000000000600082015250565b7f4661696c656420746f20696e697469616c697a652074686520636c6f6e65642060008201527f636f6e74726163742e0000000000000000000000000000000000000000000000602082015250565b7f596f75206861766520746f20617070726f7665204552432d323020746f20646560008201527f706c6f792e000000000000000000000000000000000000000000000000000000602082015250565b50565b7f676f7665726e65722063616e6e6f74206265206e756c6c000000000000000000600082015250565b7f546869732074656d706c617465206e616d6520697320616c726561647920746160008201527f6b656e2e00000000000000000000000000000000000000000000000000000000602082015250565b7f486176696e6720616e206576656e7420776974686f757420746f6b656e73206160008201527f7265206e6f74207065726d69747465642e000000000000000000000000000000602082015250565b7f7472616e73666572206661696c65640000000000000000000000000000000000600082015250565b7f416d6f756e7420697320746f6f20626967000000000000000000000000000000600082015250565b7f596f75277265206e6f742074686520676f7665726e65722e0000000000000000600082015250565b7f5265656e7472616e637947756172643a207265656e7472616e742063616c6c00600082015250565b6126098161218f565b811461261457600080fd5b50565b612620816121a1565b811461262b57600080fd5b50565b612637816121ad565b811461264257600080fd5b50565b61264e816121d7565b811461265957600080fd5b5056fea264697066735822122028943f9d3ae6dba5e3916311b1ae7f720018d9aebc90bf586c2ad474e2ca144964736f6c63430008030033",
  "linkReferences": {},
  "deployedLinkReferences": {}
}