{
  "_format": "hh-sol-artifact-1",
  "contractName": "Factory",
  "sourceName": "contracts/Factory.sol",
  "abi": [
    {
      "inputs": [
        {
          "internalType": "address",
          "name": "initialOwner",
          "type": "address"
        }
      ],
      "stateMutability": "nonpayable",
      "type": "constructor"
    },
    {
      "anonymous": false,
      "inputs": [
        {
          "indexed": true,
          "internalType": "address",
          "name": "sender",
          "type": "address"
        },
        {
          "indexed": true,
          "internalType": "string",
          "name": "templateName",
          "type": "string"
        },
        {
          "indexed": true,
          "internalType": "address",
          "name": "deployedAddr",
          "type": "address"
        },
        {
          "indexed": false,
          "internalType": "bytes",
          "name": "payload",
          "type": "bytes"
        }
      ],
      "name": "Deployed",
      "type": "event"
    },
    {
      "anonymous": false,
      "inputs": [
        {
          "indexed": true,
          "internalType": "address",
          "name": "oldGoverner",
          "type": "address"
        },
        {
          "indexed": true,
          "internalType": "address",
          "name": "newGoverner",
          "type": "address"
        }
      ],
      "name": "GovernanceChanged",
      "type": "event"
    },
    {
      "anonymous": false,
      "inputs": [
        {
          "indexed": true,
          "internalType": "address",
          "name": "sender",
          "type": "address"
        },
        {
          "indexed": false,
          "internalType": "uint256",
          "name": "fee",
          "type": "uint256"
        },
        {
          "indexed": false,
          "internalType": "uint256",
          "name": "treasury",
          "type": "uint256"
        }
      ],
      "name": "Received",
      "type": "event"
    },
    {
      "anonymous": false,
      "inputs": [
        {
          "indexed": true,
          "internalType": "string",
          "name": "templateName",
          "type": "string"
        },
        {
          "indexed": true,
          "internalType": "address",
          "name": "templateAddr",
          "type": "address"
        },
        {
          "indexed": true,
          "internalType": "address",
          "name": "governer",
          "type": "address"
        }
      ],
      "name": "TemplateAdded",
      "type": "event"
    },
    {
      "anonymous": false,
      "inputs": [
        {
          "indexed": true,
          "internalType": "address",
          "name": "sender",
          "type": "address"
        },
        {
          "indexed": true,
          "internalType": "string",
          "name": "templateName",
          "type": "string"
        },
        {
          "indexed": true,
          "internalType": "address",
          "name": "deployedAddr",
          "type": "address"
        },
        {
          "indexed": false,
          "internalType": "bytes",
          "name": "abiArgs",
          "type": "bytes"
        }
      ],
      "name": "TokenCloneDeployed",
      "type": "event"
    },
    {
      "anonymous": false,
      "inputs": [
        {
          "indexed": true,
          "internalType": "address",
          "name": "sender",
          "type": "address"
        },
        {
          "indexed": false,
          "internalType": "address",
          "name": "governance",
          "type": "address"
        },
        {
          "indexed": false,
          "internalType": "uint256",
          "name": "amount",
          "type": "uint256"
        },
        {
          "indexed": false,
          "internalType": "uint256",
          "name": "treasuryAfter",
          "type": "uint256"
        }
      ],
      "name": "Withdrawn",
      "type": "event"
    },
    {
      "inputs": [
        {
          "internalType": "string",
          "name": "templateName",
          "type": "string"
        },
        {
          "internalType": "address",
          "name": "templateAddr",
          "type": "address"
        }
      ],
      "name": "addTemplate",
      "outputs": [],
      "stateMutability": "nonpayable",
      "type": "function"
    },
    {
      "inputs": [
        {
          "internalType": "string",
          "name": "templateName",
          "type": "string"
        },
        {
          "internalType": "address",
          "name": "token1Addr",
          "type": "address"
        },
        {
          "internalType": "uint256",
          "name": "sellingAmount",
          "type": "uint256"
        },
        {
          "internalType": "bytes",
          "name": "payload",
          "type": "bytes"
        }
      ],
      "name": "deploy",
      "outputs": [
        {
          "internalType": "address",
          "name": "deployedAddr",
          "type": "address"
        }
      ],
      "stateMutability": "nonpayable",
      "type": "function"
    },
    {
      "inputs": [
        {
          "internalType": "string",
          "name": "templateName",
          "type": "string"
        },
        {
          "internalType": "bytes",
          "name": "abiArgs",
          "type": "bytes"
        }
      ],
      "name": "deployTokenClone",
      "outputs": [
        {
          "internalType": "address",
          "name": "deployedAddr",
          "type": "address"
        }
      ],
      "stateMutability": "nonpayable",
      "type": "function"
    },
    {
      "inputs": [],
      "name": "governance",
      "outputs": [
        {
          "internalType": "address",
          "name": "",
          "type": "address"
        }
      ],
      "stateMutability": "view",
      "type": "function"
    },
    {
      "inputs": [
        {
          "internalType": "address",
          "name": "newGoverner",
          "type": "address"
        }
      ],
      "name": "setGovernance",
      "outputs": [],
      "stateMutability": "nonpayable",
      "type": "function"
    },
    {
      "inputs": [
        {
          "internalType": "string",
          "name": "",
          "type": "string"
        }
      ],
      "name": "templates",
      "outputs": [
        {
          "internalType": "address",
          "name": "",
          "type": "address"
        }
      ],
      "stateMutability": "view",
      "type": "function"
    },
    {
      "inputs": [
        {
          "internalType": "address",
          "name": "to",
          "type": "address"
        },
        {
          "internalType": "uint256",
          "name": "amount",
          "type": "uint256"
        }
      ],
      "name": "withdraw",
      "outputs": [],
      "stateMutability": "nonpayable",
      "type": "function"
    },
    {
      "stateMutability": "payable",
      "type": "receive"
    }
  ],
  "bytecode": "0x608060405260006003553480156200001657600080fd5b50604051620024923803806200249283398181016040528101906200003c9190620000a3565b600160008190555080600260006101000a81548173ffffffffffffffffffffffffffffffffffffffff021916908373ffffffffffffffffffffffffffffffffffffffff160217905550506200011d565b6000815190506200009d8162000103565b92915050565b600060208284031215620000b657600080fd5b6000620000c6848285016200008c565b91505092915050565b6000620000dc82620000e3565b9050919050565b600073ffffffffffffffffffffffffffffffffffffffff82169050919050565b6200010e81620000cf565b81146200011a57600080fd5b50565b612365806200012d6000396000f3fe6080604052600436106100745760003560e01c8063ab033ea91161004e578063ab033ea914610175578063b22beeda1461019e578063dd3fac7c146101db578063f3fef3a314610204576100cb565b80634106d2b3146100d05780634c105a871461010d5780635aa6e6751461014a576100cb565b366100cb573373ffffffffffffffffffffffffffffffffffffffff167f74cf3d18d0ddca79038197ad0dd2c7fa5005ef61a5d1ed190e8a8a437e2fcf1034476040516100c1929190611d2f565b60405180910390a2005b600080fd5b3480156100dc57600080fd5b506100f760048036038101906100f291906115f0565b61022d565b6040516101049190611a4b565b60405180910390f35b34801561011957600080fd5b50610134600480360381019061012f919061155d565b61047d565b6040516101419190611a4b565b60405180910390f35b34801561015657600080fd5b5061015f610a7a565b60405161016c9190611a4b565b60405180910390f35b34801561018157600080fd5b5061019c6004803603810190610197919061143a565b610aa0565b005b3480156101aa57600080fd5b506101c560048036038101906101c091906114c8565b610c60565b6040516101d29190611a4b565b60405180910390f35b3480156101e757600080fd5b5061020260048036038101906101fd9190611509565b610ca9565b005b34801561021057600080fd5b5061022b60048036038101906102269190611463565b610ed9565b005b600080835111610272576040517f08c379a000000000000000000000000000000000000000000000000000000000815260040161026990611baf565b60405180910390fd5b60006001846040516102849190611a1f565b908152602001604051809103902060009054906101000a900473ffffffffffffffffffffffffffffffffffffffff169050600073ffffffffffffffffffffffffffffffffffffffff168173ffffffffffffffffffffffffffffffffffffffff161415610325576040517f08c379a000000000000000000000000000000000000000000000000000000000815260040161031c90611b8f565b60405180910390fd5b61032f8184611197565b91508173ffffffffffffffffffffffffffffffffffffffff1663439fab91846040518263ffffffff1660e01b815260040161036a9190611afd565b602060405180830381600087803b15801561038457600080fd5b505af1158015610398573d6000803e3d6000fd5b505050506040513d601f19601f820116820180604052508101906103bc919061149f565b6103fb576040517f08c379a00000000000000000000000000000000000000000000000000000000081526004016103f290611c0f565b60405180910390fd5b8173ffffffffffffffffffffffffffffffffffffffff16846040516104209190611a1f565b60405180910390203373ffffffffffffffffffffffffffffffffffffffff167f963b25a3046538cf230a89488527b2bee2eba00f25f06f8e5a4a14e57eba68808660405161046e9190611afd565b60405180910390a45092915050565b6000600260005414156104c5576040517f08c379a00000000000000000000000000000000000000000000000000000000081526004016104bc90611d0f565b60405180910390fd5b60026000819055506000855111610511576040517f08c379a000000000000000000000000000000000000000000000000000000000815260040161050890611baf565b60405180910390fd5b600073ffffffffffffffffffffffffffffffffffffffff168473ffffffffffffffffffffffffffffffffffffffff161415610581576040517f08c379a000000000000000000000000000000000000000000000000000000000815260040161057890611bef565b60405180910390fd5b60006001866040516105939190611a1f565b908152602001604051809103902060009054906101000a900473ffffffffffffffffffffffffffffffffffffffff169050600073ffffffffffffffffffffffffffffffffffffffff168173ffffffffffffffffffffffffffffffffffffffff161415610634576040517f08c379a000000000000000000000000000000000000000000000000000000000815260040161062b90611b8f565b60405180910390fd5b60008411610677576040517f08c379a000000000000000000000000000000000000000000000000000000000815260040161066e90611c8f565b60405180910390fd5b60008573ffffffffffffffffffffffffffffffffffffffff1663dd62ed3e33306040518363ffffffff1660e01b81526004016106b4929190611a66565b60206040518083038186803b1580156106cc57600080fd5b505afa1580156106e0573d6000803e3d6000fd5b505050506040513d601f19601f82011682018060405250810190610704919061165c565b905060008111610749576040517f08c379a000000000000000000000000000000000000000000000000000000000815260040161074090611c2f565b60405180910390fd5b8481101561078c576040517f08c379a000000000000000000000000000000000000000000000000000000000815260040161078390611bcf565b60405180910390fd5b6107cb6040518060400160405280600c81526020017f6761736c65667428293a257300000000000000000000000000000000000000008152505a611251565b6107d58285611197565b92506108166040518060400160405280600c81526020017f6761736c65667428293a257300000000000000000000000000000000000000008152505a611251565b8573ffffffffffffffffffffffffffffffffffffffff166323b872dd3385886040518463ffffffff1660e01b815260040161085393929190611a8f565b602060405180830381600087803b15801561086d57600080fd5b505af1158015610881573d6000803e3d6000fd5b505050506040513d601f19601f820116820180604052508101906108a5919061149f565b6108e4576040517f08c379a00000000000000000000000000000000000000000000000000000000081526004016108db90611b6f565b60405180910390fd5b6109236040518060400160405280600c81526020017f6761736c65667428293a257300000000000000000000000000000000000000008152505a611251565b8273ffffffffffffffffffffffffffffffffffffffff1663439fab91856040518263ffffffff1660e01b815260040161095c9190611afd565b602060405180830381600087803b15801561097657600080fd5b505af115801561098a573d6000803e3d6000fd5b505050506040513d601f19601f820116820180604052508101906109ae919061149f565b6109ed576040517f08c379a00000000000000000000000000000000000000000000000000000000081526004016109e490611c0f565b60405180910390fd5b8273ffffffffffffffffffffffffffffffffffffffff1687604051610a129190611a1f565b60405180910390203373ffffffffffffffffffffffffffffffffffffffff167feaf3e32328dded221c43928594c0b120f1ca35c76de3ca47f2d646f15cec558587604051610a609190611afd565b60405180910390a450506001600081905550949350505050565b600260009054906101000a900473ffffffffffffffffffffffffffffffffffffffff1681565b600260009054906101000a900473ffffffffffffffffffffffffffffffffffffffff1673ffffffffffffffffffffffffffffffffffffffff163373ffffffffffffffffffffffffffffffffffffffff1614610b30576040517f08c379a0000000000000000000000000000000000000000000000000000000008152600401610b2790611cef565b60405180910390fd5b600073ffffffffffffffffffffffffffffffffffffffff168173ffffffffffffffffffffffffffffffffffffffff161415610ba0576040517f08c379a0000000000000000000000000000000000000000000000000000000008152600401610b9790611c4f565b60405180910390fd5b8073ffffffffffffffffffffffffffffffffffffffff16600260009054906101000a900473ffffffffffffffffffffffffffffffffffffffff1673ffffffffffffffffffffffffffffffffffffffff167f3aaaebeb4821d6a7e5c77ece53cff0afcc56c82add2c978dbbb7f73e84cbcfd260405160405180910390a380600260006101000a81548173ffffffffffffffffffffffffffffffffffffffff021916908373ffffffffffffffffffffffffffffffffffffffff16021790555050565b6001818051602081018201805184825260208301602085012081835280955050505050506000915054906101000a900473ffffffffffffffffffffffffffffffffffffffff1681565b600260009054906101000a900473ffffffffffffffffffffffffffffffffffffffff1673ffffffffffffffffffffffffffffffffffffffff163373ffffffffffffffffffffffffffffffffffffffff1614610d39576040517f08c379a0000000000000000000000000000000000000000000000000000000008152600401610d3090611cef565b60405180910390fd5b600073ffffffffffffffffffffffffffffffffffffffff16600183604051610d619190611a1f565b908152602001604051809103902060009054906101000a900473ffffffffffffffffffffffffffffffffffffffff1673ffffffffffffffffffffffffffffffffffffffff1614610de6576040517f08c379a0000000000000000000000000000000000000000000000000000000008152600401610ddd90611c6f565b60405180910390fd5b80600183604051610df79190611a1f565b908152602001604051809103902060006101000a81548173ffffffffffffffffffffffffffffffffffffffff021916908373ffffffffffffffffffffffffffffffffffffffff160217905550600260009054906101000a900473ffffffffffffffffffffffffffffffffffffffff1673ffffffffffffffffffffffffffffffffffffffff168173ffffffffffffffffffffffffffffffffffffffff1683604051610ea19190611a1f565b60405180910390207f723df8b5c179a677dc2dc19d7904aef24eb403b08a15218a43357705f703370660405160405180910390a45050565b600260009054906101000a900473ffffffffffffffffffffffffffffffffffffffff1673ffffffffffffffffffffffffffffffffffffffff163373ffffffffffffffffffffffffffffffffffffffff1614610f69576040517f08c379a0000000000000000000000000000000000000000000000000000000008152600401610f6090611cef565b60405180910390fd5b60026000541415610faf576040517f08c379a0000000000000000000000000000000000000000000000000000000008152600401610fa690611d0f565b60405180910390fd5b6002600081905550600073ffffffffffffffffffffffffffffffffffffffff168273ffffffffffffffffffffffffffffffffffffffff161415611027576040517f08c379a000000000000000000000000000000000000000000000000000000000815260040161101e90611b4f565b60405180910390fd5b8047101561106a576040517f08c379a000000000000000000000000000000000000000000000000000000000815260040161106190611ccf565b60405180910390fd5b60008273ffffffffffffffffffffffffffffffffffffffff168260405161109090611a36565b60006040518083038185875af1925050503d80600081146110cd576040519150601f19603f3d011682016040523d82523d6000602084013e6110d2565b606091505b5050905080611116576040517f08c379a000000000000000000000000000000000000000000000000000000000815260040161110d90611caf565b60405180910390fd5b3373ffffffffffffffffffffffffffffffffffffffff167f91fb9d98b786c57d74c099ccd2beca1739e9f6a81fb49001ca465c4b7591bbe2600260009054906101000a900473ffffffffffffffffffffffffffffffffffffffff16844760405161118293929190611ac6565b60405180910390a25060016000819055505050565b6000808360601b90506001600360008282546111b39190611e2d565b9250508190555060008484336003546040516020016111d594939291906119d5565b6040516020818303038152906040528051906020012090506040517f3d602d80600a3d3981f3363d3d373d3d3d363d7300000000000000000000000081528260148201527f5af43d82803e903d91602b57fd5bf300000000000000000000000000000000006028820152816037826000f5935050505092915050565b6112e98282604051602401611267929190611b1f565b6040516020818303038152906040527f9710a9d0000000000000000000000000000000000000000000000000000000007bffffffffffffffffffffffffffffffffffffffffffffffffffffffff19166020820180517bffffffffffffffffffffffffffffffffffffffffffffffffffffffff83818316178352505050506112ed565b5050565b60008151905060006a636f6e736f6c652e6c6f679050602083016000808483855afa5050505050565b600061132961132484611d7d565b611d58565b90508281526020810184848401111561134157600080fd5b61134c848285611ecb565b509392505050565b600061136761136284611dae565b611d58565b90508281526020810184848401111561137f57600080fd5b61138a848285611ecb565b509392505050565b6000813590506113a1816122ea565b92915050565b6000815190506113b681612301565b92915050565b600082601f8301126113cd57600080fd5b81356113dd848260208601611316565b91505092915050565b600082601f8301126113f757600080fd5b8135611407848260208601611354565b91505092915050565b60008135905061141f81612318565b92915050565b60008151905061143481612318565b92915050565b60006020828403121561144c57600080fd5b600061145a84828501611392565b91505092915050565b6000806040838503121561147657600080fd5b600061148485828601611392565b925050602061149585828601611410565b9150509250929050565b6000602082840312156114b157600080fd5b60006114bf848285016113a7565b91505092915050565b6000602082840312156114da57600080fd5b600082013567ffffffffffffffff8111156114f457600080fd5b611500848285016113e6565b91505092915050565b6000806040838503121561151c57600080fd5b600083013567ffffffffffffffff81111561153657600080fd5b611542858286016113e6565b925050602061155385828601611392565b9150509250929050565b6000806000806080858703121561157357600080fd5b600085013567ffffffffffffffff81111561158d57600080fd5b611599878288016113e6565b94505060206115aa87828801611392565b93505060406115bb87828801611410565b925050606085013567ffffffffffffffff8111156115d857600080fd5b6115e4878288016113bc565b91505092959194509250565b6000806040838503121561160357600080fd5b600083013567ffffffffffffffff81111561161d57600080fd5b611629858286016113e6565b925050602083013567ffffffffffffffff81111561164657600080fd5b611652858286016113bc565b9150509250929050565b60006020828403121561166e57600080fd5b600061167c84828501611425565b91505092915050565b61168e81611e83565b82525050565b6116a56116a082611e83565b611f3e565b82525050565b60006116b682611ddf565b6116c08185611df5565b93506116d0818560208601611eda565b6116d981611fca565b840191505092915050565b60006116ef82611ddf565b6116f98185611e06565b9350611709818560208601611eda565b80840191505092915050565b600061172082611dea565b61172a8185611e11565b935061173a818560208601611eda565b61174381611fca565b840191505092915050565b600061175982611dea565b6117638185611e22565b9350611773818560208601611eda565b80840191505092915050565b600061178c601683611e11565b915061179782611fe8565b602082019050919050565b60006117af601483611e11565b91506117ba82612011565b602082019050919050565b60006117d2601d83611e11565b91506117dd8261203a565b602082019050919050565b60006117f5600d83611e11565b915061180082612063565b602082019050919050565b6000611818601883611e11565b91506118238261208c565b602082019050919050565b600061183b601983611e11565b9150611846826120b5565b602082019050919050565b600061185e602983611e11565b9150611869826120de565b604082019050919050565b6000611881602583611e11565b915061188c8261212d565b604082019050919050565b60006118a4600083611e06565b91506118af8261217c565b600082019050919050565b60006118c7601783611e11565b91506118d28261217f565b602082019050919050565b60006118ea602483611e11565b91506118f5826121a8565b604082019050919050565b600061190d603183611e11565b9150611918826121f7565b604082019050919050565b6000611930600f83611e11565b915061193b82612246565b602082019050919050565b6000611953601183611e11565b915061195e8261226f565b602082019050919050565b6000611976601883611e11565b915061198182612298565b602082019050919050565b6000611999601f83611e11565b91506119a4826122c1565b602082019050919050565b6119b881611ec1565b82525050565b6119cf6119ca82611ec1565b611f62565b82525050565b60006119e18287611694565b6014820191506119f182866116e4565b91506119fd8285611694565b601482019150611a0d82846119be565b60208201915081905095945050505050565b6000611a2b828461174e565b915081905092915050565b6000611a4182611897565b9150819050919050565b6000602082019050611a606000830184611685565b92915050565b6000604082019050611a7b6000830185611685565b611a886020830184611685565b9392505050565b6000606082019050611aa46000830186611685565b611ab16020830185611685565b611abe60408301846119af565b949350505050565b6000606082019050611adb6000830186611685565b611ae860208301856119af565b611af560408301846119af565b949350505050565b60006020820190508181036000830152611b1781846116ab565b905092915050565b60006040820190508181036000830152611b398185611715565b9050611b4860208301846119af565b9392505050565b60006020820190508181036000830152611b688161177f565b9050919050565b60006020820190508181036000830152611b88816117a2565b9050919050565b60006020820190508181036000830152611ba8816117c5565b9050919050565b60006020820190508181036000830152611bc8816117e8565b9050919050565b60006020820190508181036000830152611be88161180b565b9050919050565b60006020820190508181036000830152611c088161182e565b9050919050565b60006020820190508181036000830152611c2881611851565b9050919050565b60006020820190508181036000830152611c4881611874565b9050919050565b60006020820190508181036000830152611c68816118ba565b9050919050565b60006020820190508181036000830152611c88816118dd565b9050919050565b60006020820190508181036000830152611ca881611900565b9050919050565b60006020820190508181036000830152611cc881611923565b9050919050565b60006020820190508181036000830152611ce881611946565b9050919050565b60006020820190508181036000830152611d0881611969565b9050919050565b60006020820190508181036000830152611d288161198c565b9050919050565b6000604082019050611d4460008301856119af565b611d5160208301846119af565b9392505050565b6000611d62611d73565b9050611d6e8282611f0d565b919050565b6000604051905090565b600067ffffffffffffffff821115611d9857611d97611f9b565b5b611da182611fca565b9050602081019050919050565b600067ffffffffffffffff821115611dc957611dc8611f9b565b5b611dd282611fca565b9050602081019050919050565b600081519050919050565b600081519050919050565b600082825260208201905092915050565b600081905092915050565b600082825260208201905092915050565b600081905092915050565b6000611e3882611ec1565b9150611e4383611ec1565b9250827fffffffffffffffffffffffffffffffffffffffffffffffffffffffffffffffff03821115611e7857611e77611f6c565b5b828201905092915050565b6000611e8e82611ea1565b9050919050565b60008115159050919050565b600073ffffffffffffffffffffffffffffffffffffffff82169050919050565b6000819050919050565b82818337600083830152505050565b60005b83811015611ef8578082015181840152602081019050611edd565b83811115611f07576000848401525b50505050565b611f1682611fca565b810181811067ffffffffffffffff82111715611f3557611f34611f9b565b5b80604052505050565b6000611f4982611f50565b9050919050565b6000611f5b82611fdb565b9050919050565b6000819050919050565b7f4e487b7100000000000000000000000000000000000000000000000000000000600052601160045260246000fd5b7f4e487b7100000000000000000000000000000000000000000000000000000000600052604160045260246000fd5b6000601f19601f8301169050919050565b60008160601b9050919050565b7f446f6e2774206469736361726420747265617572792100000000000000000000600082015250565b7f5472616e7366657246726f6d206661696c65642e000000000000000000000000600082015250565b7f4e6f20737563682074656d706c61746520696e20746865206c6973742e000000600082015250565b7f456d70747920737472696e672e00000000000000000000000000000000000000600082015250565b7f616c6c6f77616e6365206973206e6f7420656e6f7567682e0000000000000000600082015250565b7f476f2077697468206e6f6e206e756c6c20616464726573732e00000000000000600082015250565b7f4661696c656420746f20696e697469616c697a652074686520636c6f6e65642060008201527f636f6e74726163742e0000000000000000000000000000000000000000000000602082015250565b7f596f75206861766520746f20617070726f7665204552432d323020746f20646560008201527f706c6f792e000000000000000000000000000000000000000000000000000000602082015250565b50565b7f676f7665726e65722063616e6e6f74206265206e756c6c000000000000000000600082015250565b7f546869732074656d706c617465206e616d6520697320616c726561647920746160008201527f6b656e2e00000000000000000000000000000000000000000000000000000000602082015250565b7f486176696e6720616e206576656e7420776974686f757420746f6b656e73206160008201527f7265206e6f74207065726d69747465642e000000000000000000000000000000602082015250565b7f7472616e73666572206661696c65640000000000000000000000000000000000600082015250565b7f416d6f756e7420697320746f6f20626967000000000000000000000000000000600082015250565b7f596f75277265206e6f742074686520676f7665726e65722e0000000000000000600082015250565b7f5265656e7472616e637947756172643a207265656e7472616e742063616c6c00600082015250565b6122f381611e83565b81146122fe57600080fd5b50565b61230a81611e95565b811461231557600080fd5b50565b61232181611ec1565b811461232c57600080fd5b5056fea2646970667358221220bf5da060df6aca7933bd7ad22c959ff6b843ca61bc6fd8cf9d6785e1d7d74e3c64736f6c63430008030033",
  "linkReferences": {},
  "deployedLinkReferences": {}
}