{
  "_format": "hh-sol-artifact-1",
  "contractName": "Factory",
  "sourceName": "contracts/Factory.sol",
  "abi": [
    {
      "inputs": [
        {
          "internalType": "address",
          "name": "initialOwner",
          "type": "address"
        }
      ],
      "stateMutability": "nonpayable",
      "type": "constructor"
    },
    {
      "anonymous": false,
      "inputs": [
        {
          "indexed": true,
          "internalType": "address",
          "name": "sender",
          "type": "address"
        },
        {
          "indexed": true,
          "internalType": "string",
          "name": "templateName",
          "type": "string"
        },
        {
          "indexed": true,
          "internalType": "address",
          "name": "deployedAddr",
          "type": "address"
        },
        {
          "indexed": false,
          "internalType": "bytes",
          "name": "abiArgs",
          "type": "bytes"
        }
      ],
      "name": "Deployed",
      "type": "event"
    },
    {
      "anonymous": false,
      "inputs": [
        {
          "indexed": true,
          "internalType": "address",
          "name": "oldGoverner",
          "type": "address"
        },
        {
          "indexed": true,
          "internalType": "address",
          "name": "newGoverner",
          "type": "address"
        }
      ],
      "name": "GovernanceChanged",
      "type": "event"
    },
    {
      "anonymous": false,
      "inputs": [
        {
          "indexed": true,
          "internalType": "address",
          "name": "sender",
          "type": "address"
        },
        {
          "indexed": false,
          "internalType": "uint256",
          "name": "fee",
          "type": "uint256"
        },
        {
          "indexed": false,
          "internalType": "uint256",
          "name": "treasury",
          "type": "uint256"
        }
      ],
      "name": "Received",
      "type": "event"
    },
    {
      "anonymous": false,
      "inputs": [
        {
          "indexed": true,
          "internalType": "string",
          "name": "templateName",
          "type": "string"
        },
        {
          "indexed": true,
          "internalType": "address",
          "name": "templateAddr",
          "type": "address"
        },
        {
          "indexed": true,
          "internalType": "address",
          "name": "governer",
          "type": "address"
        }
      ],
      "name": "TemplateAdded",
      "type": "event"
    },
    {
      "anonymous": false,
      "inputs": [
        {
          "indexed": true,
          "internalType": "address",
          "name": "sender",
          "type": "address"
        },
        {
          "indexed": true,
          "internalType": "string",
          "name": "templateName",
          "type": "string"
        },
        {
          "indexed": true,
          "internalType": "address",
          "name": "deployedAddr",
          "type": "address"
        },
        {
          "indexed": false,
          "internalType": "bytes",
          "name": "abiArgs",
          "type": "bytes"
        }
      ],
      "name": "TokenCloneDeployed",
      "type": "event"
    },
    {
      "anonymous": false,
      "inputs": [
        {
          "indexed": true,
          "internalType": "address",
          "name": "sender",
          "type": "address"
        },
        {
          "indexed": false,
          "internalType": "address",
          "name": "governance",
          "type": "address"
        },
        {
          "indexed": false,
          "internalType": "uint256",
          "name": "amount",
          "type": "uint256"
        },
        {
          "indexed": false,
          "internalType": "uint256",
          "name": "treasuryAfter",
          "type": "uint256"
        }
      ],
      "name": "Withdrawn",
      "type": "event"
    },
    {
      "inputs": [
        {
          "internalType": "string",
          "name": "templateName",
          "type": "string"
        },
        {
          "internalType": "address",
          "name": "templateAddr",
          "type": "address"
        }
      ],
      "name": "addTemplate",
      "outputs": [],
      "stateMutability": "nonpayable",
      "type": "function"
    },
    {
      "inputs": [
        {
          "internalType": "string",
          "name": "templateName",
          "type": "string"
        },
        {
          "internalType": "address",
          "name": "tokenAddr",
          "type": "address"
        },
        {
          "internalType": "uint256",
          "name": "sellingAmount",
          "type": "uint256"
        },
        {
          "internalType": "bytes",
          "name": "abiArgs",
          "type": "bytes"
        }
      ],
      "name": "deploy",
      "outputs": [
        {
          "internalType": "address",
          "name": "deployedAddr",
          "type": "address"
        }
      ],
      "stateMutability": "nonpayable",
      "type": "function"
    },
    {
      "inputs": [
        {
          "internalType": "string",
          "name": "templateName",
          "type": "string"
        },
        {
          "internalType": "bytes",
          "name": "abiArgs",
          "type": "bytes"
        }
      ],
      "name": "deployTokenClone",
      "outputs": [
        {
          "internalType": "address",
          "name": "deployedAddr",
          "type": "address"
        }
      ],
      "stateMutability": "nonpayable",
      "type": "function"
    },
    {
      "inputs": [],
      "name": "governance",
      "outputs": [
        {
          "internalType": "address",
          "name": "",
          "type": "address"
        }
      ],
      "stateMutability": "view",
      "type": "function"
    },
    {
      "inputs": [
        {
          "internalType": "address",
          "name": "newGoverner",
          "type": "address"
        }
      ],
      "name": "setGovernance",
      "outputs": [],
      "stateMutability": "nonpayable",
      "type": "function"
    },
    {
      "inputs": [
        {
          "internalType": "string",
          "name": "",
          "type": "string"
        }
      ],
      "name": "templates",
      "outputs": [
        {
          "internalType": "address",
          "name": "",
          "type": "address"
        }
      ],
      "stateMutability": "view",
      "type": "function"
    },
    {
      "inputs": [
        {
          "internalType": "address",
          "name": "to",
          "type": "address"
        },
        {
          "internalType": "uint256",
          "name": "amount",
          "type": "uint256"
        }
      ],
      "name": "withdraw",
      "outputs": [],
      "stateMutability": "nonpayable",
      "type": "function"
    },
    {
      "stateMutability": "payable",
      "type": "receive"
    }
  ],
  "bytecode": "0x608060405260006003553480156200001657600080fd5b50604051620025da380380620025da83398181016040528101906200003c9190620000a3565b600160008190555080600260006101000a81548173ffffffffffffffffffffffffffffffffffffffff021916908373ffffffffffffffffffffffffffffffffffffffff160217905550506200011d565b6000815190506200009d8162000103565b92915050565b600060208284031215620000b657600080fd5b6000620000c6848285016200008c565b91505092915050565b6000620000dc82620000e3565b9050919050565b600073ffffffffffffffffffffffffffffffffffffffff82169050919050565b6200010e81620000cf565b81146200011a57600080fd5b50565b6124ad806200012d6000396000f3fe6080604052600436106100745760003560e01c8063ab033ea91161004e578063ab033ea914610175578063b22beeda1461019e578063dd3fac7c146101db578063f3fef3a314610204576100cb565b80634106d2b3146100d05780634c105a871461010d5780635aa6e6751461014a576100cb565b366100cb573373ffffffffffffffffffffffffffffffffffffffff167f74cf3d18d0ddca79038197ad0dd2c7fa5005ef61a5d1ed190e8a8a437e2fcf1034476040516100c1929190611e77565b60405180910390a2005b600080fd5b3480156100dc57600080fd5b506100f760048036038101906100f29190611701565b61022d565b6040516101049190611b5c565b60405180910390f35b34801561011957600080fd5b50610134600480360381019061012f919061166e565b6105af565b6040516101419190611b5c565b60405180910390f35b34801561015657600080fd5b5061015f610aef565b60405161016c9190611b5c565b60405180910390f35b34801561018157600080fd5b5061019c6004803603810190610197919061154b565b610b15565b005b3480156101aa57600080fd5b506101c560048036038101906101c091906115d9565b610cd5565b6040516101d29190611b5c565b60405180910390f35b3480156101e757600080fd5b5061020260048036038101906101fd919061161a565b610d1e565b005b34801561021057600080fd5b5061022b60048036038101906102269190611574565b610f4e565b005b600061026e6040518060400160405280601481526020017f313d3d3d3d3d3d3d3d3d3d3d3d3d3d3d3d2025730000000000000000000000008152508461120c565b60008351116102b2576040517f08c379a00000000000000000000000000000000000000000000000000000000081526004016102a990611cf7565b60405180910390fd5b60006001846040516102c49190611b30565b908152602001604051809103902060009054906101000a900473ffffffffffffffffffffffffffffffffffffffff1690506103346040518060400160405280601481526020017f323d3d3d3d3d3d3d3d3d3d3d3d3d3d3d3d202573000000000000000000000000815250826112a8565b600073ffffffffffffffffffffffffffffffffffffffff168173ffffffffffffffffffffffffffffffffffffffff1614156103a4576040517f08c379a000000000000000000000000000000000000000000000000000000000815260040161039b90611cd7565b60405180910390fd5b6103ae8184611344565b91506103ef6040518060400160405280601481526020017f333d3d3d3d3d3d3d3d3d3d3d3d3d3d3d3d202573000000000000000000000000815250836112a8565b8173ffffffffffffffffffffffffffffffffffffffff1663439fab91846040518263ffffffff1660e01b81526004016104289190611c0e565b602060405180830381600087803b15801561044257600080fd5b505af1158015610456573d6000803e3d6000fd5b505050506040513d601f19601f8201168201806040525081019061047a91906115b0565b6104b9576040517f08c379a00000000000000000000000000000000000000000000000000000000081526004016104b090611d57565b60405180910390fd5b61052d6040518060400160405280601481526020017f343d3d3d3d3d3d3d3d3d3d3d3d3d3d3d3d2025730000000000000000000000008152506040518060400160405280600b81526020017f696e697469616c697a656400000000000000000000000000000000000000000081525061120c565b8173ffffffffffffffffffffffffffffffffffffffff16846040516105529190611b30565b60405180910390203373ffffffffffffffffffffffffffffffffffffffff167f963b25a3046538cf230a89488527b2bee2eba00f25f06f8e5a4a14e57eba6880866040516105a09190611c0e565b60405180910390a45092915050565b6000600260005414156105f7576040517f08c379a00000000000000000000000000000000000000000000000000000000081526004016105ee90611e57565b60405180910390fd5b60026000819055506000855111610643576040517f08c379a000000000000000000000000000000000000000000000000000000000815260040161063a90611cf7565b60405180910390fd5b600073ffffffffffffffffffffffffffffffffffffffff168473ffffffffffffffffffffffffffffffffffffffff1614156106b3576040517f08c379a00000000000000000000000000000000000000000000000000000000081526004016106aa90611d37565b60405180910390fd5b60006001866040516106c59190611b30565b908152602001604051809103902060009054906101000a900473ffffffffffffffffffffffffffffffffffffffff169050600073ffffffffffffffffffffffffffffffffffffffff168173ffffffffffffffffffffffffffffffffffffffff161415610766576040517f08c379a000000000000000000000000000000000000000000000000000000000815260040161075d90611cd7565b60405180910390fd5b600084116107a9576040517f08c379a00000000000000000000000000000000000000000000000000000000081526004016107a090611dd7565b60405180910390fd5b60008573ffffffffffffffffffffffffffffffffffffffff1663dd62ed3e33306040518363ffffffff1660e01b81526004016107e6929190611b77565b60206040518083038186803b1580156107fe57600080fd5b505afa158015610812573d6000803e3d6000fd5b505050506040513d601f19601f82011682018060405250810190610836919061176d565b90506000811161087b576040517f08c379a000000000000000000000000000000000000000000000000000000000815260040161087290611d77565b60405180910390fd5b848110156108be576040517f08c379a00000000000000000000000000000000000000000000000000000000081526004016108b590611d17565b60405180910390fd5b6108c88285611344565b92508573ffffffffffffffffffffffffffffffffffffffff166323b872dd3385886040518463ffffffff1660e01b815260040161090793929190611ba0565b602060405180830381600087803b15801561092157600080fd5b505af1158015610935573d6000803e3d6000fd5b505050506040513d601f19601f8201168201806040525081019061095991906115b0565b610998576040517f08c379a000000000000000000000000000000000000000000000000000000000815260040161098f90611cb7565b60405180910390fd5b8273ffffffffffffffffffffffffffffffffffffffff1663439fab91856040518263ffffffff1660e01b81526004016109d19190611c0e565b602060405180830381600087803b1580156109eb57600080fd5b505af11580156109ff573d6000803e3d6000fd5b505050506040513d601f19601f82011682018060405250810190610a2391906115b0565b610a62576040517f08c379a0000000000000000000000000000000000000000000000000000000008152600401610a5990611d57565b60405180910390fd5b8273ffffffffffffffffffffffffffffffffffffffff1687604051610a879190611b30565b60405180910390203373ffffffffffffffffffffffffffffffffffffffff167feaf3e32328dded221c43928594c0b120f1ca35c76de3ca47f2d646f15cec558587604051610ad59190611c0e565b60405180910390a450506001600081905550949350505050565b600260009054906101000a900473ffffffffffffffffffffffffffffffffffffffff1681565b600260009054906101000a900473ffffffffffffffffffffffffffffffffffffffff1673ffffffffffffffffffffffffffffffffffffffff163373ffffffffffffffffffffffffffffffffffffffff1614610ba5576040517f08c379a0000000000000000000000000000000000000000000000000000000008152600401610b9c90611e37565b60405180910390fd5b600073ffffffffffffffffffffffffffffffffffffffff168173ffffffffffffffffffffffffffffffffffffffff161415610c15576040517f08c379a0000000000000000000000000000000000000000000000000000000008152600401610c0c90611d97565b60405180910390fd5b8073ffffffffffffffffffffffffffffffffffffffff16600260009054906101000a900473ffffffffffffffffffffffffffffffffffffffff1673ffffffffffffffffffffffffffffffffffffffff167f3aaaebeb4821d6a7e5c77ece53cff0afcc56c82add2c978dbbb7f73e84cbcfd260405160405180910390a380600260006101000a81548173ffffffffffffffffffffffffffffffffffffffff021916908373ffffffffffffffffffffffffffffffffffffffff16021790555050565b6001818051602081018201805184825260208301602085012081835280955050505050506000915054906101000a900473ffffffffffffffffffffffffffffffffffffffff1681565b600260009054906101000a900473ffffffffffffffffffffffffffffffffffffffff1673ffffffffffffffffffffffffffffffffffffffff163373ffffffffffffffffffffffffffffffffffffffff1614610dae576040517f08c379a0000000000000000000000000000000000000000000000000000000008152600401610da590611e37565b60405180910390fd5b600073ffffffffffffffffffffffffffffffffffffffff16600183604051610dd69190611b30565b908152602001604051809103902060009054906101000a900473ffffffffffffffffffffffffffffffffffffffff1673ffffffffffffffffffffffffffffffffffffffff1614610e5b576040517f08c379a0000000000000000000000000000000000000000000000000000000008152600401610e5290611db7565b60405180910390fd5b80600183604051610e6c9190611b30565b908152602001604051809103902060006101000a81548173ffffffffffffffffffffffffffffffffffffffff021916908373ffffffffffffffffffffffffffffffffffffffff160217905550600260009054906101000a900473ffffffffffffffffffffffffffffffffffffffff1673ffffffffffffffffffffffffffffffffffffffff168173ffffffffffffffffffffffffffffffffffffffff1683604051610f169190611b30565b60405180910390207f723df8b5c179a677dc2dc19d7904aef24eb403b08a15218a43357705f703370660405160405180910390a45050565b600260009054906101000a900473ffffffffffffffffffffffffffffffffffffffff1673ffffffffffffffffffffffffffffffffffffffff163373ffffffffffffffffffffffffffffffffffffffff1614610fde576040517f08c379a0000000000000000000000000000000000000000000000000000000008152600401610fd590611e37565b60405180910390fd5b60026000541415611024576040517f08c379a000000000000000000000000000000000000000000000000000000000815260040161101b90611e57565b60405180910390fd5b6002600081905550600073ffffffffffffffffffffffffffffffffffffffff168273ffffffffffffffffffffffffffffffffffffffff16141561109c576040517f08c379a000000000000000000000000000000000000000000000000000000000815260040161109390611c97565b60405180910390fd5b804710156110df576040517f08c379a00000000000000000000000000000000000000000000000000000000081526004016110d690611e17565b60405180910390fd5b60008273ffffffffffffffffffffffffffffffffffffffff168260405161110590611b47565b60006040518083038185875af1925050503d8060008114611142576040519150601f19603f3d011682016040523d82523d6000602084013e611147565b606091505b505090508061118b576040517f08c379a000000000000000000000000000000000000000000000000000000000815260040161118290611df7565b60405180910390fd5b3373ffffffffffffffffffffffffffffffffffffffff167f91fb9d98b786c57d74c099ccd2beca1739e9f6a81fb49001ca465c4b7591bbe2600260009054906101000a900473ffffffffffffffffffffffffffffffffffffffff1684476040516111f793929190611bd7565b60405180910390a25060016000819055505050565b6112a48282604051602401611222929190611c60565b6040516020818303038152906040527f4b5c4277000000000000000000000000000000000000000000000000000000007bffffffffffffffffffffffffffffffffffffffffffffffffffffffff19166020820180517bffffffffffffffffffffffffffffffffffffffffffffffffffffffff83818316178352505050506113fe565b5050565b61134082826040516024016112be929190611c30565b6040516020818303038152906040527f319af333000000000000000000000000000000000000000000000000000000007bffffffffffffffffffffffffffffffffffffffffffffffffffffffff19166020820180517bffffffffffffffffffffffffffffffffffffffffffffffffffffffff83818316178352505050506113fe565b5050565b6000808360601b90506001600360008282546113609190611f75565b9250508190555060008484336003546040516020016113829493929190611ae6565b6040516020818303038152906040528051906020012090506040517f3d602d80600a3d3981f3363d3d373d3d3d363d7300000000000000000000000081528260148201527f5af43d82803e903d91602b57fd5bf300000000000000000000000000000000006028820152816037826000f5935050505092915050565b60008151905060006a636f6e736f6c652e6c6f679050602083016000808483855afa5050505050565b600061143a61143584611ec5565b611ea0565b90508281526020810184848401111561145257600080fd5b61145d848285612013565b509392505050565b600061147861147384611ef6565b611ea0565b90508281526020810184848401111561149057600080fd5b61149b848285612013565b509392505050565b6000813590506114b281612432565b92915050565b6000815190506114c781612449565b92915050565b600082601f8301126114de57600080fd5b81356114ee848260208601611427565b91505092915050565b600082601f83011261150857600080fd5b8135611518848260208601611465565b91505092915050565b60008135905061153081612460565b92915050565b60008151905061154581612460565b92915050565b60006020828403121561155d57600080fd5b600061156b848285016114a3565b91505092915050565b6000806040838503121561158757600080fd5b6000611595858286016114a3565b92505060206115a685828601611521565b9150509250929050565b6000602082840312156115c257600080fd5b60006115d0848285016114b8565b91505092915050565b6000602082840312156115eb57600080fd5b600082013567ffffffffffffffff81111561160557600080fd5b611611848285016114f7565b91505092915050565b6000806040838503121561162d57600080fd5b600083013567ffffffffffffffff81111561164757600080fd5b611653858286016114f7565b9250506020611664858286016114a3565b9150509250929050565b6000806000806080858703121561168457600080fd5b600085013567ffffffffffffffff81111561169e57600080fd5b6116aa878288016114f7565b94505060206116bb878288016114a3565b93505060406116cc87828801611521565b925050606085013567ffffffffffffffff8111156116e957600080fd5b6116f5878288016114cd565b91505092959194509250565b6000806040838503121561171457600080fd5b600083013567ffffffffffffffff81111561172e57600080fd5b61173a858286016114f7565b925050602083013567ffffffffffffffff81111561175757600080fd5b611763858286016114cd565b9150509250929050565b60006020828403121561177f57600080fd5b600061178d84828501611536565b91505092915050565b61179f81611fcb565b82525050565b6117b66117b182611fcb565b612086565b82525050565b60006117c782611f27565b6117d18185611f3d565b93506117e1818560208601612022565b6117ea81612112565b840191505092915050565b600061180082611f27565b61180a8185611f4e565b935061181a818560208601612022565b80840191505092915050565b600061183182611f32565b61183b8185611f59565b935061184b818560208601612022565b61185481612112565b840191505092915050565b600061186a82611f32565b6118748185611f6a565b9350611884818560208601612022565b80840191505092915050565b600061189d601683611f59565b91506118a882612130565b602082019050919050565b60006118c0601483611f59565b91506118cb82612159565b602082019050919050565b60006118e3601d83611f59565b91506118ee82612182565b602082019050919050565b6000611906600d83611f59565b9150611911826121ab565b602082019050919050565b6000611929601883611f59565b9150611934826121d4565b602082019050919050565b600061194c601983611f59565b9150611957826121fd565b602082019050919050565b600061196f602983611f59565b915061197a82612226565b604082019050919050565b6000611992602583611f59565b915061199d82612275565b604082019050919050565b60006119b5600083611f4e565b91506119c0826122c4565b600082019050919050565b60006119d8601783611f59565b91506119e3826122c7565b602082019050919050565b60006119fb602483611f59565b9150611a06826122f0565b604082019050919050565b6000611a1e603183611f59565b9150611a298261233f565b604082019050919050565b6000611a41600f83611f59565b9150611a4c8261238e565b602082019050919050565b6000611a64601183611f59565b9150611a6f826123b7565b602082019050919050565b6000611a87601883611f59565b9150611a92826123e0565b602082019050919050565b6000611aaa601f83611f59565b9150611ab582612409565b602082019050919050565b611ac981612009565b82525050565b611ae0611adb82612009565b6120aa565b82525050565b6000611af282876117a5565b601482019150611b0282866117f5565b9150611b0e82856117a5565b601482019150611b1e8284611acf565b60208201915081905095945050505050565b6000611b3c828461185f565b915081905092915050565b6000611b52826119a8565b9150819050919050565b6000602082019050611b716000830184611796565b92915050565b6000604082019050611b8c6000830185611796565b611b996020830184611796565b9392505050565b6000606082019050611bb56000830186611796565b611bc26020830185611796565b611bcf6040830184611ac0565b949350505050565b6000606082019050611bec6000830186611796565b611bf96020830185611ac0565b611c066040830184611ac0565b949350505050565b60006020820190508181036000830152611c2881846117bc565b905092915050565b60006040820190508181036000830152611c4a8185611826565b9050611c596020830184611796565b9392505050565b60006040820190508181036000830152611c7a8185611826565b90508181036020830152611c8e8184611826565b90509392505050565b60006020820190508181036000830152611cb081611890565b9050919050565b60006020820190508181036000830152611cd0816118b3565b9050919050565b60006020820190508181036000830152611cf0816118d6565b9050919050565b60006020820190508181036000830152611d10816118f9565b9050919050565b60006020820190508181036000830152611d308161191c565b9050919050565b60006020820190508181036000830152611d508161193f565b9050919050565b60006020820190508181036000830152611d7081611962565b9050919050565b60006020820190508181036000830152611d9081611985565b9050919050565b60006020820190508181036000830152611db0816119cb565b9050919050565b60006020820190508181036000830152611dd0816119ee565b9050919050565b60006020820190508181036000830152611df081611a11565b9050919050565b60006020820190508181036000830152611e1081611a34565b9050919050565b60006020820190508181036000830152611e3081611a57565b9050919050565b60006020820190508181036000830152611e5081611a7a565b9050919050565b60006020820190508181036000830152611e7081611a9d565b9050919050565b6000604082019050611e8c6000830185611ac0565b611e996020830184611ac0565b9392505050565b6000611eaa611ebb565b9050611eb68282612055565b919050565b6000604051905090565b600067ffffffffffffffff821115611ee057611edf6120e3565b5b611ee982612112565b9050602081019050919050565b600067ffffffffffffffff821115611f1157611f106120e3565b5b611f1a82612112565b9050602081019050919050565b600081519050919050565b600081519050919050565b600082825260208201905092915050565b600081905092915050565b600082825260208201905092915050565b600081905092915050565b6000611f8082612009565b9150611f8b83612009565b9250827fffffffffffffffffffffffffffffffffffffffffffffffffffffffffffffffff03821115611fc057611fbf6120b4565b5b828201905092915050565b6000611fd682611fe9565b9050919050565b60008115159050919050565b600073ffffffffffffffffffffffffffffffffffffffff82169050919050565b6000819050919050565b82818337600083830152505050565b60005b83811015612040578082015181840152602081019050612025565b8381111561204f576000848401525b50505050565b61205e82612112565b810181811067ffffffffffffffff8211171561207d5761207c6120e3565b5b80604052505050565b600061209182612098565b9050919050565b60006120a382612123565b9050919050565b6000819050919050565b7f4e487b7100000000000000000000000000000000000000000000000000000000600052601160045260246000fd5b7f4e487b7100000000000000000000000000000000000000000000000000000000600052604160045260246000fd5b6000601f19601f8301169050919050565b60008160601b9050919050565b7f446f6e2774206469736361726420747265617572792100000000000000000000600082015250565b7f5472616e7366657246726f6d206661696c65642e000000000000000000000000600082015250565b7f4e6f20737563682074656d706c61746520696e20746865206c6973742e000000600082015250565b7f456d70747920737472696e672e00000000000000000000000000000000000000600082015250565b7f616c6c6f77616e6365206973206e6f7420656e6f7567682e0000000000000000600082015250565b7f476f2077697468206e6f6e206e756c6c20616464726573732e00000000000000600082015250565b7f4661696c656420746f20696e697469616c697a652074686520636c6f6e65642060008201527f636f6e74726163742e0000000000000000000000000000000000000000000000602082015250565b7f596f75206861766520746f20617070726f7665204552432d323020746f20646560008201527f706c6f792e000000000000000000000000000000000000000000000000000000602082015250565b50565b7f676f7665726e65722063616e6e6f74206265206e756c6c000000000000000000600082015250565b7f546869732074656d706c617465206e616d6520697320616c726561647920746160008201527f6b656e2e00000000000000000000000000000000000000000000000000000000602082015250565b7f486176696e6720616e206576656e7420776974686f757420746f6b656e73206160008201527f7265206e6f74207065726d69747465642e000000000000000000000000000000602082015250565b7f7472616e73666572206661696c65640000000000000000000000000000000000600082015250565b7f416d6f756e7420697320746f6f20626967000000000000000000000000000000600082015250565b7f596f75277265206e6f742074686520676f7665726e65722e0000000000000000600082015250565b7f5265656e7472616e637947756172643a207265656e7472616e742063616c6c00600082015250565b61243b81611fcb565b811461244657600080fd5b50565b61245281611fdd565b811461245d57600080fd5b50565b61246981612009565b811461247457600080fd5b5056fea264697066735822122052414a9a93e00e8d783196e305076ed6f110e95ad51d49fb9af895e1d6af65ae64736f6c63430008030033",
  "linkReferences": {},
  "deployedLinkReferences": {}
}