{
  "_format": "hh-sol-artifact-1",
  "contractName": "Factory",
  "sourceName": "contracts/Factory.sol",
  "abi": [
    {
      "inputs": [
        {
          "internalType": "address",
          "name": "initialOwner",
          "type": "address"
        }
      ],
      "stateMutability": "nonpayable",
      "type": "constructor"
    },
    {
      "anonymous": false,
      "inputs": [
        {
          "indexed": true,
          "internalType": "address",
          "name": "sender",
          "type": "address"
        },
        {
          "indexed": true,
          "internalType": "address",
          "name": "templateAddr",
          "type": "address"
        },
        {
          "indexed": true,
          "internalType": "address",
          "name": "deployedAddr",
          "type": "address"
        },
        {
          "indexed": false,
          "internalType": "bytes",
          "name": "abiArgs",
          "type": "bytes"
        }
      ],
      "name": "Deployed",
      "type": "event"
    },
    {
      "anonymous": false,
      "inputs": [
        {
          "indexed": true,
          "internalType": "address",
          "name": "oldGoverner",
          "type": "address"
        },
        {
          "indexed": true,
          "internalType": "address",
          "name": "newGoverner",
          "type": "address"
        }
      ],
      "name": "GovernanceChanged",
      "type": "event"
    },
    {
      "anonymous": false,
      "inputs": [
        {
          "indexed": true,
          "internalType": "address",
          "name": "sender",
          "type": "address"
        },
        {
          "indexed": false,
          "internalType": "uint256",
          "name": "fee",
          "type": "uint256"
        },
        {
          "indexed": false,
          "internalType": "uint256",
          "name": "treasury",
          "type": "uint256"
        }
      ],
      "name": "Received",
      "type": "event"
    },
    {
      "anonymous": false,
      "inputs": [
        {
          "indexed": true,
          "internalType": "string",
          "name": "templateName",
          "type": "string"
        },
        {
          "indexed": true,
          "internalType": "address",
          "name": "templateAddr",
          "type": "address"
        },
        {
          "indexed": true,
          "internalType": "address",
          "name": "governer",
          "type": "address"
        }
      ],
      "name": "TemplateAdded",
      "type": "event"
    },
    {
      "anonymous": false,
      "inputs": [
        {
          "indexed": true,
          "internalType": "address",
          "name": "sender",
          "type": "address"
        },
        {
          "indexed": false,
          "internalType": "address",
          "name": "governance",
          "type": "address"
        },
        {
          "indexed": false,
          "internalType": "uint256",
          "name": "amount",
          "type": "uint256"
        },
        {
          "indexed": false,
          "internalType": "uint256",
          "name": "treasuryAfter",
          "type": "uint256"
        }
      ],
      "name": "Withdrawn",
      "type": "event"
    },
    {
      "inputs": [
        {
          "internalType": "string",
          "name": "templateName",
          "type": "string"
        },
        {
          "internalType": "address",
          "name": "templateAddr",
          "type": "address"
        }
      ],
      "name": "addTemplate",
      "outputs": [],
      "stateMutability": "nonpayable",
      "type": "function"
    },
    {
      "inputs": [
        {
          "internalType": "string",
          "name": "templateName",
          "type": "string"
        },
        {
          "internalType": "address",
          "name": "tokenAddr",
          "type": "address"
        },
        {
          "internalType": "uint256",
          "name": "sellingAmount",
          "type": "uint256"
        },
        {
          "internalType": "bytes",
          "name": "abiArgs",
          "type": "bytes"
        }
      ],
      "name": "deploy",
      "outputs": [
        {
          "internalType": "address",
          "name": "deployedAddr",
          "type": "address"
        }
      ],
      "stateMutability": "nonpayable",
      "type": "function"
    },
    {
      "inputs": [],
      "name": "governance",
      "outputs": [
        {
          "internalType": "address",
          "name": "",
          "type": "address"
        }
      ],
      "stateMutability": "view",
      "type": "function"
    },
    {
      "inputs": [
        {
          "internalType": "address",
          "name": "newGoverner",
          "type": "address"
        }
      ],
      "name": "setGovernance",
      "outputs": [],
      "stateMutability": "nonpayable",
      "type": "function"
    },
    {
      "inputs": [
        {
          "internalType": "string",
          "name": "",
          "type": "string"
        }
      ],
      "name": "templates",
      "outputs": [
        {
          "internalType": "address",
          "name": "",
          "type": "address"
        }
      ],
      "stateMutability": "view",
      "type": "function"
    },
    {
      "inputs": [
        {
          "internalType": "address",
          "name": "to",
          "type": "address"
        },
        {
          "internalType": "uint256",
          "name": "amount",
          "type": "uint256"
        }
      ],
      "name": "withdraw",
      "outputs": [],
      "stateMutability": "nonpayable",
      "type": "function"
    },
    {
      "stateMutability": "payable",
      "type": "receive"
    }
  ],
  "bytecode": "0x60806040523480156200001157600080fd5b5060405162001cf938038062001cf983398181016040528101906200003791906200009e565b600160008190555080600260006101000a81548173ffffffffffffffffffffffffffffffffffffffff021916908373ffffffffffffffffffffffffffffffffffffffff1602179055505062000118565b6000815190506200009881620000fe565b92915050565b600060208284031215620000b157600080fd5b6000620000c18482850162000087565b91505092915050565b6000620000d782620000de565b9050919050565b600073ffffffffffffffffffffffffffffffffffffffff82169050919050565b6200010981620000ca565b81146200011557600080fd5b50565b611bd180620001286000396000f3fe6080604052600436106100595760003560e01c80634c105a87146100b55780635aa6e675146100f2578063ab033ea91461011d578063b22beeda14610146578063dd3fac7c14610183578063f3fef3a3146101ac576100b0565b366100b0573373ffffffffffffffffffffffffffffffffffffffff167f74cf3d18d0ddca79038197ad0dd2c7fa5005ef61a5d1ed190e8a8a437e2fcf1034476040516100a6929190611684565b60405180910390a2005b600080fd5b3480156100c157600080fd5b506100dc60048036038101906100d79190611073565b6101d5565b6040516100e991906113f0565b60405180910390f35b3480156100fe57600080fd5b506101076106a5565b60405161011491906113f0565b60405180910390f35b34801561012957600080fd5b50610144600480360381019061013f9190610f50565b6106cb565b005b34801561015257600080fd5b5061016d60048036038101906101689190610fde565b61088b565b60405161017a91906113f0565b60405180910390f35b34801561018f57600080fd5b506101aa60048036038101906101a5919061101f565b6108d4565b005b3480156101b857600080fd5b506101d360048036038101906101ce9190610f79565b610b04565b005b60006002600054141561021d576040517f08c379a000000000000000000000000000000000000000000000000000000000815260040161021490611664565b60405180910390fd5b600260008190555060008473ffffffffffffffffffffffffffffffffffffffff1663dd62ed3e33306040518363ffffffff1660e01b815260040161026292919061140b565b60206040518083038186803b15801561027a57600080fd5b505afa15801561028e573d6000803e3d6000fd5b505050506040513d601f19601f820116820180604052508101906102b29190611106565b905060008651116102f8576040517f08c379a00000000000000000000000000000000000000000000000000000000081526004016102ef90611504565b60405180910390fd5b600073ffffffffffffffffffffffffffffffffffffffff168573ffffffffffffffffffffffffffffffffffffffff161415610368576040517f08c379a000000000000000000000000000000000000000000000000000000000815260040161035f90611544565b60405180910390fd5b600084116103ab576040517f08c379a00000000000000000000000000000000000000000000000000000000081526004016103a2906115e4565b60405180910390fd5b600081116103ee576040517f08c379a00000000000000000000000000000000000000000000000000000000081526004016103e590611584565b60405180910390fd5b83811015610431576040517f08c379a000000000000000000000000000000000000000000000000000000000815260040161042890611524565b60405180910390fd5b600060018760405161044391906113c4565b908152602001604051809103902060009054906101000a900473ffffffffffffffffffffffffffffffffffffffff16905061047d81610dc2565b92508573ffffffffffffffffffffffffffffffffffffffff166323b872dd3385886040518463ffffffff1660e01b81526004016104bc93929190611434565b602060405180830381600087803b1580156104d657600080fd5b505af11580156104ea573d6000803e3d6000fd5b505050506040513d601f19601f8201168201806040525081019061050e9190610fb5565b61054d576040517f08c379a0000000000000000000000000000000000000000000000000000000008152600401610544906114e4565b60405180910390fd5b8273ffffffffffffffffffffffffffffffffffffffff1663439fab91856040518263ffffffff1660e01b815260040161058691906114a2565b602060405180830381600087803b1580156105a057600080fd5b505af11580156105b4573d6000803e3d6000fd5b505050506040513d601f19601f820116820180604052508101906105d89190610fb5565b610617576040517f08c379a000000000000000000000000000000000000000000000000000000000815260040161060e90611564565b60405180910390fd5b8273ffffffffffffffffffffffffffffffffffffffff168173ffffffffffffffffffffffffffffffffffffffff163373ffffffffffffffffffffffffffffffffffffffff167fe0c363f71c2006b5e1500c6e2f7c2e0c418ae6dd653297537b337f7f6d6eeea28760405161068b91906114a2565b60405180910390a450506001600081905550949350505050565b600260009054906101000a900473ffffffffffffffffffffffffffffffffffffffff1681565b600260009054906101000a900473ffffffffffffffffffffffffffffffffffffffff1673ffffffffffffffffffffffffffffffffffffffff163373ffffffffffffffffffffffffffffffffffffffff161461075b576040517f08c379a000000000000000000000000000000000000000000000000000000000815260040161075290611644565b60405180910390fd5b600073ffffffffffffffffffffffffffffffffffffffff168173ffffffffffffffffffffffffffffffffffffffff1614156107cb576040517f08c379a00000000000000000000000000000000000000000000000000000000081526004016107c2906115a4565b60405180910390fd5b8073ffffffffffffffffffffffffffffffffffffffff16600260009054906101000a900473ffffffffffffffffffffffffffffffffffffffff1673ffffffffffffffffffffffffffffffffffffffff167f3aaaebeb4821d6a7e5c77ece53cff0afcc56c82add2c978dbbb7f73e84cbcfd260405160405180910390a380600260006101000a81548173ffffffffffffffffffffffffffffffffffffffff021916908373ffffffffffffffffffffffffffffffffffffffff16021790555050565b6001818051602081018201805184825260208301602085012081835280955050505050506000915054906101000a900473ffffffffffffffffffffffffffffffffffffffff1681565b600260009054906101000a900473ffffffffffffffffffffffffffffffffffffffff1673ffffffffffffffffffffffffffffffffffffffff163373ffffffffffffffffffffffffffffffffffffffff1614610964576040517f08c379a000000000000000000000000000000000000000000000000000000000815260040161095b90611644565b60405180910390fd5b600073ffffffffffffffffffffffffffffffffffffffff1660018360405161098c91906113c4565b908152602001604051809103902060009054906101000a900473ffffffffffffffffffffffffffffffffffffffff1673ffffffffffffffffffffffffffffffffffffffff1614610a11576040517f08c379a0000000000000000000000000000000000000000000000000000000008152600401610a08906115c4565b60405180910390fd5b80600183604051610a2291906113c4565b908152602001604051809103902060006101000a81548173ffffffffffffffffffffffffffffffffffffffff021916908373ffffffffffffffffffffffffffffffffffffffff160217905550600260009054906101000a900473ffffffffffffffffffffffffffffffffffffffff1673ffffffffffffffffffffffffffffffffffffffff168173ffffffffffffffffffffffffffffffffffffffff1683604051610acc91906113c4565b60405180910390207f723df8b5c179a677dc2dc19d7904aef24eb403b08a15218a43357705f703370660405160405180910390a45050565b600260009054906101000a900473ffffffffffffffffffffffffffffffffffffffff1673ffffffffffffffffffffffffffffffffffffffff163373ffffffffffffffffffffffffffffffffffffffff1614610b94576040517f08c379a0000000000000000000000000000000000000000000000000000000008152600401610b8b90611644565b60405180910390fd5b60026000541415610bda576040517f08c379a0000000000000000000000000000000000000000000000000000000008152600401610bd190611664565b60405180910390fd5b6002600081905550600073ffffffffffffffffffffffffffffffffffffffff168273ffffffffffffffffffffffffffffffffffffffff161415610c52576040517f08c379a0000000000000000000000000000000000000000000000000000000008152600401610c49906114c4565b60405180910390fd5b80471015610c95576040517f08c379a0000000000000000000000000000000000000000000000000000000008152600401610c8c90611624565b60405180910390fd5b60008273ffffffffffffffffffffffffffffffffffffffff1682604051610cbb906113db565b60006040518083038185875af1925050503d8060008114610cf8576040519150601f19603f3d011682016040523d82523d6000602084013e610cfd565b606091505b5050905080610d41576040517f08c379a0000000000000000000000000000000000000000000000000000000008152600401610d3890611604565b60405180910390fd5b3373ffffffffffffffffffffffffffffffffffffffff167f91fb9d98b786c57d74c099ccd2beca1739e9f6a81fb49001ca465c4b7591bbe2600260009054906101000a900473ffffffffffffffffffffffffffffffffffffffff168447604051610dad9392919061146b565b60405180910390a25060016000819055505050565b6000808260601b90506040517f3d602d80600a3d3981f3363d3d373d3d3d363d7300000000000000000000000081528160148201527f5af43d82803e903d91602b57fd5bf3000000000000000000000000000000000060288201526037816000f092505050919050565b6000610e3f610e3a846116d2565b6116ad565b905082815260208101848484011115610e5757600080fd5b610e628482856117ca565b509392505050565b6000610e7d610e7884611703565b6116ad565b905082815260208101848484011115610e9557600080fd5b610ea08482856117ca565b509392505050565b600081359050610eb781611b56565b92915050565b600081519050610ecc81611b6d565b92915050565b600082601f830112610ee357600080fd5b8135610ef3848260208601610e2c565b91505092915050565b600082601f830112610f0d57600080fd5b8135610f1d848260208601610e6a565b91505092915050565b600081359050610f3581611b84565b92915050565b600081519050610f4a81611b84565b92915050565b600060208284031215610f6257600080fd5b6000610f7084828501610ea8565b91505092915050565b60008060408385031215610f8c57600080fd5b6000610f9a85828601610ea8565b9250506020610fab85828601610f26565b9150509250929050565b600060208284031215610fc757600080fd5b6000610fd584828501610ebd565b91505092915050565b600060208284031215610ff057600080fd5b600082013567ffffffffffffffff81111561100a57600080fd5b61101684828501610efc565b91505092915050565b6000806040838503121561103257600080fd5b600083013567ffffffffffffffff81111561104c57600080fd5b61105885828601610efc565b925050602061106985828601610ea8565b9150509250929050565b6000806000806080858703121561108957600080fd5b600085013567ffffffffffffffff8111156110a357600080fd5b6110af87828801610efc565b94505060206110c087828801610ea8565b93505060406110d187828801610f26565b925050606085013567ffffffffffffffff8111156110ee57600080fd5b6110fa87828801610ed2565b91505092959194509250565b60006020828403121561111857600080fd5b600061112684828501610f3b565b91505092915050565b61113881611782565b82525050565b600061114982611734565b611153818561174a565b93506111638185602086016117d9565b61116c8161186c565b840191505092915050565b60006111828261173f565b61118c8185611777565b935061119c8185602086016117d9565b80840191505092915050565b60006111b5601683611766565b91506111c08261187d565b602082019050919050565b60006111d8601483611766565b91506111e3826118a6565b602082019050919050565b60006111fb600d83611766565b9150611206826118cf565b602082019050919050565b600061121e601883611766565b9150611229826118f8565b602082019050919050565b6000611241601983611766565b915061124c82611921565b602082019050919050565b6000611264602983611766565b915061126f8261194a565b604082019050919050565b6000611287602583611766565b915061129282611999565b604082019050919050565b60006112aa60008361175b565b91506112b5826119e8565b600082019050919050565b60006112cd601783611766565b91506112d8826119eb565b602082019050919050565b60006112f0602483611766565b91506112fb82611a14565b604082019050919050565b6000611313603183611766565b915061131e82611a63565b604082019050919050565b6000611336600f83611766565b915061134182611ab2565b602082019050919050565b6000611359601183611766565b915061136482611adb565b602082019050919050565b600061137c601883611766565b915061138782611b04565b602082019050919050565b600061139f601f83611766565b91506113aa82611b2d565b602082019050919050565b6113be816117c0565b82525050565b60006113d08284611177565b915081905092915050565b60006113e68261129d565b9150819050919050565b6000602082019050611405600083018461112f565b92915050565b6000604082019050611420600083018561112f565b61142d602083018461112f565b9392505050565b6000606082019050611449600083018661112f565b611456602083018561112f565b61146360408301846113b5565b949350505050565b6000606082019050611480600083018661112f565b61148d60208301856113b5565b61149a60408301846113b5565b949350505050565b600060208201905081810360008301526114bc818461113e565b905092915050565b600060208201905081810360008301526114dd816111a8565b9050919050565b600060208201905081810360008301526114fd816111cb565b9050919050565b6000602082019050818103600083015261151d816111ee565b9050919050565b6000602082019050818103600083015261153d81611211565b9050919050565b6000602082019050818103600083015261155d81611234565b9050919050565b6000602082019050818103600083015261157d81611257565b9050919050565b6000602082019050818103600083015261159d8161127a565b9050919050565b600060208201905081810360008301526115bd816112c0565b9050919050565b600060208201905081810360008301526115dd816112e3565b9050919050565b600060208201905081810360008301526115fd81611306565b9050919050565b6000602082019050818103600083015261161d81611329565b9050919050565b6000602082019050818103600083015261163d8161134c565b9050919050565b6000602082019050818103600083015261165d8161136f565b9050919050565b6000602082019050818103600083015261167d81611392565b9050919050565b600060408201905061169960008301856113b5565b6116a660208301846113b5565b9392505050565b60006116b76116c8565b90506116c3828261180c565b919050565b6000604051905090565b600067ffffffffffffffff8211156116ed576116ec61183d565b5b6116f68261186c565b9050602081019050919050565b600067ffffffffffffffff82111561171e5761171d61183d565b5b6117278261186c565b9050602081019050919050565b600081519050919050565b600081519050919050565b600082825260208201905092915050565b600081905092915050565b600082825260208201905092915050565b600081905092915050565b600061178d826117a0565b9050919050565b60008115159050919050565b600073ffffffffffffffffffffffffffffffffffffffff82169050919050565b6000819050919050565b82818337600083830152505050565b60005b838110156117f75780820151818401526020810190506117dc565b83811115611806576000848401525b50505050565b6118158261186c565b810181811067ffffffffffffffff821117156118345761183361183d565b5b80604052505050565b7f4e487b7100000000000000000000000000000000000000000000000000000000600052604160045260246000fd5b6000601f19601f8301169050919050565b7f446f6e2774206469736361726420747265617572792100000000000000000000600082015250565b7f5472616e7366657246726f6d206661696c65642e000000000000000000000000600082015250565b7f456d70747920737472696e672e00000000000000000000000000000000000000600082015250565b7f616c6c6f77616e6365206973206e6f7420656e6f7567682e0000000000000000600082015250565b7f476f2077697468206e6f6e206e756c6c20616464726573732e00000000000000600082015250565b7f4661696c656420746f20696e697469616c697a652074686520636c6f6e65642060008201527f636f6e74726163742e0000000000000000000000000000000000000000000000602082015250565b7f596f75206861766520746f20617070726f7665204552432d323020746f20646560008201527f706c6f792e000000000000000000000000000000000000000000000000000000602082015250565b50565b7f676f7665726e65722063616e6e6f74206265206e756c6c000000000000000000600082015250565b7f546869732074656d706c617465206e616d6520697320616c726561647920746160008201527f6b656e2e00000000000000000000000000000000000000000000000000000000602082015250565b7f486176696e6720616e206576656e7420776974686f757420746f6b656e73206160008201527f7265206e6f74207065726d69747465642e000000000000000000000000000000602082015250565b7f7472616e73666572206661696c65640000000000000000000000000000000000600082015250565b7f416d6f756e7420697320746f6f20626967000000000000000000000000000000600082015250565b7f596f75277265206e6f742074686520676f7665726e65722e0000000000000000600082015250565b7f5265656e7472616e637947756172643a207265656e7472616e742063616c6c00600082015250565b611b5f81611782565b8114611b6a57600080fd5b50565b611b7681611794565b8114611b8157600080fd5b50565b611b8d816117c0565b8114611b9857600080fd5b5056fea2646970667358221220119a634aed41b098456f9d4fff4794500e0be8401181c94851083c7ff1fc2fcf64736f6c63430008030033",
  "linkReferences": {},
  "deployedLinkReferences": {}
}