{
  "_format": "hh-sol-artifact-1",
  "contractName": "BulksaleV1",
  "sourceName": "contracts/BulksaleV1.sol",
  "abi": [
    {
      "anonymous": false,
      "inputs": [
        {
          "indexed": true,
          "internalType": "address",
          "name": "account",
          "type": "address"
        },
        {
          "indexed": false,
          "internalType": "uint256",
          "name": "userShare",
          "type": "uint256"
        },
        {
          "indexed": false,
          "internalType": "uint256",
          "name": "tokenAmount",
          "type": "uint256"
        }
      ],
      "name": "Claimed",
      "type": "event"
    },
    {
      "anonymous": false,
      "inputs": [
        {
          "indexed": true,
          "internalType": "bytes",
          "name": "abiBytes",
          "type": "bytes"
        }
      ],
      "name": "Initialized",
      "type": "event"
    },
    {
      "anonymous": false,
      "inputs": [
        {
          "indexed": true,
          "internalType": "address",
          "name": "previousOwner",
          "type": "address"
        },
        {
          "indexed": true,
          "internalType": "address",
          "name": "newOwner",
          "type": "address"
        }
      ],
      "name": "OwnershipTransferred",
      "type": "event"
    },
    {
      "anonymous": false,
      "inputs": [
        {
          "indexed": true,
          "internalType": "address",
          "name": "account",
          "type": "address"
        },
        {
          "indexed": false,
          "internalType": "uint256",
          "name": "amount",
          "type": "uint256"
        }
      ],
      "name": "Received",
      "type": "event"
    },
    {
      "inputs": [],
      "name": "END",
      "outputs": [
        {
          "internalType": "uint256",
          "name": "",
          "type": "uint256"
        }
      ],
      "stateMutability": "view",
      "type": "function"
    },
    {
      "inputs": [],
      "name": "ERC20ONSALE",
      "outputs": [
        {
          "internalType": "contract IERC20",
          "name": "",
          "type": "address"
        }
      ],
      "stateMutability": "view",
      "type": "function"
    },
    {
      "inputs": [],
      "name": "MINIMAL_PROVIDE_AMOUNT",
      "outputs": [
        {
          "internalType": "uint256",
          "name": "",
          "type": "uint256"
        }
      ],
      "stateMutability": "view",
      "type": "function"
    },
    {
      "inputs": [],
      "name": "START",
      "outputs": [
        {
          "internalType": "uint256",
          "name": "",
          "type": "uint256"
        }
      ],
      "stateMutability": "view",
      "type": "function"
    },
    {
      "inputs": [],
      "name": "TOTAL_DISTRIBUTE_AMOUNT",
      "outputs": [
        {
          "internalType": "uint256",
          "name": "",
          "type": "uint256"
        }
      ],
      "stateMutability": "view",
      "type": "function"
    },
    {
      "inputs": [],
      "name": "claim",
      "outputs": [],
      "stateMutability": "nonpayable",
      "type": "function"
    },
    {
      "inputs": [],
      "name": "factory",
      "outputs": [
        {
          "internalType": "address",
          "name": "",
          "type": "address"
        }
      ],
      "stateMutability": "view",
      "type": "function"
    },
    {
      "inputs": [
        {
          "internalType": "bytes",
          "name": "abiBytes",
          "type": "bytes"
        }
      ],
      "name": "initialize",
      "outputs": [
        {
          "internalType": "bool",
          "name": "",
          "type": "bool"
        }
      ],
      "stateMutability": "nonpayable",
      "type": "function"
    },
    {
      "inputs": [],
      "name": "owner",
      "outputs": [
        {
          "internalType": "address",
          "name": "",
          "type": "address"
        }
      ],
      "stateMutability": "view",
      "type": "function"
    },
    {
      "inputs": [
        {
          "internalType": "address",
          "name": "",
          "type": "address"
        }
      ],
      "name": "provided",
      "outputs": [
        {
          "internalType": "uint256",
          "name": "",
          "type": "uint256"
        }
      ],
      "stateMutability": "view",
      "type": "function"
    },
    {
      "inputs": [],
      "name": "renounceOwnership",
      "outputs": [],
      "stateMutability": "nonpayable",
      "type": "function"
    },
    {
      "inputs": [],
      "name": "totalProvided",
      "outputs": [
        {
          "internalType": "uint256",
          "name": "",
          "type": "uint256"
        }
      ],
      "stateMutability": "view",
      "type": "function"
    },
    {
      "inputs": [
        {
          "internalType": "address",
          "name": "newOwner",
          "type": "address"
        }
      ],
      "name": "transferOwnership",
      "outputs": [],
      "stateMutability": "nonpayable",
      "type": "function"
    },
    {
      "inputs": [],
      "name": "withdrawERC20ONSALE",
      "outputs": [],
      "stateMutability": "nonpayable",
      "type": "function"
    },
    {
      "inputs": [],
      "name": "withdrawProvidedETH",
      "outputs": [],
      "stateMutability": "nonpayable",
      "type": "function"
    },
    {
      "inputs": [],
      "name": "withdrawUnclaimedERC20ONSALE",
      "outputs": [],
      "stateMutability": "nonpayable",
      "type": "function"
    },
    {
      "stateMutability": "payable",
      "type": "receive"
    }
  ],
  "bytecode": "0x608060405260008060146101000a81548160ff021916908315150217905550600060025534801561002f57600080fd5b5060006100406100e360201b60201c565b9050806000806101000a81548173ffffffffffffffffffffffffffffffffffffffff021916908373ffffffffffffffffffffffffffffffffffffffff1602179055508073ffffffffffffffffffffffffffffffffffffffff16600073ffffffffffffffffffffffffffffffffffffffff167f8be0079c531659141344cd1fd0a4f28419497f9722a3daafe3b4186f6b6457e060405160405180910390a3506100eb565b600033905090565b611fdf806100fa6000396000f3fe6080604052600436106100f75760003560e01c80639ddb9ee11161008a578063e43608d811610059578063e43608d814610434578063efe7a5041461044b578063f2fde38b14610476578063feb7010d1461049f57610257565b80639ddb9ee114610376578063aa1cf2a2146103b3578063ba9a061a146103de578063c45a01551461040957610257565b80634e71d92d116100c65780634e71d92d14610306578063715018a61461031d578063746fd297146103345780638da5cb5b1461034b57610257565b806302e3cb0b1461025c5780632a0722a614610287578063387b1bed146102b2578063439fab91146102c957610257565b366102575742635f5926301115610143576040517f08c379a000000000000000000000000000000000000000000000000000000000815260040161013a9061190d565b60405180910390fd5b6203f480635f5926306101569190611ac2565b421115610198576040517f08c379a000000000000000000000000000000000000000000000000000000000815260040161018f906119ad565b60405180910390fd5b34600260008282546101aa9190611ac2565b9250508190555034600360003373ffffffffffffffffffffffffffffffffffffffff1673ffffffffffffffffffffffffffffffffffffffff16815260200190815260200160002060008282546102009190611ac2565b925050819055503373ffffffffffffffffffffffffffffffffffffffff167f88a5966d370b9919b20f3e2c13ff65706f196a4e32cc2c12bf57088f885258743460405161024d91906119cd565b60405180910390a2005b600080fd5b34801561026857600080fd5b506102716104ca565b60405161027e91906119cd565b60405180910390f35b34801561029357600080fd5b5061029c6104d0565b6040516102a991906119cd565b60405180910390f35b3480156102be57600080fd5b506102c76104dd565b005b3480156102d557600080fd5b506102f060048036038101906102eb9190611534565b61075d565b6040516102fd9190611835565b60405180910390f35b34801561031257600080fd5b5061031b6108d9565b005b34801561032957600080fd5b50610332610be6565b005b34801561034057600080fd5b50610349610d20565b005b34801561035757600080fd5b50610360610f61565b60405161036d91906117f1565b60405180910390f35b34801561038257600080fd5b5061039d600480360381019061039891906114e2565b610f8a565b6040516103aa91906119cd565b60405180910390f35b3480156103bf57600080fd5b506103c8610fa2565b6040516103d591906119cd565b60405180910390f35b3480156103ea57600080fd5b506103f3610fb1565b60405161040091906119cd565b60405180910390f35b34801561041557600080fd5b5061041e610fb9565b60405161042b91906117f1565b60405180910390f35b34801561044057600080fd5b50610449610fd1565b005b34801561045757600080fd5b5061046061113f565b60405161046d91906119cd565b60405180910390f35b34801561048257600080fd5b5061049d600480360381019061049891906114e2565b611155565b005b3480156104ab57600080fd5b506104b46112fe565b6040516104c19190611850565b60405180910390f35b60025481565b6825f273933db570000081565b6104e5611324565b73ffffffffffffffffffffffffffffffffffffffff16610503610f61565b73ffffffffffffffffffffffffffffffffffffffff1614610559576040517f08c379a00000000000000000000000000000000000000000000000000000000081526004016105509061194d565b60405180910390fd5b426203f480635f59263061056d9190611ac2565b106105ad576040517f08c379a00000000000000000000000000000000000000000000000000000000081526004016105a49061196d565b60405180910390fd5b6825f273933db5700000600254106105fa576040517f08c379a00000000000000000000000000000000000000000000000000000000081526004016105f1906118cd565b60405180910390fd5b600160009054906101000a900473ffffffffffffffffffffffffffffffffffffffff1673ffffffffffffffffffffffffffffffffffffffff1663a9059cbb610640610f61565b600160009054906101000a900473ffffffffffffffffffffffffffffffffffffffff1673ffffffffffffffffffffffffffffffffffffffff166370a08231306040518263ffffffff1660e01b815260040161069b91906117f1565b60206040518083038186803b1580156106b357600080fd5b505afa1580156106c7573d6000803e3d6000fd5b505050506040513d601f19601f820116820180604052508101906106eb919061159e565b6040518363ffffffff1660e01b815260040161070892919061180c565b602060405180830381600087803b15801561072257600080fd5b505af1158015610736573d6000803e3d6000fd5b505050506040513d601f19601f8201168201806040525081019061075a919061150b565b50565b60008060149054906101000a900460ff16156107ae576040517f08c379a00000000000000000000000000000000000000000000000000000000081526004016107a59061198d565b60405180910390fd5b735fbdb2315678afecb367f032d93f642f64180aa373ffffffffffffffffffffffffffffffffffffffff163373ffffffffffffffffffffffffffffffffffffffff1614610830576040517f08c379a00000000000000000000000000000000000000000000000000000000081526004016108279061188d565b60405180910390fd5b6000828060200190518101906108469190611575565b90508060000151600160006101000a81548173ffffffffffffffffffffffffffffffffffffffff021916908373ffffffffffffffffffffffffffffffffffffffff1602179055508260405161089b91906117da565b60405180910390207f5e399709a9ff1709f6f6be7268c8e5c3eeaa9da9cd9797e78f07ef287c3717fe60405160405180910390a26001915050919050565b6109176040518060400160405280600f81526020017f2d2d2d2d2d2d2d2d2d2d2d2d2d2d2d000000000000000000000000000000000081525061132c565b6203f480635f59263061092a9190611ac2565b421161093557600080fd5b6000600360003373ffffffffffffffffffffffffffffffffffffffff1673ffffffffffffffffffffffffffffffffffffffff168152602001908152602001600020541161098157600080fd5b6000600360003373ffffffffffffffffffffffffffffffffffffffff1673ffffffffffffffffffffffffffffffffffffffff1681526020019081526020016000205490506000600360003373ffffffffffffffffffffffffffffffffffffffff1673ffffffffffffffffffffffffffffffffffffffff168152602001908152602001600020819055506825f273933db570000060025410610b4a57600060025482610a2c9190611b18565b6a4abe89ada68453d4300000610a429190611b49565b9050600160009054906101000a900473ffffffffffffffffffffffffffffffffffffffff1673ffffffffffffffffffffffffffffffffffffffff1663a9059cbb33836040518363ffffffff1660e01b8152600401610aa192919061180c565b602060405180830381600087803b158015610abb57600080fd5b505af1158015610acf573d6000803e3d6000fd5b505050506040513d601f19601f82011682018060405250810190610af3919061150b565b503373ffffffffffffffffffffffffffffffffffffffff167f987d620f307ff6b94d58743cb7a7509f24071586a77759b77c2d4e29f75a2f9a8383604051610b3c929190611a11565b60405180910390a250610be3565b3373ffffffffffffffffffffffffffffffffffffffff166108fc829081150290604051600060405180830381858888f19350505050158015610b90573d6000803e3d6000fd5b503373ffffffffffffffffffffffffffffffffffffffff167f987d620f307ff6b94d58743cb7a7509f24071586a77759b77c2d4e29f75a2f9a826000604051610bda9291906119e8565b60405180910390a25b50565b610bee611324565b73ffffffffffffffffffffffffffffffffffffffff16610c0c610f61565b73ffffffffffffffffffffffffffffffffffffffff1614610c62576040517f08c379a0000000000000000000000000000000000000000000000000000000008152600401610c599061194d565b60405180910390fd5b600073ffffffffffffffffffffffffffffffffffffffff1660008054906101000a900473ffffffffffffffffffffffffffffffffffffffff1673ffffffffffffffffffffffffffffffffffffffff167f8be0079c531659141344cd1fd0a4f28419497f9722a3daafe3b4186f6b6457e060405160405180910390a360008060006101000a81548173ffffffffffffffffffffffffffffffffffffffff021916908373ffffffffffffffffffffffffffffffffffffffff160217905550565b610d28611324565b73ffffffffffffffffffffffffffffffffffffffff16610d46610f61565b73ffffffffffffffffffffffffffffffffffffffff1614610d9c576040517f08c379a0000000000000000000000000000000000000000000000000000000008152600401610d939061194d565b60405180910390fd5b4262278d006203f480635f592630610db49190611ac2565b610dbe9190611ac2565b10610dfe576040517f08c379a0000000000000000000000000000000000000000000000000000000008152600401610df59061192d565b60405180910390fd5b600160009054906101000a900473ffffffffffffffffffffffffffffffffffffffff1673ffffffffffffffffffffffffffffffffffffffff1663a9059cbb610e44610f61565b600160009054906101000a900473ffffffffffffffffffffffffffffffffffffffff1673ffffffffffffffffffffffffffffffffffffffff166370a08231306040518263ffffffff1660e01b8152600401610e9f91906117f1565b60206040518083038186803b158015610eb757600080fd5b505afa158015610ecb573d6000803e3d6000fd5b505050506040513d601f19601f82011682018060405250810190610eef919061159e565b6040518363ffffffff1660e01b8152600401610f0c92919061180c565b602060405180830381600087803b158015610f2657600080fd5b505af1158015610f3a573d6000803e3d6000fd5b505050506040513d601f19601f82011682018060405250810190610f5e919061150b565b50565b60008060009054906101000a900473ffffffffffffffffffffffffffffffffffffffff16905090565b60036020528060005260406000206000915090505481565b6a4abe89ada68453d430000081565b635f59263081565b735fbdb2315678afecb367f032d93f642f64180aa381565b610fd9611324565b73ffffffffffffffffffffffffffffffffffffffff16610ff7610f61565b73ffffffffffffffffffffffffffffffffffffffff161461104d576040517f08c379a00000000000000000000000000000000000000000000000000000000081526004016110449061194d565b60405180910390fd5b426203f480635f5926306110619190611ac2565b106110a1576040517f08c379a00000000000000000000000000000000000000000000000000000000081526004016110989061196d565b60405180910390fd5b6825f273933db570000060025410156110ef576040517f08c379a00000000000000000000000000000000000000000000000000000000081526004016110e6906118ed565b60405180910390fd5b6110f7610f61565b73ffffffffffffffffffffffffffffffffffffffff166108fc479081150290604051600060405180830381858888f1935050505015801561113c573d6000803e3d6000fd5b50565b6203f480635f5926306111529190611ac2565b81565b61115d611324565b73ffffffffffffffffffffffffffffffffffffffff1661117b610f61565b73ffffffffffffffffffffffffffffffffffffffff16146111d1576040517f08c379a00000000000000000000000000000000000000000000000000000000081526004016111c89061194d565b60405180910390fd5b600073ffffffffffffffffffffffffffffffffffffffff168173ffffffffffffffffffffffffffffffffffffffff161415611241576040517f08c379a0000000000000000000000000000000000000000000000000000000008152600401611238906118ad565b60405180910390fd5b8073ffffffffffffffffffffffffffffffffffffffff1660008054906101000a900473ffffffffffffffffffffffffffffffffffffffff1673ffffffffffffffffffffffffffffffffffffffff167f8be0079c531659141344cd1fd0a4f28419497f9722a3daafe3b4186f6b6457e060405160405180910390a3806000806101000a81548173ffffffffffffffffffffffffffffffffffffffff021916908373ffffffffffffffffffffffffffffffffffffffff16021790555050565b600160009054906101000a900473ffffffffffffffffffffffffffffffffffffffff1681565b600033905090565b6113c281604051602401611340919061186b565b6040516020818303038152906040527f41304fac000000000000000000000000000000000000000000000000000000007bffffffffffffffffffffffffffffffffffffffffffffffffffffffff19166020820180517bffffffffffffffffffffffffffffffffffffffffffffffffffffffff83818316178352505050506113c5565b50565b60008151905060006a636f6e736f6c652e6c6f679050602083016000808483855afa5050505050565b60006114016113fc84611a5f565b611a3a565b90508281526020810184848401111561141957600080fd5b611424848285611c21565b509392505050565b60008135905061143b81611f64565b92915050565b60008151905061145081611f64565b92915050565b60008151905061146581611f7b565b92915050565b600082601f83011261147c57600080fd5b813561148c8482602086016113ee565b91505092915050565b6000602082840312156114a757600080fd5b6114b16020611a3a565b905060006114c184828501611441565b60008301525092915050565b6000815190506114dc81611f92565b92915050565b6000602082840312156114f457600080fd5b60006115028482850161142c565b91505092915050565b60006020828403121561151d57600080fd5b600061152b84828501611456565b91505092915050565b60006020828403121561154657600080fd5b600082013567ffffffffffffffff81111561156057600080fd5b61156c8482850161146b565b91505092915050565b60006020828403121561158757600080fd5b600061159584828501611495565b91505092915050565b6000602082840312156115b057600080fd5b60006115be848285016114cd565b91505092915050565b6115d081611ba3565b82525050565b6115df81611bb5565b82525050565b60006115f082611a90565b6115fa8185611aa6565b935061160a818560208601611c30565b80840191505092915050565b61161f81611beb565b82525050565b61162e81611c0f565b82525050565b600061163f82611a9b565b6116498185611ab1565b9350611659818560208601611c30565b61166281611d21565b840191505092915050565b600061167a601883611ab1565b915061168582611d32565b602082019050919050565b600061169d602683611ab1565b91506116a882611d5b565b604082019050919050565b60006116c0602683611ab1565b91506116cb82611daa565b604082019050919050565b60006116e3602a83611ab1565b91506116ee82611df9565b604082019050919050565b6000611706602083611ab1565b915061171182611e48565b602082019050919050565b6000611729601a83611ab1565b915061173482611e71565b602082019050919050565b600061174c602083611ab1565b915061175782611e9a565b602082019050919050565b600061176f601e83611ab1565b915061177a82611ec3565b602082019050919050565b6000611792602a83611ab1565b915061179d82611eec565b604082019050919050565b60006117b5601e83611ab1565b91506117c082611f3b565b602082019050919050565b6117d481611be1565b82525050565b60006117e682846115e5565b915081905092915050565b600060208201905061180660008301846115c7565b92915050565b600060408201905061182160008301856115c7565b61182e60208301846117cb565b9392505050565b600060208201905061184a60008301846115d6565b92915050565b60006020820190506118656000830184611616565b92915050565b600060208201905081810360008301526118858184611634565b905092915050565b600060208201905081810360008301526118a68161166d565b9050919050565b600060208201905081810360008301526118c681611690565b9050919050565b600060208201905081810360008301526118e6816116b3565b9050919050565b60006020820190508181036000830152611906816116d6565b9050919050565b60006020820190508181036000830152611926816116f9565b9050919050565b600060208201905081810360008301526119468161171c565b9050919050565b600060208201905081810360008301526119668161173f565b9050919050565b6000602082019050818103600083015261198681611762565b9050919050565b600060208201905081810360008301526119a681611785565b9050919050565b600060208201905081810360008301526119c6816117a8565b9050919050565b60006020820190506119e260008301846117cb565b92915050565b60006040820190506119fd60008301856117cb565b611a0a6020830184611625565b9392505050565b6000604082019050611a2660008301856117cb565b611a3360208301846117cb565b9392505050565b6000611a44611a55565b9050611a508282611c63565b919050565b6000604051905090565b600067ffffffffffffffff821115611a7a57611a79611cf2565b5b611a8382611d21565b9050602081019050919050565b600081519050919050565b600081519050919050565b600081905092915050565b600082825260208201905092915050565b6000611acd82611be1565b9150611ad883611be1565b9250827fffffffffffffffffffffffffffffffffffffffffffffffffffffffffffffffff03821115611b0d57611b0c611c94565b5b828201905092915050565b6000611b2382611be1565b9150611b2e83611be1565b925082611b3e57611b3d611cc3565b5b828204905092915050565b6000611b5482611be1565b9150611b5f83611be1565b9250817fffffffffffffffffffffffffffffffffffffffffffffffffffffffffffffffff0483118215151615611b9857611b97611c94565b5b828202905092915050565b6000611bae82611bc1565b9050919050565b60008115159050919050565b600073ffffffffffffffffffffffffffffffffffffffff82169050919050565b6000819050919050565b6000611bf682611bfd565b9050919050565b6000611c0882611bc1565b9050919050565b6000611c1a82611be1565b9050919050565b82818337600083830152505050565b60005b83811015611c4e578082015181840152602081019050611c33565b83811115611c5d576000848401525b50505050565b611c6c82611d21565b810181811067ffffffffffffffff82111715611c8b57611c8a611cf2565b5b80604052505050565b7f4e487b7100000000000000000000000000000000000000000000000000000000600052601160045260246000fd5b7f4e487b7100000000000000000000000000000000000000000000000000000000600052601260045260246000fd5b7f4e487b7100000000000000000000000000000000000000000000000000000000600052604160045260246000fd5b6000601f19601f8301169050919050565b7f596f7520617265206e6f742074686520466163746f72792e0000000000000000600082015250565b7f4f776e61626c653a206e6577206f776e657220697320746865207a65726f206160008201527f6464726573730000000000000000000000000000000000000000000000000000602082015250565b7f54686520726571756972656420616d6f756e7420686173206265656e2070726f60008201527f7669646564210000000000000000000000000000000000000000000000000000602082015250565b7f54686520726571756972656420616d6f756e7420686173206e6f74206265656e60008201527f2070726f76696465642100000000000000000000000000000000000000000000602082015250565b7f546865206f66666572696e6720686173206e6f74207374617274656420796574600082015250565b7f5769746864726177616c20756e617661696c61626c6520796574000000000000600082015250565b7f4f776e61626c653a2063616c6c6572206973206e6f7420746865206f776e6572600082015250565b7f546865206f66666572696e67206d75737420626520636f6d706c657465640000600082015250565b7f5468697320636f6e74726163742068617320616c7265616479206265656e206960008201527f6e697469616c697a656400000000000000000000000000000000000000000000602082015250565b7f546865206f66666572696e672068617320616c726561647920656e6465640000600082015250565b611f6d81611ba3565b8114611f7857600080fd5b50565b611f8481611bb5565b8114611f8f57600080fd5b50565b611f9b81611be1565b8114611fa657600080fd5b5056fea2646970667358221220c38f9c2ad484a47a49907c0f6528af2e4c0b3e91b222e26696a10df234a0ea6164736f6c63430008030033",
  "linkReferences": {},
  "deployedLinkReferences": {}
}