{
  "_format": "hh-sol-artifact-1",
  "contractName": "BulksaleV1",
  "sourceName": "contracts/BulksaleV1.sol",
  "abi": [
    {
      "anonymous": false,
      "inputs": [
        {
          "indexed": true,
          "internalType": "address",
          "name": "account",
          "type": "address"
        },
        {
          "indexed": false,
          "internalType": "uint256",
          "name": "userShare",
          "type": "uint256"
        },
        {
          "indexed": false,
          "internalType": "uint256",
          "name": "tokenAmount",
          "type": "uint256"
        }
      ],
      "name": "Claimed",
      "type": "event"
    },
    {
      "anonymous": false,
      "inputs": [
        {
          "indexed": true,
          "internalType": "bytes",
          "name": "abiBytes",
          "type": "bytes"
        }
      ],
      "name": "Initialized",
      "type": "event"
    },
    {
      "anonymous": false,
      "inputs": [
        {
          "indexed": true,
          "internalType": "address",
          "name": "previousOwner",
          "type": "address"
        },
        {
          "indexed": true,
          "internalType": "address",
          "name": "newOwner",
          "type": "address"
        }
      ],
      "name": "OwnershipTransferred",
      "type": "event"
    },
    {
      "anonymous": false,
      "inputs": [
        {
          "indexed": true,
          "internalType": "address",
          "name": "account",
          "type": "address"
        },
        {
          "indexed": false,
          "internalType": "uint256",
          "name": "amount",
          "type": "uint256"
        }
      ],
      "name": "Received",
      "type": "event"
    },
    {
      "inputs": [],
      "name": "END",
      "outputs": [
        {
          "internalType": "uint256",
          "name": "",
          "type": "uint256"
        }
      ],
      "stateMutability": "view",
      "type": "function"
    },
    {
      "inputs": [],
      "name": "ERC20ONSALE",
      "outputs": [
        {
          "internalType": "contract IERC20",
          "name": "",
          "type": "address"
        }
      ],
      "stateMutability": "view",
      "type": "function"
    },
    {
      "inputs": [],
      "name": "EXPIRATION_DURATION",
      "outputs": [
        {
          "internalType": "uint256",
          "name": "",
          "type": "uint256"
        }
      ],
      "stateMutability": "view",
      "type": "function"
    },
    {
      "inputs": [],
      "name": "LOCK_DURATION",
      "outputs": [
        {
          "internalType": "uint256",
          "name": "",
          "type": "uint256"
        }
      ],
      "stateMutability": "view",
      "type": "function"
    },
    {
      "inputs": [],
      "name": "MINIMAL_PROVIDE_AMOUNT",
      "outputs": [
        {
          "internalType": "uint256",
          "name": "",
          "type": "uint256"
        }
      ],
      "stateMutability": "view",
      "type": "function"
    },
    {
      "inputs": [],
      "name": "START",
      "outputs": [
        {
          "internalType": "uint256",
          "name": "",
          "type": "uint256"
        }
      ],
      "stateMutability": "view",
      "type": "function"
    },
    {
      "inputs": [],
      "name": "TOTAL_DISTRIBUTE_AMOUNT",
      "outputs": [
        {
          "internalType": "uint256",
          "name": "",
          "type": "uint256"
        }
      ],
      "stateMutability": "view",
      "type": "function"
    },
    {
      "inputs": [
        {
          "internalType": "address",
          "name": "contributor",
          "type": "address"
        },
        {
          "internalType": "address",
          "name": "recipient",
          "type": "address"
        }
      ],
      "name": "claim",
      "outputs": [],
      "stateMutability": "nonpayable",
      "type": "function"
    },
    {
      "inputs": [],
      "name": "factory",
      "outputs": [
        {
          "internalType": "address",
          "name": "",
          "type": "address"
        }
      ],
      "stateMutability": "view",
      "type": "function"
    },
    {
      "inputs": [
        {
          "internalType": "bytes",
          "name": "abiBytes",
          "type": "bytes"
        }
      ],
      "name": "initialize",
      "outputs": [
        {
          "internalType": "bool",
          "name": "",
          "type": "bool"
        }
      ],
      "stateMutability": "nonpayable",
      "type": "function"
    },
    {
      "inputs": [],
      "name": "owner",
      "outputs": [
        {
          "internalType": "address",
          "name": "",
          "type": "address"
        }
      ],
      "stateMutability": "view",
      "type": "function"
    },
    {
      "inputs": [
        {
          "internalType": "address",
          "name": "",
          "type": "address"
        }
      ],
      "name": "provided",
      "outputs": [
        {
          "internalType": "uint256",
          "name": "",
          "type": "uint256"
        }
      ],
      "stateMutability": "view",
      "type": "function"
    },
    {
      "inputs": [],
      "name": "renounceOwnership",
      "outputs": [],
      "stateMutability": "nonpayable",
      "type": "function"
    },
    {
      "inputs": [],
      "name": "totalProvided",
      "outputs": [
        {
          "internalType": "uint256",
          "name": "",
          "type": "uint256"
        }
      ],
      "stateMutability": "view",
      "type": "function"
    },
    {
      "inputs": [
        {
          "internalType": "address",
          "name": "newOwner",
          "type": "address"
        }
      ],
      "name": "transferOwnership",
      "outputs": [],
      "stateMutability": "nonpayable",
      "type": "function"
    },
    {
      "inputs": [],
      "name": "withdrawERC20ONSALE",
      "outputs": [],
      "stateMutability": "nonpayable",
      "type": "function"
    },
    {
      "inputs": [],
      "name": "withdrawProvidedETH",
      "outputs": [],
      "stateMutability": "nonpayable",
      "type": "function"
    },
    {
      "inputs": [],
      "name": "withdrawUnclaimedERC20ONSALE",
      "outputs": [],
      "stateMutability": "nonpayable",
      "type": "function"
    },
    {
      "stateMutability": "payable",
      "type": "receive"
    }
  ],
  "bytecode": "0x608060405260008060146101000a81548160ff0219169083151502179055506360927a6460015562093a8060015462000039919062000137565b6002556a4abe89ada68453d43000006003556825f273933db570000060045562278d0060055562ed4e0060065560006008553480156200007857600080fd5b5060006200008b6200012f60201b60201c565b9050806000806101000a81548173ffffffffffffffffffffffffffffffffffffffff021916908373ffffffffffffffffffffffffffffffffffffffff1602179055508073ffffffffffffffffffffffffffffffffffffffff16600073ffffffffffffffffffffffffffffffffffffffff167f8be0079c531659141344cd1fd0a4f28419497f9722a3daafe3b4186f6b6457e060405160405180910390a350620001cd565b600033905090565b6000620001448262000194565b9150620001518362000194565b9250827fffffffffffffffffffffffffffffffffffffffffffffffffffffffffffffffff038211156200018957620001886200019e565b5b828201905092915050565b6000819050919050565b7f4e487b7100000000000000000000000000000000000000000000000000000000600052601160045260246000fd5b6121ea80620001dd6000396000f3fe60806040526004361061010d5760003560e01c80638da5cb5b11610095578063c45a015511610064578063c45a015514610475578063e43608d8146104a0578063efe7a504146104b7578063f2fde38b146104e2578063feb7010d1461050b5761025b565b80638da5cb5b146103b75780639ddb9ee1146103e2578063aa1cf2a21461041f578063ba9a061a1461044a5761025b565b8063387b1bed116100dc578063387b1bed1461030a578063439fab9114610321578063485d38341461035e578063715018a614610389578063746fd297146103a05761025b565b806302e3cb0b1461026057806321c0b3421461028b5780632794a63d146102b45780632a0722a6146102df5761025b565b3661025b57426001541115610157576040517f08c379a000000000000000000000000000000000000000000000000000000000815260040161014e90611a62565b60405180910390fd5b60025442111561019c576040517f08c379a000000000000000000000000000000000000000000000000000000000815260040161019390611b02565b60405180910390fd5b34600860008282546101ae9190611c2c565b9250508190555034600960003373ffffffffffffffffffffffffffffffffffffffff1673ffffffffffffffffffffffffffffffffffffffff16815260200190815260200160002060008282546102049190611c2c565b925050819055503373ffffffffffffffffffffffffffffffffffffffff167f88a5966d370b9919b20f3e2c13ff65706f196a4e32cc2c12bf57088f88525874346040516102519190611b42565b60405180910390a2005b600080fd5b34801561026c57600080fd5b50610275610536565b6040516102829190611b42565b60405180910390f35b34801561029757600080fd5b506102b260048036038101906102ad91906115d6565b61053c565b005b3480156102c057600080fd5b506102c96108db565b6040516102d69190611b42565b60405180910390f35b3480156102eb57600080fd5b506102f46108e1565b6040516103019190611b42565b60405180910390f35b34801561031657600080fd5b5061031f6108e7565b005b34801561032d57600080fd5b506103486004803603810190610343919061163b565b610b50565b604051610355919061196c565b60405180910390f35b34801561036a57600080fd5b50610373610d38565b6040516103809190611b42565b60405180910390f35b34801561039557600080fd5b5061039e610d3e565b005b3480156103ac57600080fd5b506103b5610e78565b005b3480156103c357600080fd5b506103cc6110a8565b6040516103d99190611928565b60405180910390f35b3480156103ee57600080fd5b50610409600480360381019061040491906115ad565b6110d1565b6040516104169190611b42565b60405180910390f35b34801561042b57600080fd5b506104346110e9565b6040516104419190611b42565b60405180910390f35b34801561045657600080fd5b5061045f6110ef565b60405161046c9190611b42565b60405180910390f35b34801561048157600080fd5b5061048a6110f5565b6040516104979190611928565b60405180910390f35b3480156104ac57600080fd5b506104b561110d565b005b3480156104c357600080fd5b506104cc611264565b6040516104d99190611b42565b60405180910390f35b3480156104ee57600080fd5b50610509600480360381019061050491906115ad565b61126a565b005b34801561051757600080fd5b50610520611413565b60405161052d9190611987565b60405180910390f35b60085481565b6002544211610580576040517f08c379a000000000000000000000000000000000000000000000000000000000815260040161057790611a42565b60405180910390fd5b6000600960008473ffffffffffffffffffffffffffffffffffffffff1673ffffffffffffffffffffffffffffffffffffffff1681526020019081526020016000205411610602576040517f08c379a00000000000000000000000000000000000000000000000000000000081526004016105f9906119e2565b60405180910390fd5b6000600960008473ffffffffffffffffffffffffffffffffffffffff1673ffffffffffffffffffffffffffffffffffffffff1681526020019081526020016000205490506000600960008573ffffffffffffffffffffffffffffffffffffffff1673ffffffffffffffffffffffffffffffffffffffff16815260200190815260200160002081905550600454600854101580156106ad57506006546001546106aa9190611c2c565b42105b156107d7576000600854826106c29190611c82565b6003546106cf9190611cb3565b9050600760009054906101000a900473ffffffffffffffffffffffffffffffffffffffff1673ffffffffffffffffffffffffffffffffffffffff1663a9059cbb84836040518363ffffffff1660e01b815260040161072e929190611943565b602060405180830381600087803b15801561074857600080fd5b505af115801561075c573d6000803e3d6000fd5b505050506040513d601f19601f820116820180604052508101906107809190611612565b508273ffffffffffffffffffffffffffffffffffffffff167f987d620f307ff6b94d58743cb7a7509f24071586a77759b77c2d4e29f75a2f9a83836040516107c9929190611b86565b60405180910390a2506108d6565b6004546008541080156107f857506006546001546107f59190611c2c565b42105b1561089a578173ffffffffffffffffffffffffffffffffffffffff166108fc829081150290604051600060405180830381858888f19350505050158015610843573d6000803e3d6000fd5b508173ffffffffffffffffffffffffffffffffffffffff167f987d620f307ff6b94d58743cb7a7509f24071586a77759b77c2d4e29f75a2f9a82600060405161088d929190611b5d565b60405180910390a26108d5565b6040517f08c379a00000000000000000000000000000000000000000000000000000000081526004016108cc90611b22565b60405180910390fd5b5b505050565b60065481565b60045481565b6108ef611439565b73ffffffffffffffffffffffffffffffffffffffff1661090d6110a8565b73ffffffffffffffffffffffffffffffffffffffff1614610963576040517f08c379a000000000000000000000000000000000000000000000000000000000815260040161095a90611aa2565b60405180910390fd5b42600254106109a7576040517f08c379a000000000000000000000000000000000000000000000000000000000815260040161099e90611ac2565b60405180910390fd5b600454600854106109ed576040517f08c379a00000000000000000000000000000000000000000000000000000000081526004016109e490611a02565b60405180910390fd5b600760009054906101000a900473ffffffffffffffffffffffffffffffffffffffff1673ffffffffffffffffffffffffffffffffffffffff1663a9059cbb610a336110a8565b600760009054906101000a900473ffffffffffffffffffffffffffffffffffffffff1673ffffffffffffffffffffffffffffffffffffffff166370a08231306040518263ffffffff1660e01b8152600401610a8e9190611928565b60206040518083038186803b158015610aa657600080fd5b505afa158015610aba573d6000803e3d6000fd5b505050506040513d601f19601f82011682018060405250810190610ade91906116a5565b6040518363ffffffff1660e01b8152600401610afb929190611943565b602060405180830381600087803b158015610b1557600080fd5b505af1158015610b29573d6000803e3d6000fd5b505050506040513d601f19601f82011682018060405250810190610b4d9190611612565b50565b60008060149054906101000a900460ff1615610ba1576040517f08c379a0000000000000000000000000000000000000000000000000000000008152600401610b9890611ae2565b60405180910390fd5b735fbdb2315678afecb367f032d93f642f64180aa373ffffffffffffffffffffffffffffffffffffffff163373ffffffffffffffffffffffffffffffffffffffff1614610c23576040517f08c379a0000000000000000000000000000000000000000000000000000000008152600401610c1a906119a2565b60405180910390fd5b600082806020019051810190610c39919061167c565b90508060000151600760006101000a81548173ffffffffffffffffffffffffffffffffffffffff021916908373ffffffffffffffffffffffffffffffffffffffff160217905550806020015160018190555080604001518160200151610c9f9190611c2c565b6002819055508060a001516003819055508060c001516004819055508060600151600581905550806080015160068190555082604051610cdf9190611911565b60405180910390207f5e399709a9ff1709f6f6be7268c8e5c3eeaa9da9cd9797e78f07ef287c3717fe60405160405180910390a26001600060146101000a81548160ff0219169083151502179055506001915050919050565b60055481565b610d46611439565b73ffffffffffffffffffffffffffffffffffffffff16610d646110a8565b73ffffffffffffffffffffffffffffffffffffffff1614610dba576040517f08c379a0000000000000000000000000000000000000000000000000000000008152600401610db190611aa2565b60405180910390fd5b600073ffffffffffffffffffffffffffffffffffffffff1660008054906101000a900473ffffffffffffffffffffffffffffffffffffffff1673ffffffffffffffffffffffffffffffffffffffff167f8be0079c531659141344cd1fd0a4f28419497f9722a3daafe3b4186f6b6457e060405160405180910390a360008060006101000a81548173ffffffffffffffffffffffffffffffffffffffff021916908373ffffffffffffffffffffffffffffffffffffffff160217905550565b610e80611439565b73ffffffffffffffffffffffffffffffffffffffff16610e9e6110a8565b73ffffffffffffffffffffffffffffffffffffffff1614610ef4576040517f08c379a0000000000000000000000000000000000000000000000000000000008152600401610eeb90611aa2565b60405180910390fd5b42600554600254610f059190611c2c565b10610f45576040517f08c379a0000000000000000000000000000000000000000000000000000000008152600401610f3c90611a82565b60405180910390fd5b600760009054906101000a900473ffffffffffffffffffffffffffffffffffffffff1673ffffffffffffffffffffffffffffffffffffffff1663a9059cbb610f8b6110a8565b600760009054906101000a900473ffffffffffffffffffffffffffffffffffffffff1673ffffffffffffffffffffffffffffffffffffffff166370a08231306040518263ffffffff1660e01b8152600401610fe69190611928565b60206040518083038186803b158015610ffe57600080fd5b505afa158015611012573d6000803e3d6000fd5b505050506040513d601f19601f8201168201806040525081019061103691906116a5565b6040518363ffffffff1660e01b8152600401611053929190611943565b602060405180830381600087803b15801561106d57600080fd5b505af1158015611081573d6000803e3d6000fd5b505050506040513d601f19601f820116820180604052508101906110a59190611612565b50565b60008060009054906101000a900473ffffffffffffffffffffffffffffffffffffffff16905090565b60096020528060005260406000206000915090505481565b60035481565b60015481565b735fbdb2315678afecb367f032d93f642f64180aa381565b611115611439565b73ffffffffffffffffffffffffffffffffffffffff166111336110a8565b73ffffffffffffffffffffffffffffffffffffffff1614611189576040517f08c379a000000000000000000000000000000000000000000000000000000000815260040161118090611aa2565b60405180910390fd5b42600254106111cd576040517f08c379a00000000000000000000000000000000000000000000000000000000081526004016111c490611ac2565b60405180910390fd5b6004546008541015611214576040517f08c379a000000000000000000000000000000000000000000000000000000000815260040161120b90611a22565b60405180910390fd5b61121c6110a8565b73ffffffffffffffffffffffffffffffffffffffff166108fc479081150290604051600060405180830381858888f19350505050158015611261573d6000803e3d6000fd5b50565b60025481565b611272611439565b73ffffffffffffffffffffffffffffffffffffffff166112906110a8565b73ffffffffffffffffffffffffffffffffffffffff16146112e6576040517f08c379a00000000000000000000000000000000000000000000000000000000081526004016112dd90611aa2565b60405180910390fd5b600073ffffffffffffffffffffffffffffffffffffffff168173ffffffffffffffffffffffffffffffffffffffff161415611356576040517f08c379a000000000000000000000000000000000000000000000000000000000815260040161134d906119c2565b60405180910390fd5b8073ffffffffffffffffffffffffffffffffffffffff1660008054906101000a900473ffffffffffffffffffffffffffffffffffffffff1673ffffffffffffffffffffffffffffffffffffffff167f8be0079c531659141344cd1fd0a4f28419497f9722a3daafe3b4186f6b6457e060405160405180910390a3806000806101000a81548173ffffffffffffffffffffffffffffffffffffffff021916908373ffffffffffffffffffffffffffffffffffffffff16021790555050565b600760009054906101000a900473ffffffffffffffffffffffffffffffffffffffff1681565b600033905090565b600061145461144f84611bd4565b611baf565b90508281526020810184848401111561146c57600080fd5b611477848285611d8b565b509392505050565b60008135905061148e8161216f565b92915050565b6000815190506114a38161216f565b92915050565b6000815190506114b881612186565b92915050565b600082601f8301126114cf57600080fd5b81356114df848260208601611441565b91505092915050565b600060e082840312156114fa57600080fd5b61150460e0611baf565b9050600061151484828501611494565b600083015250602061152884828501611598565b602083015250604061153c84828501611598565b604083015250606061155084828501611598565b606083015250608061156484828501611598565b60808301525060a061157884828501611598565b60a08301525060c061158c84828501611598565b60c08301525092915050565b6000815190506115a78161219d565b92915050565b6000602082840312156115bf57600080fd5b60006115cd8482850161147f565b91505092915050565b600080604083850312156115e957600080fd5b60006115f78582860161147f565b92505060206116088582860161147f565b9150509250929050565b60006020828403121561162457600080fd5b6000611632848285016114a9565b91505092915050565b60006020828403121561164d57600080fd5b600082013567ffffffffffffffff81111561166757600080fd5b611673848285016114be565b91505092915050565b600060e0828403121561168e57600080fd5b600061169c848285016114e8565b91505092915050565b6000602082840312156116b757600080fd5b60006116c584828501611598565b91505092915050565b6116d781611d0d565b82525050565b6116e681611d1f565b82525050565b60006116f782611c05565b6117018185611c10565b9350611711818560208601611d9a565b80840191505092915050565b61172681611d55565b82525050565b61173581611d79565b82525050565b6000611748601883611c1b565b915061175382611e9c565b602082019050919050565b600061176b602683611c1b565b915061177682611ec5565b604082019050919050565b600061178e602083611c1b565b915061179982611f14565b602082019050919050565b60006117b1602683611c1b565b91506117bc82611f3d565b604082019050919050565b60006117d4602a83611c1b565b91506117df82611f8c565b604082019050919050565b60006117f7602583611c1b565b915061180282611fdb565b604082019050919050565b600061181a602083611c1b565b91506118258261202a565b602082019050919050565b600061183d601a83611c1b565b915061184882612053565b602082019050919050565b6000611860602083611c1b565b915061186b8261207c565b602082019050919050565b6000611883601e83611c1b565b915061188e826120a5565b602082019050919050565b60006118a6602a83611c1b565b91506118b1826120ce565b604082019050919050565b60006118c9601e83611c1b565b91506118d48261211d565b602082019050919050565b60006118ec602083611c1b565b91506118f782612146565b602082019050919050565b61190b81611d4b565b82525050565b600061191d82846116ec565b915081905092915050565b600060208201905061193d60008301846116ce565b92915050565b600060408201905061195860008301856116ce565b6119656020830184611902565b9392505050565b600060208201905061198160008301846116dd565b92915050565b600060208201905061199c600083018461171d565b92915050565b600060208201905081810360008301526119bb8161173b565b9050919050565b600060208201905081810360008301526119db8161175e565b9050919050565b600060208201905081810360008301526119fb81611781565b9050919050565b60006020820190508181036000830152611a1b816117a4565b9050919050565b60006020820190508181036000830152611a3b816117c7565b9050919050565b60006020820190508181036000830152611a5b816117ea565b9050919050565b60006020820190508181036000830152611a7b8161180d565b9050919050565b60006020820190508181036000830152611a9b81611830565b9050919050565b60006020820190508181036000830152611abb81611853565b9050919050565b60006020820190508181036000830152611adb81611876565b9050919050565b60006020820190508181036000830152611afb81611899565b9050919050565b60006020820190508181036000830152611b1b816118bc565b9050919050565b60006020820190508181036000830152611b3b816118df565b9050919050565b6000602082019050611b576000830184611902565b92915050565b6000604082019050611b726000830185611902565b611b7f602083018461172c565b9392505050565b6000604082019050611b9b6000830185611902565b611ba86020830184611902565b9392505050565b6000611bb9611bca565b9050611bc58282611dcd565b919050565b6000604051905090565b600067ffffffffffffffff821115611bef57611bee611e5c565b5b611bf882611e8b565b9050602081019050919050565b600081519050919050565b600081905092915050565b600082825260208201905092915050565b6000611c3782611d4b565b9150611c4283611d4b565b9250827fffffffffffffffffffffffffffffffffffffffffffffffffffffffffffffffff03821115611c7757611c76611dfe565b5b828201905092915050565b6000611c8d82611d4b565b9150611c9883611d4b565b925082611ca857611ca7611e2d565b5b828204905092915050565b6000611cbe82611d4b565b9150611cc983611d4b565b9250817fffffffffffffffffffffffffffffffffffffffffffffffffffffffffffffffff0483118215151615611d0257611d01611dfe565b5b828202905092915050565b6000611d1882611d2b565b9050919050565b60008115159050919050565b600073ffffffffffffffffffffffffffffffffffffffff82169050919050565b6000819050919050565b6000611d6082611d67565b9050919050565b6000611d7282611d2b565b9050919050565b6000611d8482611d4b565b9050919050565b82818337600083830152505050565b60005b83811015611db8578082015181840152602081019050611d9d565b83811115611dc7576000848401525b50505050565b611dd682611e8b565b810181811067ffffffffffffffff82111715611df557611df4611e5c565b5b80604052505050565b7f4e487b7100000000000000000000000000000000000000000000000000000000600052601160045260246000fd5b7f4e487b7100000000000000000000000000000000000000000000000000000000600052601260045260246000fd5b7f4e487b7100000000000000000000000000000000000000000000000000000000600052604160045260246000fd5b6000601f19601f8301169050919050565b7f596f7520617265206e6f742074686520466163746f72792e0000000000000000600082015250565b7f4f776e61626c653a206e6577206f776e657220697320746865207a65726f206160008201527f6464726573730000000000000000000000000000000000000000000000000000602082015250565b7f596f7520646f6e2774206861766520616e7920636f6e747269627574696f6e2e600082015250565b7f54686520726571756972656420616d6f756e7420686173206265656e2070726f60008201527f7669646564210000000000000000000000000000000000000000000000000000602082015250565b7f54686520726571756972656420616d6f756e7420686173206e6f74206265656e60008201527f2070726f76696465642100000000000000000000000000000000000000000000602082015250565b7f4561726c7920746f20636c61696d2e2053616c65206973206e6f742066696e6960008201527f736865642e000000000000000000000000000000000000000000000000000000602082015250565b7f546865206f66666572696e6720686173206e6f74207374617274656420796574600082015250565b7f5769746864726177616c20756e617661696c61626c6520796574000000000000600082015250565b7f4f776e61626c653a2063616c6c6572206973206e6f7420746865206f776e6572600082015250565b7f546865206f66666572696e67206d75737420626520636f6d706c657465640000600082015250565b7f5468697320636f6e74726163742068617320616c7265616479206265656e206960008201527f6e697469616c697a656400000000000000000000000000000000000000000000602082015250565b7f546865206f66666572696e672068617320616c726561647920656e6465640000600082015250565b7f436c61696d61626c65207465726d20686173206265656e20657870697265642e600082015250565b61217881611d0d565b811461218357600080fd5b50565b61218f81611d1f565b811461219a57600080fd5b50565b6121a681611d4b565b81146121b157600080fd5b5056fea26469706673582212206b76ecd4720756ab5758967fd9835057198438fc7f227eda776d885cd2e90bac64736f6c63430008030033",
  "linkReferences": {},
  "deployedLinkReferences": {}
}