{
  "_format": "hh-sol-artifact-1",
  "contractName": "BulksaleV1",
  "sourceName": "contracts/BulksaleV1.sol",
  "abi": [
    {
      "anonymous": false,
      "inputs": [
        {
          "indexed": true,
          "internalType": "address",
          "name": "account",
          "type": "address"
        },
        {
          "indexed": false,
          "internalType": "uint256",
          "name": "userShare",
          "type": "uint256"
        },
        {
          "indexed": false,
          "internalType": "uint256",
          "name": "erc20allocation",
          "type": "uint256"
        }
      ],
      "name": "Claimed",
      "type": "event"
    },
    {
      "anonymous": false,
      "inputs": [
        {
          "indexed": true,
          "internalType": "bytes",
          "name": "abiBytes",
          "type": "bytes"
        }
      ],
      "name": "Initialized",
      "type": "event"
    },
    {
      "anonymous": false,
      "inputs": [
        {
          "indexed": true,
          "internalType": "address",
          "name": "account",
          "type": "address"
        },
        {
          "indexed": false,
          "internalType": "uint256",
          "name": "amount",
          "type": "uint256"
        }
      ],
      "name": "Received",
      "type": "event"
    },
    {
      "anonymous": false,
      "inputs": [
        {
          "indexed": true,
          "internalType": "address",
          "name": "sender",
          "type": "address"
        },
        {
          "indexed": false,
          "internalType": "uint256",
          "name": "balance",
          "type": "uint256"
        }
      ],
      "name": "WithdrawnAfterLockDuration",
      "type": "event"
    },
    {
      "anonymous": false,
      "inputs": [
        {
          "indexed": true,
          "internalType": "address",
          "name": "sender",
          "type": "address"
        },
        {
          "indexed": false,
          "internalType": "uint256",
          "name": "balance",
          "type": "uint256"
        }
      ],
      "name": "WithdrawnOnFailed",
      "type": "event"
    },
    {
      "inputs": [
        {
          "internalType": "address",
          "name": "contributor",
          "type": "address"
        },
        {
          "internalType": "address",
          "name": "recipient",
          "type": "address"
        }
      ],
      "name": "claim",
      "outputs": [],
      "stateMutability": "nonpayable",
      "type": "function"
    },
    {
      "inputs": [],
      "name": "closingAt",
      "outputs": [
        {
          "internalType": "uint256",
          "name": "",
          "type": "uint256"
        }
      ],
      "stateMutability": "view",
      "type": "function"
    },
    {
      "inputs": [
        {
          "internalType": "bytes32",
          "name": "b1",
          "type": "bytes32"
        },
        {
          "internalType": "bytes32",
          "name": "b2",
          "type": "bytes32"
        }
      ],
      "name": "concat",
      "outputs": [
        {
          "internalType": "bytes",
          "name": "",
          "type": "bytes"
        }
      ],
      "stateMutability": "pure",
      "type": "function"
    },
    {
      "inputs": [],
      "name": "eventDuration",
      "outputs": [
        {
          "internalType": "uint256",
          "name": "",
          "type": "uint256"
        }
      ],
      "stateMutability": "view",
      "type": "function"
    },
    {
      "inputs": [],
      "name": "expirationDuration",
      "outputs": [
        {
          "internalType": "uint256",
          "name": "",
          "type": "uint256"
        }
      ],
      "stateMutability": "view",
      "type": "function"
    },
    {
      "inputs": [],
      "name": "expiredAt",
      "outputs": [
        {
          "internalType": "uint256",
          "name": "",
          "type": "uint256"
        }
      ],
      "stateMutability": "view",
      "type": "function"
    },
    {
      "inputs": [],
      "name": "factory",
      "outputs": [
        {
          "internalType": "address",
          "name": "",
          "type": "address"
        }
      ],
      "stateMutability": "view",
      "type": "function"
    },
    {
      "inputs": [],
      "name": "feeRatePerMil",
      "outputs": [
        {
          "internalType": "uint256",
          "name": "",
          "type": "uint256"
        }
      ],
      "stateMutability": "view",
      "type": "function"
    },
    {
      "inputs": [
        {
          "internalType": "bytes32[2]",
          "name": "_payloads",
          "type": "bytes32[2]"
        }
      ],
      "name": "initialize",
      "outputs": [
        {
          "internalType": "bool",
          "name": "",
          "type": "bool"
        }
      ],
      "stateMutability": "nonpayable",
      "type": "function"
    },
    {
      "inputs": [],
      "name": "lockDuration",
      "outputs": [
        {
          "internalType": "uint256",
          "name": "",
          "type": "uint256"
        }
      ],
      "stateMutability": "view",
      "type": "function"
    },
    {
      "inputs": [],
      "name": "lockUntil",
      "outputs": [
        {
          "internalType": "uint256",
          "name": "",
          "type": "uint256"
        }
      ],
      "stateMutability": "view",
      "type": "function"
    },
    {
      "inputs": [],
      "name": "minimalProvideAmount",
      "outputs": [
        {
          "internalType": "uint256",
          "name": "",
          "type": "uint256"
        }
      ],
      "stateMutability": "view",
      "type": "function"
    },
    {
      "inputs": [],
      "name": "owner",
      "outputs": [
        {
          "internalType": "address payable",
          "name": "",
          "type": "address"
        }
      ],
      "stateMutability": "view",
      "type": "function"
    },
    {
      "inputs": [
        {
          "internalType": "address",
          "name": "",
          "type": "address"
        }
      ],
      "name": "provided",
      "outputs": [
        {
          "internalType": "uint256",
          "name": "",
          "type": "uint256"
        }
      ],
      "stateMutability": "view",
      "type": "function"
    },
    {
      "inputs": [],
      "name": "providingToken1",
      "outputs": [
        {
          "internalType": "address payable",
          "name": "",
          "type": "address"
        }
      ],
      "stateMutability": "view",
      "type": "function"
    },
    {
      "inputs": [],
      "name": "startingAt",
      "outputs": [
        {
          "internalType": "uint256",
          "name": "",
          "type": "uint256"
        }
      ],
      "stateMutability": "view",
      "type": "function"
    },
    {
      "inputs": [],
      "name": "totalDistributeAmountOfProvidingToken1",
      "outputs": [
        {
          "internalType": "uint256",
          "name": "",
          "type": "uint256"
        }
      ],
      "stateMutability": "view",
      "type": "function"
    },
    {
      "inputs": [],
      "name": "totalProvided",
      "outputs": [
        {
          "internalType": "uint256",
          "name": "",
          "type": "uint256"
        }
      ],
      "stateMutability": "view",
      "type": "function"
    },
    {
      "inputs": [],
      "name": "withdrawERC20Onsale",
      "outputs": [],
      "stateMutability": "nonpayable",
      "type": "function"
    },
    {
      "inputs": [],
      "name": "withdrawProvidedETH",
      "outputs": [],
      "stateMutability": "nonpayable",
      "type": "function"
    },
    {
      "inputs": [],
      "name": "withdrawUnclaimedERC20OnSale",
      "outputs": [],
      "stateMutability": "nonpayable",
      "type": "function"
    },
    {
      "stateMutability": "payable",
      "type": "receive"
    }
  ],
  "bytecode": "0x60806040526000600160006101000a81548160ff021916908315150217905550600060045534801561003057600080fd5b5060016000819055506143b6806100486000396000f3fe60806040526004361061012e5760003560e01c806361904f48116100ab578063a6e00ca51161006f578063a6e00ca514610530578063aeaf0d5a14610547578063b86c0e1f14610572578063c45a01551461059d578063dccd4315146105c8578063e43608d8146105f357610286565b806361904f48146104355780637b9e6200146104605780638d9759921461049d5780638da5cb5b146104c85780639ddb9ee1146104f357610286565b80632d160321116100f25780632d160321146103605780632f2059061461039d5780633174cf24146103b45780633c78929e146103df578063400d3d9d1461040a57610286565b80630142c36e1461028b57806302e3cb0b146102b657806304554443146102e157806311a4c03a1461030c57806321c0b3421461033757610286565b36610286574261013c61060a565b111561017d576040517f08c379a000000000000000000000000000000000000000000000000000000000815260040161017490613578565b60405180910390fd5b6101856106d4565b4211156101c7576040517f08c379a00000000000000000000000000000000000000000000000000000000081526004016101be906136b8565b60405180910390fd5b34600460008282546101d9919061387d565b9250508190555034600560003373ffffffffffffffffffffffffffffffffffffffff1673ffffffffffffffffffffffffffffffffffffffff168152602001908152602001600020600082825461022f919061387d565b925050819055503373ffffffffffffffffffffffffffffffffffffffff167f88a5966d370b9919b20f3e2c13ff65706f196a4e32cc2c12bf57088f885258743460405161027c9190613738565b60405180910390a2005b600080fd5b34801561029757600080fd5b506102a06106f5565b6040516102ad91906132c2565b60405180910390f35b3480156102c257600080fd5b506102cb610846565b6040516102d89190613738565b60405180910390f35b3480156102ed57600080fd5b506102f661084c565b6040516103039190613738565b60405180910390f35b34801561031857600080fd5b50610321610937565b60405161032e9190613738565b60405180910390f35b34801561034357600080fd5b5061035e60048036038101906103599190612d45565b610a39565b005b34801561036c57600080fd5b5061038760048036038101906103829190612d81565b611021565b604051610394919061332f565b60405180910390f35b3480156103a957600080fd5b506103b2611631565b005b3480156103c057600080fd5b506103c96118c6565b6040516103d69190613738565b60405180910390f35b3480156103eb57600080fd5b506103f461199a565b6040516104019190613738565b60405180910390f35b34801561041657600080fd5b5061041f6119bb565b60405161042c9190613738565b60405180910390f35b34801561044157600080fd5b5061044a611ac6565b6040516104579190613738565b60405180910390f35b34801561046c57600080fd5b5061048760048036038101906104829190612dd3565b611ae7565b604051610494919061334a565b60405180910390f35b3480156104a957600080fd5b506104b2611b77565b6040516104bf9190613738565b60405180910390f35b3480156104d457600080fd5b506104dd611cac565b6040516104ea91906132c2565b60405180910390f35b3480156104ff57600080fd5b5061051a60048036038101906105159190612d1c565b611de6565b6040516105279190613738565b60405180910390f35b34801561053c57600080fd5b50610545611dfe565b005b34801561055357600080fd5b5061055c6120eb565b6040516105699190613738565b60405180910390f35b34801561057e57600080fd5b506105876106d4565b6040516105949190613738565b60405180910390f35b3480156105a957600080fd5b506105b2612266565b6040516105bf91906132a7565b60405180910390f35b3480156105d457600080fd5b506105dd61060a565b6040516105ea9190613738565b60405180910390f35b3480156105ff57600080fd5b5061060861227e565b005b60008061068f600260006002811061064b577f4e487b7100000000000000000000000000000000000000000000000000000000600052603260045260246000fd5b01546002600160028110610688577f4e487b7100000000000000000000000000000000000000000000000000000000600052603260045260246000fd5b0154611ae7565b905061012c6106b56106b0836000600360006106ab919061387d565b6125b2565b61271a565b6106bf9190613ac3565b6360a490676106ce919061387d565b91505090565b60006106de6118c6565b6106e661060a565b6106f0919061387d565b905090565b60008061077a6002600060028110610736577f4e487b7100000000000000000000000000000000000000000000000000000000600052603260045260246000fd5b01546002600160028110610773577f4e487b7100000000000000000000000000000000000000000000000000000000600052603260045260246000fd5b0154611ae7565b905061084061083b82601460086001806001806003600061079b919061387d565b6107a5919061387d565b6107af919061387d565b6107b9919061387d565b6107c3919061387d565b6107cd919061387d565b6107d7919061387d565b6014806008600180600180600360006107f0919061387d565b6107fa919061387d565b610804919061387d565b61080e919061387d565b610818919061387d565b610822919061387d565b61082c919061387d565b610836919061387d565b6125b2565b6127d8565b91505090565b60045481565b6000806108d1600260006002811061088d577f4e487b7100000000000000000000000000000000000000000000000000000000600052603260045260246000fd5b015460026001600281106108ca577f4e487b7100000000000000000000000000000000000000000000000000000000600052603260045260246000fd5b0154611ae7565b905062015180610927610922836001600360006108ee919061387d565b6108f8919061387d565b60018060036000610909919061387d565b610913919061387d565b61091d919061387d565b6125b2565b61271a565b6109319190613ac3565b91505090565b6000806109bc6002600060028110610978577f4e487b7100000000000000000000000000000000000000000000000000000000600052603260045260246000fd5b015460026001600281106109b5577f4e487b7100000000000000000000000000000000000000000000000000000000600052603260045260246000fd5b0154611ae7565b905062015180610a29610a2483600180600360006109da919061387d565b6109e4919061387d565b6109ee919061387d565b600180600160036000610a01919061387d565b610a0b919061387d565b610a15919061387d565b610a1f919061387d565b6125b2565b61271a565b610a339190613ac3565b91505090565b60026000541415610a7f576040517f08c379a0000000000000000000000000000000000000000000000000000000008152600401610a7690613678565b60405180910390fd5b6002600081905550610a8f6106d4565b4211610ad0576040517f08c379a0000000000000000000000000000000000000000000000000000000008152600401610ac790613518565b60405180910390fd5b6000600560008473ffffffffffffffffffffffffffffffffffffffff1673ffffffffffffffffffffffffffffffffffffffff1681526020019081526020016000205411610b52576040517f08c379a0000000000000000000000000000000000000000000000000000000008152600401610b49906134b8565b60405180910390fd5b6000600560008473ffffffffffffffffffffffffffffffffffffffff1673ffffffffffffffffffffffffffffffffffffffff1681526020019081526020016000205490506000600560008573ffffffffffffffffffffffffffffffffffffffff1673ffffffffffffffffffffffffffffffffffffffff168152602001908152602001600020819055506000610bf182600454610bec6120eb565b612995565b90506000610bfd611ac6565b421090506000610c0b611b77565b6103e8600454610c1b9190613ac3565b1015905060008084149050828015610c305750815b8015610c3a575080155b15610eb0578673ffffffffffffffffffffffffffffffffffffffff163373ffffffffffffffffffffffffffffffffffffffff16148015610ca557508573ffffffffffffffffffffffffffffffffffffffff168773ffffffffffffffffffffffffffffffffffffffff16145b80610d1357508673ffffffffffffffffffffffffffffffffffffffff163373ffffffffffffffffffffffffffffffffffffffff1614158015610d1257508573ffffffffffffffffffffffffffffffffffffffff168773ffffffffffffffffffffffffffffffffffffffff16145b5b80610d8157508673ffffffffffffffffffffffffffffffffffffffff163373ffffffffffffffffffffffffffffffffffffffff16148015610d8057508573ffffffffffffffffffffffffffffffffffffffff168773ffffffffffffffffffffffffffffffffffffffff1614155b5b15610e7057610d8e6106f5565b73ffffffffffffffffffffffffffffffffffffffff1663a9059cbb87866040518363ffffffff1660e01b8152600401610dc8929190613306565b602060405180830381600087803b158015610de257600080fd5b505af1158015610df6573d6000803e3d6000fd5b505050506040513d601f19601f82011682018060405250810190610e1a9190612daa565b508573ffffffffffffffffffffffffffffffffffffffff167f987d620f307ff6b94d58743cb7a7509f24071586a77759b77c2d4e29f75a2f9a8686604051610e6392919061377c565b60405180910390a2610eab565b6040517f08c379a0000000000000000000000000000000000000000000000000000000008152600401610ea290613558565b60405180910390fd5b611010565b828015610ebb575081155b80610ecc5750828015610ecb5750805b5b15610fd45760008773ffffffffffffffffffffffffffffffffffffffff1686604051610ef790613292565b60006040518083038185875af1925050503d8060008114610f34576040519150601f19603f3d011682016040523d82523d6000602084013e610f39565b606091505b5050905080610f7d576040517f08c379a0000000000000000000000000000000000000000000000000000000008152600401610f7490613658565b60405180910390fd5b8773ffffffffffffffffffffffffffffffffffffffff167f987d620f307ff6b94d58743cb7a7509f24071586a77759b77c2d4e29f75a2f9a876000604051610fc6929190613753565b60405180910390a25061100f565b6040517f08c379a0000000000000000000000000000000000000000000000000000000008152600401611006906136d8565b60405180910390fd5b5b505050505060016000819055505050565b6000600160009054906101000a900460ff1615611073576040517f08c379a000000000000000000000000000000000000000000000000000000000815260040161106a90613618565b60405180910390fd5b735fbdb2315678afecb367f032d93f642f64180aa373ffffffffffffffffffffffffffffffffffffffff163373ffffffffffffffffffffffffffffffffffffffff16146110f5576040517f08c379a00000000000000000000000000000000000000000000000000000000081526004016110ec90613418565b60405180910390fd5b6111346040518060400160405280600c81526020017f6761736c65667428293a257300000000000000000000000000000000000000008152505a6129de565b816002906002611145929190612be1565b506111856040518060400160405280600c81526020017f6761736c65667428293a257300000000000000000000000000000000000000008152505a6129de565b6111be6040518060600160405280603c8152602001614345603c91396111a961060a565b6111b16118c6565b6111b9610937565b612a7a565b6112046040518060400160405280601281526020017f666565526174655065724d696c28293a257300000000000000000000000000008152506111ff6119bb565b6129de565b61124a6040518060400160405280601981526020017f6d696e696d616c50726f76696465416d6f756e7428293a257300000000000000815250611245611b77565b6129de565b6112906040518060400160405280600a81526020017f6f776e657228293a25730000000000000000000000000000000000000000000081525061128b611cac565b612b1c565b6112d66040518060400160405280601481526020017f70726f766964696e67546f6b656e3128293a25730000000000000000000000008152506112d16106f5565b612b1c565b6112ff6040518060600160405280602b815260200161431a602b91396112fa6120eb565b6129de565b61130761060a565b421115611349576040517f08c379a000000000000000000000000000000000000000000000000000000000815260040161134090613478565b60405180910390fd5b620151806113556118c6565b1015611396576040517f08c379a000000000000000000000000000000000000000000000000000000000815260040161138d90613458565b60405180910390fd5b60006113a061084c565b10156113e1576040517f08c379a00000000000000000000000000000000000000000000000000000000081526004016113d8906136f8565b60405180910390fd5b62278d006113ed610937565b101561142e576040517f08c379a000000000000000000000000000000000000000000000000000000000815260040161142590613698565b60405180910390fd5b6114366119bb565b60011115801561144d5750606461144b6119bb565b105b61148c576040517f08c379a000000000000000000000000000000000000000000000000000000000815260040161148390613598565b60405180910390fd5b6000611496611b77565b116114d6576040517f08c379a00000000000000000000000000000000000000000000000000000000081526004016114cd90613438565b60405180910390fd5b600073ffffffffffffffffffffffffffffffffffffffff166114f6611cac565b73ffffffffffffffffffffffffffffffffffffffff16141561154d576040517f08c379a000000000000000000000000000000000000000000000000000000000815260040161154490613538565b60405180910390fd5b600073ffffffffffffffffffffffffffffffffffffffff1661156d6106f5565b73ffffffffffffffffffffffffffffffffffffffff1614156115c4576040517f08c379a00000000000000000000000000000000000000000000000000000000081526004016115bb90613718565b60405180910390fd5b60006115ce6120eb565b1161160e576040517f08c379a0000000000000000000000000000000000000000000000000000000008152600401611605906135b8565b60405180910390fd5b60018060006101000a81548160ff02191690831515021790555060019050919050565b611639611cac565b73ffffffffffffffffffffffffffffffffffffffff163373ffffffffffffffffffffffffffffffffffffffff16146116a6576040517f08c379a000000000000000000000000000000000000000000000000000000000815260040161169d90613638565b60405180910390fd5b600260005414156116ec576040517f08c379a00000000000000000000000000000000000000000000000000000000081526004016116e390613678565b60405180910390fd5b6002600081905550426116fd61199a565b1061173d576040517f08c379a000000000000000000000000000000000000000000000000000000000815260040161173490613498565b60405180910390fd5b60006117476106f5565b73ffffffffffffffffffffffffffffffffffffffff166370a08231306040518263ffffffff1660e01b815260040161177f91906132a7565b60206040518083038186803b15801561179757600080fd5b505afa1580156117ab573d6000803e3d6000fd5b505050506040513d601f19601f820116820180604052508101906117cf9190612e0f565b90506117d96106f5565b73ffffffffffffffffffffffffffffffffffffffff1663a9059cbb6117fc611cac565b836040518363ffffffff1660e01b815260040161181a9291906132dd565b602060405180830381600087803b15801561183457600080fd5b505af1158015611848573d6000803e3d6000fd5b505050506040513d601f19601f8201168201806040525081019061186c9190612daa565b503373ffffffffffffffffffffffffffffffffffffffff167f4e526043998f5e8eb845e3be9675c2b21a1b24bbce088eea5501d4ae54b4824b826040516118b39190613738565b60405180910390a2506001600081905550565b60008061194b6002600060028110611907577f4e487b7100000000000000000000000000000000000000000000000000000000600052603260045260246000fd5b01546002600160028110611944577f4e487b7100000000000000000000000000000000000000000000000000000000600052603260045260246000fd5b0154611ae7565b90506201518061198a6119858360036000611966919061387d565b600160036000611976919061387d565b611980919061387d565b6125b2565b61271a565b6119949190613ac3565b91505090565b60006119a461084c565b6119ac6106d4565b6119b6919061387d565b905090565b600080611a4060026000600281106119fc577f4e487b7100000000000000000000000000000000000000000000000000000000600052603260045260246000fd5b01546002600160028110611a39577f4e487b7100000000000000000000000000000000000000000000000000000000600052603260045260246000fd5b0154611ae7565b9050611ac0611abb82600180600160036000611a5c919061387d565b611a66919061387d565b611a70919061387d565b611a7a919061387d565b60018060018060036000611a8e919061387d565b611a98919061387d565b611aa2919061387d565b611aac919061387d565b611ab6919061387d565b6125b2565b61271a565b91505090565b6000611ad0610937565b611ad861060a565b611ae2919061387d565b905090565b60606000604067ffffffffffffffff811115611b2c577f4e487b7100000000000000000000000000000000000000000000000000000000600052604160045260246000fd5b6040519080825280601f01601f191660200182016040528015611b5e5781602001600182028036833780820191505090505b5090508360208201528260408201528091505092915050565b600080611bfc6002600060028110611bb8577f4e487b7100000000000000000000000000000000000000000000000000000000600052603260045260246000fd5b01546002600160028110611bf5577f4e487b7100000000000000000000000000000000000000000000000000000000600052603260045260246000fd5b0154611ae7565b9050670de0b6b3a7640000611c9c611c978360018060018060036000611c22919061387d565b611c2c919061387d565b611c36919061387d565b611c40919061387d565b611c4a919061387d565b600860018060018060036000611c60919061387d565b611c6a919061387d565b611c74919061387d565b611c7e919061387d565b611c88919061387d565b611c92919061387d565b6125b2565b61271a565b611ca69190613ac3565b91505090565b600080611d316002600060028110611ced577f4e487b7100000000000000000000000000000000000000000000000000000000600052603260045260246000fd5b01546002600160028110611d2a577f4e487b7100000000000000000000000000000000000000000000000000000000600052603260045260246000fd5b0154611ae7565b9050611de0611ddb82600860018060018060036000611d50919061387d565b611d5a919061387d565b611d64919061387d565b611d6e919061387d565b611d78919061387d565b611d82919061387d565b6014600860018060018060036000611d9a919061387d565b611da4919061387d565b611dae919061387d565b611db8919061387d565b611dc2919061387d565b611dcc919061387d565b611dd6919061387d565b6125b2565b6127d8565b91505090565b60056020528060005260406000206000915090505481565b611e06611cac565b73ffffffffffffffffffffffffffffffffffffffff163373ffffffffffffffffffffffffffffffffffffffff1614611e73576040517f08c379a0000000000000000000000000000000000000000000000000000000008152600401611e6a90613638565b60405180910390fd5b60026000541415611eb9576040517f08c379a0000000000000000000000000000000000000000000000000000000008152600401611eb090613678565b60405180910390fd5b600260008190555042611eca6106d4565b10611f0a576040517f08c379a0000000000000000000000000000000000000000000000000000000008152600401611f01906135d8565b60405180910390fd5b611f12611b77565b6103e8600454611f229190613ac3565b10611f62576040517f08c379a0000000000000000000000000000000000000000000000000000000008152600401611f59906134d8565b60405180910390fd5b6000611f6c6106f5565b73ffffffffffffffffffffffffffffffffffffffff166370a08231306040518263ffffffff1660e01b8152600401611fa491906132a7565b60206040518083038186803b158015611fbc57600080fd5b505afa158015611fd0573d6000803e3d6000fd5b505050506040513d601f19601f82011682018060405250810190611ff49190612e0f565b9050611ffe6106f5565b73ffffffffffffffffffffffffffffffffffffffff1663a9059cbb612021611cac565b836040518363ffffffff1660e01b815260040161203f9291906132dd565b602060405180830381600087803b15801561205957600080fd5b505af115801561206d573d6000803e3d6000fd5b505050506040513d601f19601f820116820180604052508101906120919190612daa565b503373ffffffffffffffffffffffffffffffffffffffff167f6ad78535132556a5932c94d741a9ea143e95079b9f556207c27b43cfd8e164e2826040516120d89190613738565b60405180910390a2506001600081905550565b600080612170600260006002811061212c577f4e487b7100000000000000000000000000000000000000000000000000000000600052603260045260246000fd5b01546002600160028110612169577f4e487b7100000000000000000000000000000000000000000000000000000000600052603260045260246000fd5b0154611ae7565b9050670de0b6b3a76400006122566122518360148060086001806001806003600061219b919061387d565b6121a5919061387d565b6121af919061387d565b6121b9919061387d565b6121c3919061387d565b6121cd919061387d565b6121d7919061387d565b6121e1919061387d565b60086014806008600180600180600360006121fc919061387d565b612206919061387d565b612210919061387d565b61221a919061387d565b612224919061387d565b61222e919061387d565b612238919061387d565b612242919061387d565b61224c919061387d565b6125b2565b61271a565b6122609190613ac3565b91505090565b735fbdb2315678afecb367f032d93f642f64180aa381565b612286611cac565b73ffffffffffffffffffffffffffffffffffffffff163373ffffffffffffffffffffffffffffffffffffffff16146122f3576040517f08c379a00000000000000000000000000000000000000000000000000000000081526004016122ea90613638565b60405180910390fd5b60026000541415612339576040517f08c379a000000000000000000000000000000000000000000000000000000000815260040161233090613678565b60405180910390fd5b60026000819055504261234a6106d4565b1061238a576040517f08c379a0000000000000000000000000000000000000000000000000000000008152600401612381906135f8565b60405180910390fd5b612392611b77565b6103e86004546123a29190613ac3565b10156123e3576040517f08c379a00000000000000000000000000000000000000000000000000000000081526004016123da906134f8565b60405180910390fd5b60006123ed611cac565b73ffffffffffffffffffffffffffffffffffffffff166103e861240e6119bb565b6103e861241b9190613b51565b476124269190613ac3565b61243091906138d3565b60405161243c90613292565b60006040518083038185875af1925050503d8060008114612479576040519150601f19603f3d011682016040523d82523d6000602084013e61247e565b606091505b50509050806124c2576040517f08c379a00000000000000000000000000000000000000000000000000000000081526004016124b990613658565b60405180910390fd5b6000735fbdb2315678afecb367f032d93f642f64180aa373ffffffffffffffffffffffffffffffffffffffff166103e86124fa6119bb565b476125059190613ac3565b61250f91906138d3565b6161a89060405161251f90613292565b600060405180830381858888f193505050503d806000811461255d576040519150601f19603f3d011682016040523d82523d6000602084013e612562565b606091505b50509050806125a6576040517f08c379a000000000000000000000000000000000000000000000000000000000815260040161259d90613658565b60405180910390fd5b50506001600081905550565b6060600083836125c29190613b51565b67ffffffffffffffff811115612601577f4e487b7100000000000000000000000000000000000000000000000000000000600052604160045260246000fd5b6040519080825280601f01601f1916602001820160405280156126335781602001600182028036833780820191505090505b50905060008490505b8381101561270e5785818151811061267d577f4e487b7100000000000000000000000000000000000000000000000000000000600052603260045260246000fd5b602001015160f81c60f81b8286836126959190613b51565b815181106126cc577f4e487b7100000000000000000000000000000000000000000000000000000000600052603260045260246000fd5b60200101907effffffffffffffffffffffffffffffffffffffffffffffffffffffffffffff1916908160001a905350808061270690613c95565b91505061263c565b50809150509392505050565b60008060005b83518110156127ce57600181612736919061387d565b84516127429190613b51565b600861274e9190613ac3565b600261275a9190613957565b848281518110612793577f4e487b7100000000000000000000000000000000000000000000000000000000600052603260045260246000fd5b602001015160f81c60f81b60f81c60ff166127ae9190613ac3565b826127b9919061387d565b915080806127c690613c95565b915050612720565b5080915050919050565b6000806000905060005b835181101561298b576000848281518110612826577f4e487b7100000000000000000000000000000000000000000000000000000000600052603260045260246000fd5b602001015160f81c60f81b60f81c60ff16905060308173ffffffffffffffffffffffffffffffffffffffff1610158015612877575060398173ffffffffffffffffffffffffffffffffffffffff1611155b156128a3576030816128899190613b1d565b6010846128969190613a75565b6128a09190613833565b92505b60418173ffffffffffffffffffffffffffffffffffffffff16101580156128e15750605a8173ffffffffffffffffffffffffffffffffffffffff1611155b1561290d576037816128f39190613b1d565b6010846129009190613a75565b61290a9190613833565b92505b60618173ffffffffffffffffffffffffffffffffffffffff161015801561294b5750607a8173ffffffffffffffffffffffffffffffffffffffff1611155b156129775760578161295d9190613b1d565b60108461296a9190613a75565b6129749190613833565b92505b50808061298390613c95565b9150506127e2565b5080915050919050565b6000828210156129bd578282856129ac9190613ac3565b6129b691906138d3565b90506129d7565b8383836129ca91906138d3565b6129d49190613ac3565b90505b9392505050565b612a7682826040516024016129f492919061339c565b6040516020818303038152906040527f9710a9d0000000000000000000000000000000000000000000000000000000007bffffffffffffffffffffffffffffffffffffffffffffffffffffffff19166020820180517bffffffffffffffffffffffffffffffffffffffffffffffffffffffff8381831617835250505050612bb8565b5050565b612b1684848484604051602401612a9494939291906133cc565b6040516020818303038152906040527f08ee5666000000000000000000000000000000000000000000000000000000007bffffffffffffffffffffffffffffffffffffffffffffffffffffffff19166020820180517bffffffffffffffffffffffffffffffffffffffffffffffffffffffff8381831617835250505050612bb8565b50505050565b612bb48282604051602401612b3292919061336c565b6040516020818303038152906040527f319af333000000000000000000000000000000000000000000000000000000007bffffffffffffffffffffffffffffffffffffffffffffffffffffffff19166020820180517bffffffffffffffffffffffffffffffffffffffffffffffffffffffff8381831617835250505050612bb8565b5050565b60008151905060006a636f6e736f6c652e6c6f679050602083016000808483855afa5050505050565b8260028101928215612c10579160200282015b82811115612c0f578251825591602001919060010190612bf4565b5b509050612c1d9190612c21565b5090565b5b80821115612c3a576000816000905550600101612c22565b5090565b6000612c51612c4c846137ca565b6137a5565b90508082856020860282011115612c6757600080fd5b60005b85811015612c975781612c7d8882612cf2565b845260208401935060208301925050600181019050612c6a565b5050509392505050565b600081359050612cb0816142bd565b92915050565b600082601f830112612cc757600080fd5b6002612cd4848285612c3e565b91505092915050565b600081519050612cec816142d4565b92915050565b600081359050612d01816142eb565b92915050565b600081519050612d1681614302565b92915050565b600060208284031215612d2e57600080fd5b6000612d3c84828501612ca1565b91505092915050565b60008060408385031215612d5857600080fd5b6000612d6685828601612ca1565b9250506020612d7785828601612ca1565b9150509250929050565b600060408284031215612d9357600080fd5b6000612da184828501612cb6565b91505092915050565b600060208284031215612dbc57600080fd5b6000612dca84828501612cdd565b91505092915050565b60008060408385031215612de657600080fd5b6000612df485828601612cf2565b9250506020612e0585828601612cf2565b9150509250929050565b600060208284031215612e2157600080fd5b6000612e2f84828501612d07565b91505092915050565b612e4181613be9565b82525050565b612e5081613b97565b82525050565b612e5f81613b85565b82525050565b612e6e81613ba9565b82525050565b6000612e7f826137f0565b612e898185613806565b9350612e99818560208601613c31565b612ea281613d6b565b840191505092915050565b612eb681613bfb565b82525050565b6000612ec7826137fb565b612ed18185613822565b9350612ee1818560208601613c31565b612eea81613d6b565b840191505092915050565b6000612f02601883613822565b9150612f0d82613d89565b602082019050919050565b6000612f25602183613822565b9150612f3082613db2565b604082019050919050565b6000612f48601b83613822565b9150612f5382613e01565b602082019050919050565b6000612f6b602083613822565b9150612f7682613e2a565b602082019050919050565b6000612f8e601b83613822565b9150612f9982613e53565b602082019050919050565b6000612fb1602083613822565b9150612fbc82613e7c565b602082019050919050565b6000612fd4602683613822565b9150612fdf82613ea5565b604082019050919050565b6000612ff7602a83613822565b915061300282613ef4565b604082019050919050565b600061301a602583613822565b915061302582613f43565b604082019050919050565b600061303d601383613822565b915061304882613f92565b602082019050919050565b6000613060603a83613822565b915061306b82613fbb565b604082019050919050565b6000613083602083613822565b915061308e8261400a565b602082019050919050565b60006130a6601883613822565b91506130b182614033565b602082019050919050565b60006130c9601e83613822565b91506130d48261405c565b602082019050919050565b60006130ec601e83613822565b91506130f782614085565b602082019050919050565b600061310f602483613822565b915061311a826140ae565b604082019050919050565b6000613132600083613817565b915061313d826140fd565b600082019050919050565b6000613155602a83613822565b915061316082614100565b604082019050919050565b6000613178601683613822565b91506131838261414f565b602082019050919050565b600061319b600f83613822565b91506131a682614178565b602082019050919050565b60006131be601f83613822565b91506131c9826141a1565b602082019050919050565b60006131e1602d83613822565b91506131ec826141ca565b604082019050919050565b6000613204601e83613822565b915061320f82614219565b602082019050919050565b6000613227602083613822565b915061323282614242565b602082019050919050565b600061324a601883613822565b91506132558261426b565b602082019050919050565b600061326d601383613822565b915061327882614294565b602082019050919050565b61328c81613bdf565b82525050565b600061329d82613125565b9150819050919050565b60006020820190506132bc6000830184612e56565b92915050565b60006020820190506132d76000830184612e47565b92915050565b60006040820190506132f26000830185612e38565b6132ff6020830184613283565b9392505050565b600060408201905061331b6000830185612e56565b6133286020830184613283565b9392505050565b60006020820190506133446000830184612e65565b92915050565b600060208201905081810360008301526133648184612e74565b905092915050565b600060408201905081810360008301526133868185612ebc565b90506133956020830184612e56565b9392505050565b600060408201905081810360008301526133b68185612ebc565b90506133c56020830184613283565b9392505050565b600060808201905081810360008301526133e68187612ebc565b90506133f56020830186613283565b6134026040830185613283565b61340f6060830184613283565b95945050505050565b6000602082019050818103600083015261343181612ef5565b9050919050565b6000602082019050818103600083015261345181612f18565b9050919050565b6000602082019050818103600083015261347181612f3b565b9050919050565b6000602082019050818103600083015261349181612f5e565b9050919050565b600060208201905081810360008301526134b181612f81565b9050919050565b600060208201905081810360008301526134d181612fa4565b9050919050565b600060208201905081810360008301526134f181612fc7565b9050919050565b6000602082019050818103600083015261351181612fea565b9050919050565b600060208201905081810360008301526135318161300d565b9050919050565b6000602082019050818103600083015261355181613030565b9050919050565b6000602082019050818103600083015261357181613053565b9050919050565b6000602082019050818103600083015261359181613076565b9050919050565b600060208201905081810360008301526135b181613099565b9050919050565b600060208201905081810360008301526135d1816130bc565b9050919050565b600060208201905081810360008301526135f1816130df565b9050919050565b6000602082019050818103600083015261361181613102565b9050919050565b6000602082019050818103600083015261363181613148565b9050919050565b600060208201905081810360008301526136518161316b565b9050919050565b600060208201905081810360008301526136718161318e565b9050919050565b60006020820190508181036000830152613691816131b1565b9050919050565b600060208201905081810360008301526136b1816131d4565b9050919050565b600060208201905081810360008301526136d1816131f7565b9050919050565b600060208201905081810360008301526136f18161321a565b9050919050565b600060208201905081810360008301526137118161323d565b9050919050565b6000602082019050818103600083015261373181613260565b9050919050565b600060208201905061374d6000830184613283565b92915050565b60006040820190506137686000830185613283565b6137756020830184612ead565b9392505050565b60006040820190506137916000830185613283565b61379e6020830184613283565b9392505050565b60006137af6137c0565b90506137bb8282613c64565b919050565b6000604051905090565b600067ffffffffffffffff8211156137e5576137e4613d3c565b5b602082029050919050565b600081519050919050565b600081519050919050565b600082825260208201905092915050565b600081905092915050565b600082825260208201905092915050565b600061383e82613bbf565b915061384983613bbf565b92508273ffffffffffffffffffffffffffffffffffffffff0382111561387257613871613cde565b5b828201905092915050565b600061388882613bdf565b915061389383613bdf565b9250827fffffffffffffffffffffffffffffffffffffffffffffffffffffffffffffffff038211156138c8576138c7613cde565b5b828201905092915050565b60006138de82613bdf565b91506138e983613bdf565b9250826138f9576138f8613d0d565b5b828204905092915050565b6000808291508390505b600185111561394e5780860481111561392a57613929613cde565b5b60018516156139395780820291505b808102905061394785613d7c565b945061390e565b94509492505050565b600061396282613bdf565b915061396d83613bdf565b925061399a7fffffffffffffffffffffffffffffffffffffffffffffffffffffffffffffffff84846139a2565b905092915050565b6000826139b25760019050613a6e565b816139c05760009050613a6e565b81600181146139d657600281146139e057613a0f565b6001915050613a6e565b60ff8411156139f2576139f1613cde565b5b8360020a915084821115613a0957613a08613cde565b5b50613a6e565b5060208310610133831016604e8410600b8410161715613a445782820a905083811115613a3f57613a3e613cde565b5b613a6e565b613a518484846001613904565b92509050818404811115613a6857613a67613cde565b5b81810290505b9392505050565b6000613a8082613bbf565b9150613a8b83613bbf565b92508173ffffffffffffffffffffffffffffffffffffffff0483118215151615613ab857613ab7613cde565b5b828202905092915050565b6000613ace82613bdf565b9150613ad983613bdf565b9250817fffffffffffffffffffffffffffffffffffffffffffffffffffffffffffffffff0483118215151615613b1257613b11613cde565b5b828202905092915050565b6000613b2882613bbf565b9150613b3383613bbf565b925082821015613b4657613b45613cde565b5b828203905092915050565b6000613b5c82613bdf565b9150613b6783613bdf565b925082821015613b7a57613b79613cde565b5b828203905092915050565b6000613b9082613bbf565b9050919050565b6000613ba282613bbf565b9050919050565b60008115159050919050565b6000819050919050565b600073ffffffffffffffffffffffffffffffffffffffff82169050919050565b6000819050919050565b6000613bf482613c0d565b9050919050565b6000613c0682613bdf565b9050919050565b6000613c1882613c1f565b9050919050565b6000613c2a82613bbf565b9050919050565b60005b83811015613c4f578082015181840152602081019050613c34565b83811115613c5e576000848401525b50505050565b613c6d82613d6b565b810181811067ffffffffffffffff82111715613c8c57613c8b613d3c565b5b80604052505050565b6000613ca082613bdf565b91507fffffffffffffffffffffffffffffffffffffffffffffffffffffffffffffffff821415613cd357613cd2613cde565b5b600182019050919050565b7f4e487b7100000000000000000000000000000000000000000000000000000000600052601160045260246000fd5b7f4e487b7100000000000000000000000000000000000000000000000000000000600052601260045260246000fd5b7f4e487b7100000000000000000000000000000000000000000000000000000000600052604160045260246000fd5b6000601f19601f8301169050919050565b60008160011c9050919050565b7f596f7520617265206e6f742074686520466163746f72792e0000000000000000600082015250565b7f6d696e696d616c2070726f7669646520616d6f756e7420697320696e76616c6960008201527f6400000000000000000000000000000000000000000000000000000000000000602082015250565b7f6576656e74206475726174696f6e20697320746f6f2073686f72740000000000600082015250565b7f7374617274696e674174206d75737420626520696e2074686520667574757265600082015250565b7f5769746864726177616c20756e617661696c61626c65207965742e0000000000600082015250565b7f596f7520646f6e2774206861766520616e7920636f6e747269627574696f6e2e600082015250565b7f54686520726571756972656420616d6f756e7420686173206265656e2070726f60008201527f7669646564210000000000000000000000000000000000000000000000000000602082015250565b7f54686520726571756972656420616d6f756e7420686173206e6f74206265656e60008201527f2070726f76696465642100000000000000000000000000000000000000000000602082015250565b7f4561726c7920746f20636c61696d2e2053616c65206973206e6f742066696e6960008201527f736865642e000000000000000000000000000000000000000000000000000000602082015250565b7f6f776e6572206d75737420626520746865726500000000000000000000000000600082015250565b7f73656e64657220697320636c61696d696e6720736f6d656f6e65206f7468657260008201527f27732066756e6420666f7220736f6d656f6e65206f746865722e000000000000602082015250565b7f546865206f66666572696e6720686173206e6f74207374617274656420796574600082015250565b7f6665652072617465206973206f7574206f662072616e67650000000000000000600082015250565b7f646973747269627574696f6e20616d6f756e7420697320696e76616c69640000600082015250565b7f546865206f66666572696e67206d75737420626520636f6d706c657465640000600082015250565b7f546865206f66666572696e67206d7573742062652066696e697368656420666960008201527f7273742e00000000000000000000000000000000000000000000000000000000602082015250565b50565b7f5468697320636f6e74726163742068617320616c7265616479206265656e206960008201527f6e697469616c697a656400000000000000000000000000000000000000000000602082015250565b7f596f7520617265206e6f7420746865206f776e65722e00000000000000000000600082015250565b7f7472616e73666572206661696c65640000000000000000000000000000000000600082015250565b7f5265656e7472616e637947756172643a207265656e7472616e742063616c6c00600082015250565b7f65787069726174696f6e206475726174696f6e206d757374206265206d6f726560008201527f207468616e203330206461797300000000000000000000000000000000000000602082015250565b7f546865206f66666572696e672068617320616c726561647920656e6465640000600082015250565b7f436c61696d61626c65207465726d20686173206265656e20657870697265642e600082015250565b7f6c6f636b206475726174696f6e20697320696e76616c69640000000000000000600082015250565b7f746f6b656e206d75737420626520746865726500000000000000000000000000600082015250565b6142c681613b85565b81146142d157600080fd5b50565b6142dd81613ba9565b81146142e857600080fd5b50565b6142f481613bb5565b81146142ff57600080fd5b50565b61430b81613bdf565b811461431657600080fd5b5056fe746f74616c44697374726962757465416d6f756e744f6650726f766964696e67546f6b656e3128293a25737374617274696e67417428293a25732c206576656e744475726174696f6e28293a25732c2065787069726174696f6e4475726174696f6e28293a2573a264697066735822122041d090ea45f036f6483e24f62d55fed0a62dc032e8fdabd76cd64a2c36abd9b164736f6c63430008030033",
  "linkReferences": {},
  "deployedLinkReferences": {}
}