{
  "_format": "hh-sol-artifact-1",
  "contractName": "BulksaleV1",
  "sourceName": "contracts/BulksaleV1.sol",
  "abi": [
    {
      "anonymous": false,
      "inputs": [
        {
          "indexed": true,
          "internalType": "address",
          "name": "account",
          "type": "address"
        },
        {
          "indexed": false,
          "internalType": "uint256",
          "name": "userShare",
          "type": "uint256"
        },
        {
          "indexed": false,
          "internalType": "uint256",
          "name": "erc20allocation",
          "type": "uint256"
        }
      ],
      "name": "Claimed",
      "type": "event"
    },
    {
      "anonymous": false,
      "inputs": [
        {
          "indexed": true,
          "internalType": "bytes",
          "name": "abiBytes",
          "type": "bytes"
        }
      ],
      "name": "Initialized",
      "type": "event"
    },
    {
      "anonymous": false,
      "inputs": [
        {
          "indexed": true,
          "internalType": "address",
          "name": "account",
          "type": "address"
        },
        {
          "indexed": false,
          "internalType": "uint256",
          "name": "amount",
          "type": "uint256"
        }
      ],
      "name": "Received",
      "type": "event"
    },
    {
      "anonymous": false,
      "inputs": [
        {
          "indexed": true,
          "internalType": "address",
          "name": "sender",
          "type": "address"
        },
        {
          "indexed": false,
          "internalType": "uint256",
          "name": "balance",
          "type": "uint256"
        }
      ],
      "name": "WithdrawnAfterLockDuration",
      "type": "event"
    },
    {
      "anonymous": false,
      "inputs": [
        {
          "indexed": true,
          "internalType": "address",
          "name": "sender",
          "type": "address"
        },
        {
          "indexed": false,
          "internalType": "uint256",
          "name": "balance",
          "type": "uint256"
        }
      ],
      "name": "WithdrawnOnFailed",
      "type": "event"
    },
    {
      "inputs": [
        {
          "internalType": "address",
          "name": "contributor",
          "type": "address"
        },
        {
          "internalType": "address",
          "name": "recipient",
          "type": "address"
        }
      ],
      "name": "claim",
      "outputs": [],
      "stateMutability": "nonpayable",
      "type": "function"
    },
    {
      "inputs": [],
      "name": "closingAt",
      "outputs": [
        {
          "internalType": "uint256",
          "name": "",
          "type": "uint256"
        }
      ],
      "stateMutability": "view",
      "type": "function"
    },
    {
      "inputs": [],
      "name": "eventDuration",
      "outputs": [
        {
          "internalType": "uint256",
          "name": "",
          "type": "uint256"
        }
      ],
      "stateMutability": "view",
      "type": "function"
    },
    {
      "inputs": [],
      "name": "expirationDuration",
      "outputs": [
        {
          "internalType": "uint256",
          "name": "",
          "type": "uint256"
        }
      ],
      "stateMutability": "view",
      "type": "function"
    },
    {
      "inputs": [],
      "name": "expiredAt",
      "outputs": [
        {
          "internalType": "uint256",
          "name": "",
          "type": "uint256"
        }
      ],
      "stateMutability": "view",
      "type": "function"
    },
    {
      "inputs": [],
      "name": "factory",
      "outputs": [
        {
          "internalType": "address",
          "name": "",
          "type": "address"
        }
      ],
      "stateMutability": "view",
      "type": "function"
    },
    {
      "inputs": [],
      "name": "feeRatePerMil",
      "outputs": [
        {
          "internalType": "uint256",
          "name": "",
          "type": "uint256"
        }
      ],
      "stateMutability": "view",
      "type": "function"
    },
    {
      "inputs": [
        {
          "internalType": "bytes",
          "name": "_payload",
          "type": "bytes"
        }
      ],
      "name": "initialize",
      "outputs": [
        {
          "internalType": "bool",
          "name": "",
          "type": "bool"
        }
      ],
      "stateMutability": "nonpayable",
      "type": "function"
    },
    {
      "inputs": [],
      "name": "lockDuration",
      "outputs": [
        {
          "internalType": "uint256",
          "name": "",
          "type": "uint256"
        }
      ],
      "stateMutability": "view",
      "type": "function"
    },
    {
      "inputs": [],
      "name": "lockUntil",
      "outputs": [
        {
          "internalType": "uint256",
          "name": "",
          "type": "uint256"
        }
      ],
      "stateMutability": "view",
      "type": "function"
    },
    {
      "inputs": [],
      "name": "minimalProvideAmount",
      "outputs": [
        {
          "internalType": "uint256",
          "name": "",
          "type": "uint256"
        }
      ],
      "stateMutability": "view",
      "type": "function"
    },
    {
      "inputs": [],
      "name": "owner",
      "outputs": [
        {
          "internalType": "address payable",
          "name": "",
          "type": "address"
        }
      ],
      "stateMutability": "view",
      "type": "function"
    },
    {
      "inputs": [
        {
          "internalType": "address",
          "name": "",
          "type": "address"
        }
      ],
      "name": "provided",
      "outputs": [
        {
          "internalType": "uint256",
          "name": "",
          "type": "uint256"
        }
      ],
      "stateMutability": "view",
      "type": "function"
    },
    {
      "inputs": [],
      "name": "providingToken1",
      "outputs": [
        {
          "internalType": "address payable",
          "name": "",
          "type": "address"
        }
      ],
      "stateMutability": "view",
      "type": "function"
    },
    {
      "inputs": [],
      "name": "startingAt",
      "outputs": [
        {
          "internalType": "uint256",
          "name": "",
          "type": "uint256"
        }
      ],
      "stateMutability": "view",
      "type": "function"
    },
    {
      "inputs": [],
      "name": "totalDistributeAmountOfProvidingToken1",
      "outputs": [
        {
          "internalType": "uint256",
          "name": "",
          "type": "uint256"
        }
      ],
      "stateMutability": "view",
      "type": "function"
    },
    {
      "inputs": [],
      "name": "totalProvided",
      "outputs": [
        {
          "internalType": "uint256",
          "name": "",
          "type": "uint256"
        }
      ],
      "stateMutability": "view",
      "type": "function"
    },
    {
      "inputs": [],
      "name": "withdrawERC20Onsale",
      "outputs": [],
      "stateMutability": "nonpayable",
      "type": "function"
    },
    {
      "inputs": [],
      "name": "withdrawProvidedETH",
      "outputs": [],
      "stateMutability": "nonpayable",
      "type": "function"
    },
    {
      "inputs": [],
      "name": "withdrawUnclaimedERC20OnSale",
      "outputs": [],
      "stateMutability": "nonpayable",
      "type": "function"
    },
    {
      "stateMutability": "payable",
      "type": "receive"
    }
  ],
  "bytecode": "0x60806040526000600160006101000a81548160ff021916908315150217905550600060035534801561003057600080fd5b506001600081905550613ac5806100486000396000f3fe6080604052600436106101235760003560e01c806361904f48116100a0578063aeaf0d5a11610064578063aeaf0d5a146104ff578063b86c0e1f1461052a578063c45a015514610555578063dccd431514610580578063e43608d8146105ab5761027b565b806361904f481461042a5780638d975992146104555780638da5cb5b146104805780639ddb9ee1146104ab578063a6e00ca5146104e85761027b565b80632f205906116100e75780632f205906146103555780633174cf241461036c5780633c78929e14610397578063400d3d9d146103c2578063439fab91146103ed5761027b565b80630142c36e1461028057806302e3cb0b146102ab57806304554443146102d657806311a4c03a1461030157806321c0b3421461032c5761027b565b3661027b57426101316105c2565b1115610172576040517f08c379a000000000000000000000000000000000000000000000000000000000815260040161016990612d75565b60405180910390fd5b61017a610607565b4211156101bc576040517f08c379a00000000000000000000000000000000000000000000000000000000081526004016101b390612eb5565b60405180910390fd5b34600360008282546101ce9190613013565b9250508190555034600460003373ffffffffffffffffffffffffffffffffffffffff1673ffffffffffffffffffffffffffffffffffffffff16815260200190815260200160002060008282546102249190613013565b925050819055503373ffffffffffffffffffffffffffffffffffffffff167f88a5966d370b9919b20f3e2c13ff65706f196a4e32cc2c12bf57088f88525874346040516102719190612f35565b60405180910390a2005b600080fd5b34801561028c57600080fd5b50610295610628565b6040516102a29190612b5d565b60405180910390f35b3480156102b757600080fd5b506102c06106f4565b6040516102cd9190612f35565b60405180910390f35b3480156102e257600080fd5b506102eb6106fa565b6040516102f89190612f35565b60405180910390f35b34801561030d57600080fd5b50610316610760565b6040516103239190612f35565b60405180910390f35b34801561033857600080fd5b50610353600480360381019061034e9190612639565b6107dd565b005b34801561036157600080fd5b5061036a610dc5565b005b34801561037857600080fd5b5061038161105a565b60405161038e9190612f35565b60405180910390f35b3480156103a357600080fd5b506103ac6110a9565b6040516103b99190612f35565b60405180910390f35b3480156103ce57600080fd5b506103d76110ca565b6040516103e49190612f35565b60405180910390f35b3480156103f957600080fd5b50610414600480360381019061040f919061269e565b611150565b6040516104219190612bca565b60405180910390f35b34801561043657600080fd5b5061043f6116e3565b60405161044c9190612f35565b60405180910390f35b34801561046157600080fd5b5061046a611704565b6040516104779190612f35565b60405180910390f35b34801561048c57600080fd5b506104956117b4565b6040516104a29190612b5d565b60405180910390f35b3480156104b757600080fd5b506104d260048036038101906104cd9190612610565b611869565b6040516104df9190612f35565b60405180910390f35b3480156104f457600080fd5b506104fd611881565b005b34801561050b57600080fd5b50610514611b6e565b6040516105219190612f35565b60405180910390f35b34801561053657600080fd5b5061053f610607565b60405161054c9190612f35565b60405180910390f35b34801561056157600080fd5b5061056a611c64565b6040516105779190612b42565b60405180910390f35b34801561058c57600080fd5b506105956105c2565b6040516105a29190612f35565b60405180910390f35b3480156105b757600080fd5b506105c0611c7c565b005b600061012c6105e96105e460026000600360006105df9190613013565b611fb0565b61215b565b6105f39190613259565b6360a490676106029190613013565b905090565b600061061161105a565b6106196105c2565b6106239190613013565b905090565b60006106ef6106ea6002601460086001806001806003600061064a9190613013565b6106549190613013565b61065e9190613013565b6106689190613013565b6106729190613013565b61067c9190613013565b6106869190613013565b60148060086001806001806003600061069f9190613013565b6106a99190613013565b6106b39190613013565b6106bd9190613013565b6106c79190613013565b6106d19190613013565b6106db9190613013565b6106e59190613013565b611fb0565b612219565b905090565b60035481565b60006201518061075161074c60026001600360006107189190613013565b6107229190613013565b600180600360006107339190613013565b61073d9190613013565b6107479190613013565b611fb0565b61215b565b61075b9190613259565b905090565b6000620151806107ce6107c960026001806003600061077f9190613013565b6107899190613013565b6107939190613013565b6001806001600360006107a69190613013565b6107b09190613013565b6107ba9190613013565b6107c49190613013565b611fb0565b61215b565b6107d89190613259565b905090565b60026000541415610823576040517f08c379a000000000000000000000000000000000000000000000000000000000815260040161081a90612e75565b60405180910390fd5b6002600081905550610833610607565b4211610874576040517f08c379a000000000000000000000000000000000000000000000000000000000815260040161086b90612d15565b60405180910390fd5b6000600460008473ffffffffffffffffffffffffffffffffffffffff1673ffffffffffffffffffffffffffffffffffffffff16815260200190815260200160002054116108f6576040517f08c379a00000000000000000000000000000000000000000000000000000000081526004016108ed90612cb5565b60405180910390fd5b6000600460008473ffffffffffffffffffffffffffffffffffffffff1673ffffffffffffffffffffffffffffffffffffffff1681526020019081526020016000205490506000600460008573ffffffffffffffffffffffffffffffffffffffff1673ffffffffffffffffffffffffffffffffffffffff16815260200190815260200160002081905550600061099582600354610990611b6e565b6123d6565b905060006109a16116e3565b4210905060006109af611704565b6103e86003546109bf9190613259565b10159050600080841490508280156109d45750815b80156109de575080155b15610c54578673ffffffffffffffffffffffffffffffffffffffff163373ffffffffffffffffffffffffffffffffffffffff16148015610a4957508573ffffffffffffffffffffffffffffffffffffffff168773ffffffffffffffffffffffffffffffffffffffff16145b80610ab757508673ffffffffffffffffffffffffffffffffffffffff163373ffffffffffffffffffffffffffffffffffffffff1614158015610ab657508573ffffffffffffffffffffffffffffffffffffffff168773ffffffffffffffffffffffffffffffffffffffff16145b5b80610b2557508673ffffffffffffffffffffffffffffffffffffffff163373ffffffffffffffffffffffffffffffffffffffff16148015610b2457508573ffffffffffffffffffffffffffffffffffffffff168773ffffffffffffffffffffffffffffffffffffffff1614155b5b15610c1457610b32610628565b73ffffffffffffffffffffffffffffffffffffffff1663a9059cbb87866040518363ffffffff1660e01b8152600401610b6c929190612ba1565b602060405180830381600087803b158015610b8657600080fd5b505af1158015610b9a573d6000803e3d6000fd5b505050506040513d601f19601f82011682018060405250810190610bbe9190612675565b508573ffffffffffffffffffffffffffffffffffffffff167f987d620f307ff6b94d58743cb7a7509f24071586a77759b77c2d4e29f75a2f9a8686604051610c07929190612f79565b60405180910390a2610c4f565b6040517f08c379a0000000000000000000000000000000000000000000000000000000008152600401610c4690612d55565b60405180910390fd5b610db4565b828015610c5f575081155b80610c705750828015610c6f5750805b5b15610d785760008773ffffffffffffffffffffffffffffffffffffffff1686604051610c9b90612b2d565b60006040518083038185875af1925050503d8060008114610cd8576040519150601f19603f3d011682016040523d82523d6000602084013e610cdd565b606091505b5050905080610d21576040517f08c379a0000000000000000000000000000000000000000000000000000000008152600401610d1890612e55565b60405180910390fd5b8773ffffffffffffffffffffffffffffffffffffffff167f987d620f307ff6b94d58743cb7a7509f24071586a77759b77c2d4e29f75a2f9a876000604051610d6a929190612f50565b60405180910390a250610db3565b6040517f08c379a0000000000000000000000000000000000000000000000000000000008152600401610daa90612ed5565b60405180910390fd5b5b505050505060016000819055505050565b610dcd6117b4565b73ffffffffffffffffffffffffffffffffffffffff163373ffffffffffffffffffffffffffffffffffffffff1614610e3a576040517f08c379a0000000000000000000000000000000000000000000000000000000008152600401610e3190612e35565b60405180910390fd5b60026000541415610e80576040517f08c379a0000000000000000000000000000000000000000000000000000000008152600401610e7790612e75565b60405180910390fd5b600260008190555042610e916110a9565b10610ed1576040517f08c379a0000000000000000000000000000000000000000000000000000000008152600401610ec890612c95565b60405180910390fd5b6000610edb610628565b73ffffffffffffffffffffffffffffffffffffffff166370a08231306040518263ffffffff1660e01b8152600401610f139190612b42565b60206040518083038186803b158015610f2b57600080fd5b505afa158015610f3f573d6000803e3d6000fd5b505050506040513d601f19601f82011682018060405250810190610f6391906126e3565b9050610f6d610628565b73ffffffffffffffffffffffffffffffffffffffff1663a9059cbb610f906117b4565b836040518363ffffffff1660e01b8152600401610fae929190612b78565b602060405180830381600087803b158015610fc857600080fd5b505af1158015610fdc573d6000803e3d6000fd5b505050506040513d601f19601f820116820180604052508101906110009190612675565b503373ffffffffffffffffffffffffffffffffffffffff167f4e526043998f5e8eb845e3be9675c2b21a1b24bbce088eea5501d4ae54b4824b826040516110479190612f35565b60405180910390a2506001600081905550565b60006201518061109a6110956002600360006110769190613013565b6001600360006110869190613013565b6110909190613013565b611fb0565b61215b565b6110a49190613259565b905090565b60006110b36106fa565b6110bb610607565b6110c59190613013565b905090565b600061114b61114660026001806001600360006110e79190613013565b6110f19190613013565b6110fb9190613013565b6111059190613013565b600180600180600360006111199190613013565b6111239190613013565b61112d9190613013565b6111379190613013565b6111419190613013565b611fb0565b61215b565b905090565b60006111916040518060400160405280600c81526020017f6761736c65667428293a257300000000000000000000000000000000000000008152505a61241f565b600160009054906101000a900460ff16156111e1576040517f08c379a00000000000000000000000000000000000000000000000000000000081526004016111d890612e15565b60405180910390fd5b6112206040518060400160405280600c81526020017f6761736c65667428293a257300000000000000000000000000000000000000008152505a61241f565b61125f6040518060400160405280600c81526020017f6761736c65667428293a257300000000000000000000000000000000000000008152505a61241f565b735fbdb2315678afecb367f032d93f642f64180aa373ffffffffffffffffffffffffffffffffffffffff163373ffffffffffffffffffffffffffffffffffffffff16146112e1576040517f08c379a00000000000000000000000000000000000000000000000000000000081526004016112d890612c15565b60405180910390fd5b6113206040518060400160405280600c81526020017f6761736c65667428293a257300000000000000000000000000000000000000008152505a61241f565b61135f6040518060400160405280600c81526020017f6761736c65667428293a257300000000000000000000000000000000000000008152505a61241f565b8282600291906113709291906124e4565b506113b06040518060400160405280600c81526020017f6761736c65667428293a257300000000000000000000000000000000000000008152505a61241f565b6113b86105c2565b4211156113fa576040517f08c379a00000000000000000000000000000000000000000000000000000000081526004016113f190612c75565b60405180910390fd5b6201518061140661105a565b1015611447576040517f08c379a000000000000000000000000000000000000000000000000000000000815260040161143e90612c55565b60405180910390fd5b60006114516106fa565b1015611492576040517f08c379a000000000000000000000000000000000000000000000000000000000815260040161148990612ef5565b60405180910390fd5b62278d0061149e610760565b10156114df576040517f08c379a00000000000000000000000000000000000000000000000000000000081526004016114d690612e95565b60405180910390fd5b6114e76110ca565b6001111580156114fe575060646114fc6110ca565b105b61153d576040517f08c379a000000000000000000000000000000000000000000000000000000000815260040161153490612d95565b60405180910390fd5b6000611547611704565b11611587576040517f08c379a000000000000000000000000000000000000000000000000000000000815260040161157e90612c35565b60405180910390fd5b600073ffffffffffffffffffffffffffffffffffffffff166115a76117b4565b73ffffffffffffffffffffffffffffffffffffffff1614156115fe576040517f08c379a00000000000000000000000000000000000000000000000000000000081526004016115f590612d35565b60405180910390fd5b600073ffffffffffffffffffffffffffffffffffffffff1661161e610628565b73ffffffffffffffffffffffffffffffffffffffff161415611675576040517f08c379a000000000000000000000000000000000000000000000000000000000815260040161166c90612f15565b60405180910390fd5b600061167f611b6e565b116116bf576040517f08c379a00000000000000000000000000000000000000000000000000000000081526004016116b690612db5565b60405180910390fd5b60018060006101000a81548160ff0219169083151502179055506001905092915050565b60006116ed610760565b6116f56105c2565b6116ff9190613013565b905090565b6000670de0b6b3a76400006117a56117a060026001806001806003600061172b9190613013565b6117359190613013565b61173f9190613013565b6117499190613013565b6117539190613013565b6008600180600180600360006117699190613013565b6117739190613013565b61177d9190613013565b6117879190613013565b6117919190613013565b61179b9190613013565b611fb0565b61215b565b6117af9190613259565b905090565b600061186461185f60026008600180600180600360006117d49190613013565b6117de9190613013565b6117e89190613013565b6117f29190613013565b6117fc9190613013565b6118069190613013565b601460086001806001806003600061181e9190613013565b6118289190613013565b6118329190613013565b61183c9190613013565b6118469190613013565b6118509190613013565b61185a9190613013565b611fb0565b612219565b905090565b60046020528060005260406000206000915090505481565b6118896117b4565b73ffffffffffffffffffffffffffffffffffffffff163373ffffffffffffffffffffffffffffffffffffffff16146118f6576040517f08c379a00000000000000000000000000000000000000000000000000000000081526004016118ed90612e35565b60405180910390fd5b6002600054141561193c576040517f08c379a000000000000000000000000000000000000000000000000000000000815260040161193390612e75565b60405180910390fd5b60026000819055504261194d610607565b1061198d576040517f08c379a000000000000000000000000000000000000000000000000000000000815260040161198490612dd5565b60405180910390fd5b611995611704565b6103e86003546119a59190613259565b106119e5576040517f08c379a00000000000000000000000000000000000000000000000000000000081526004016119dc90612cd5565b60405180910390fd5b60006119ef610628565b73ffffffffffffffffffffffffffffffffffffffff166370a08231306040518263ffffffff1660e01b8152600401611a279190612b42565b60206040518083038186803b158015611a3f57600080fd5b505afa158015611a53573d6000803e3d6000fd5b505050506040513d601f19601f82011682018060405250810190611a7791906126e3565b9050611a81610628565b73ffffffffffffffffffffffffffffffffffffffff1663a9059cbb611aa46117b4565b836040518363ffffffff1660e01b8152600401611ac2929190612b78565b602060405180830381600087803b158015611adc57600080fd5b505af1158015611af0573d6000803e3d6000fd5b505050506040513d601f19601f82011682018060405250810190611b149190612675565b503373ffffffffffffffffffffffffffffffffffffffff167f6ad78535132556a5932c94d741a9ea143e95079b9f556207c27b43cfd8e164e282604051611b5b9190612f35565b60405180910390a2506001600081905550565b6000670de0b6b3a7640000611c55611c506002601480600860018060018060036000611b9a9190613013565b611ba49190613013565b611bae9190613013565b611bb89190613013565b611bc29190613013565b611bcc9190613013565b611bd69190613013565b611be09190613013565b6008601480600860018060018060036000611bfb9190613013565b611c059190613013565b611c0f9190613013565b611c199190613013565b611c239190613013565b611c2d9190613013565b611c379190613013565b611c419190613013565b611c4b9190613013565b611fb0565b61215b565b611c5f9190613259565b905090565b735fbdb2315678afecb367f032d93f642f64180aa381565b611c846117b4565b73ffffffffffffffffffffffffffffffffffffffff163373ffffffffffffffffffffffffffffffffffffffff1614611cf1576040517f08c379a0000000000000000000000000000000000000000000000000000000008152600401611ce890612e35565b60405180910390fd5b60026000541415611d37576040517f08c379a0000000000000000000000000000000000000000000000000000000008152600401611d2e90612e75565b60405180910390fd5b600260008190555042611d48610607565b10611d88576040517f08c379a0000000000000000000000000000000000000000000000000000000008152600401611d7f90612df5565b60405180910390fd5b611d90611704565b6103e8600354611da09190613259565b1015611de1576040517f08c379a0000000000000000000000000000000000000000000000000000000008152600401611dd890612cf5565b60405180910390fd5b6000611deb6117b4565b73ffffffffffffffffffffffffffffffffffffffff166103e8611e0c6110ca565b6103e8611e1991906132e7565b47611e249190613259565b611e2e9190613069565b604051611e3a90612b2d565b60006040518083038185875af1925050503d8060008114611e77576040519150601f19603f3d011682016040523d82523d6000602084013e611e7c565b606091505b5050905080611ec0576040517f08c379a0000000000000000000000000000000000000000000000000000000008152600401611eb790612e55565b60405180910390fd5b6000735fbdb2315678afecb367f032d93f642f64180aa373ffffffffffffffffffffffffffffffffffffffff166103e8611ef86110ca565b47611f039190613259565b611f0d9190613069565b6161a890604051611f1d90612b2d565b600060405180830381858888f193505050503d8060008114611f5b576040519150601f19603f3d011682016040523d82523d6000602084013e611f60565b606091505b5050905080611fa4576040517f08c379a0000000000000000000000000000000000000000000000000000000008152600401611f9b90612e55565b60405180910390fd5b50506001600081905550565b606060008383611fc091906132e7565b67ffffffffffffffff811115611fff577f4e487b7100000000000000000000000000000000000000000000000000000000600052604160045260246000fd5b6040519080825280601f01601f1916602001820160405280156120315781602001600182028036833780820191505090505b50905060008490505b8381101561214f578581815461204f906133f0565b8110612084577f4e487b7100000000000000000000000000000000000000000000000000000000600052603260045260246000fd5b8154600116156120a35790600052602060002090602091828204019190065b9054901a7f0100000000000000000000000000000000000000000000000000000000000000028286836120d691906132e7565b8151811061210d577f4e487b7100000000000000000000000000000000000000000000000000000000600052603260045260246000fd5b60200101907effffffffffffffffffffffffffffffffffffffffffffffffffffffffffffff1916908160001a905350808061214790613422565b91505061203a565b50809150509392505050565b60008060005b835181101561220f576001816121779190613013565b845161218391906132e7565b600861218f9190613259565b600261219b91906130ed565b8482815181106121d4577f4e487b7100000000000000000000000000000000000000000000000000000000600052603260045260246000fd5b602001015160f81c60f81b60f81c60ff166121ef9190613259565b826121fa9190613013565b9150808061220790613422565b915050612161565b5080915050919050565b6000806000905060005b83518110156123cc576000848281518110612267577f4e487b7100000000000000000000000000000000000000000000000000000000600052603260045260246000fd5b602001015160f81c60f81b60f81c60ff16905060308173ffffffffffffffffffffffffffffffffffffffff16101580156122b8575060398173ffffffffffffffffffffffffffffffffffffffff1611155b156122e4576030816122ca91906132b3565b6010846122d7919061320b565b6122e19190612fc9565b92505b60418173ffffffffffffffffffffffffffffffffffffffff16101580156123225750605a8173ffffffffffffffffffffffffffffffffffffffff1611155b1561234e5760378161233491906132b3565b601084612341919061320b565b61234b9190612fc9565b92505b60618173ffffffffffffffffffffffffffffffffffffffff161015801561238c5750607a8173ffffffffffffffffffffffffffffffffffffffff1611155b156123b85760578161239e91906132b3565b6010846123ab919061320b565b6123b59190612fc9565b92505b5080806123c490613422565b915050612223565b5080915050919050565b6000828210156123fe578282856123ed9190613259565b6123f79190613069565b9050612418565b83838361240b9190613069565b6124159190613259565b90505b9392505050565b6124b78282604051602401612435929190612be5565b6040516020818303038152906040527f9710a9d0000000000000000000000000000000000000000000000000000000007bffffffffffffffffffffffffffffffffffffffffffffffffffffffff19166020820180517bffffffffffffffffffffffffffffffffffffffffffffffffffffffff83818316178352505050506124bb565b5050565b60008151905060006a636f6e736f6c652e6c6f679050602083016000808483855afa5050505050565b8280546124f0906133f0565b90600052602060002090601f0160209004810192826125125760008555612559565b82601f1061252b57803560ff1916838001178555612559565b82800160010185558215612559579182015b8281111561255857823582559160200191906001019061253d565b5b509050612566919061256a565b5090565b5b8082111561258357600081600090555060010161256b565b5090565b60008135905061259681613a4a565b92915050565b6000815190506125ab81613a61565b92915050565b60008083601f8401126125c357600080fd5b8235905067ffffffffffffffff8111156125dc57600080fd5b6020830191508360018202830111156125f457600080fd5b9250929050565b60008151905061260a81613a78565b92915050565b60006020828403121561262257600080fd5b600061263084828501612587565b91505092915050565b6000806040838503121561264c57600080fd5b600061265a85828601612587565b925050602061266b85828601612587565b9150509250929050565b60006020828403121561268757600080fd5b60006126958482850161259c565b91505092915050565b600080602083850312156126b157600080fd5b600083013567ffffffffffffffff8111156126cb57600080fd5b6126d7858286016125b1565b92509250509250929050565b6000602082840312156126f557600080fd5b6000612703848285016125fb565b91505092915050565b61271581613375565b82525050565b6127248161332d565b82525050565b6127338161331b565b82525050565b6127428161333f565b82525050565b61275181613387565b82525050565b600061276282612fa2565b61276c8185612fb8565b935061277c8185602086016133bd565b612785816134f8565b840191505092915050565b600061279d601883612fb8565b91506127a882613516565b602082019050919050565b60006127c0602183612fb8565b91506127cb8261353f565b604082019050919050565b60006127e3601b83612fb8565b91506127ee8261358e565b602082019050919050565b6000612806602083612fb8565b9150612811826135b7565b602082019050919050565b6000612829601b83612fb8565b9150612834826135e0565b602082019050919050565b600061284c602083612fb8565b915061285782613609565b602082019050919050565b600061286f602683612fb8565b915061287a82613632565b604082019050919050565b6000612892602a83612fb8565b915061289d82613681565b604082019050919050565b60006128b5602583612fb8565b91506128c0826136d0565b604082019050919050565b60006128d8601383612fb8565b91506128e38261371f565b602082019050919050565b60006128fb603a83612fb8565b915061290682613748565b604082019050919050565b600061291e602083612fb8565b915061292982613797565b602082019050919050565b6000612941601883612fb8565b915061294c826137c0565b602082019050919050565b6000612964601e83612fb8565b915061296f826137e9565b602082019050919050565b6000612987601e83612fb8565b915061299282613812565b602082019050919050565b60006129aa602483612fb8565b91506129b58261383b565b604082019050919050565b60006129cd600083612fad565b91506129d88261388a565b600082019050919050565b60006129f0602a83612fb8565b91506129fb8261388d565b604082019050919050565b6000612a13601683612fb8565b9150612a1e826138dc565b602082019050919050565b6000612a36600f83612fb8565b9150612a4182613905565b602082019050919050565b6000612a59601f83612fb8565b9150612a648261392e565b602082019050919050565b6000612a7c602d83612fb8565b9150612a8782613957565b604082019050919050565b6000612a9f601e83612fb8565b9150612aaa826139a6565b602082019050919050565b6000612ac2602083612fb8565b9150612acd826139cf565b602082019050919050565b6000612ae5601883612fb8565b9150612af0826139f8565b602082019050919050565b6000612b08601383612fb8565b9150612b1382613a21565b602082019050919050565b612b278161336b565b82525050565b6000612b38826129c0565b9150819050919050565b6000602082019050612b57600083018461272a565b92915050565b6000602082019050612b72600083018461271b565b92915050565b6000604082019050612b8d600083018561270c565b612b9a6020830184612b1e565b9392505050565b6000604082019050612bb6600083018561272a565b612bc36020830184612b1e565b9392505050565b6000602082019050612bdf6000830184612739565b92915050565b60006040820190508181036000830152612bff8185612757565b9050612c0e6020830184612b1e565b9392505050565b60006020820190508181036000830152612c2e81612790565b9050919050565b60006020820190508181036000830152612c4e816127b3565b9050919050565b60006020820190508181036000830152612c6e816127d6565b9050919050565b60006020820190508181036000830152612c8e816127f9565b9050919050565b60006020820190508181036000830152612cae8161281c565b9050919050565b60006020820190508181036000830152612cce8161283f565b9050919050565b60006020820190508181036000830152612cee81612862565b9050919050565b60006020820190508181036000830152612d0e81612885565b9050919050565b60006020820190508181036000830152612d2e816128a8565b9050919050565b60006020820190508181036000830152612d4e816128cb565b9050919050565b60006020820190508181036000830152612d6e816128ee565b9050919050565b60006020820190508181036000830152612d8e81612911565b9050919050565b60006020820190508181036000830152612dae81612934565b9050919050565b60006020820190508181036000830152612dce81612957565b9050919050565b60006020820190508181036000830152612dee8161297a565b9050919050565b60006020820190508181036000830152612e0e8161299d565b9050919050565b60006020820190508181036000830152612e2e816129e3565b9050919050565b60006020820190508181036000830152612e4e81612a06565b9050919050565b60006020820190508181036000830152612e6e81612a29565b9050919050565b60006020820190508181036000830152612e8e81612a4c565b9050919050565b60006020820190508181036000830152612eae81612a6f565b9050919050565b60006020820190508181036000830152612ece81612a92565b9050919050565b60006020820190508181036000830152612eee81612ab5565b9050919050565b60006020820190508181036000830152612f0e81612ad8565b9050919050565b60006020820190508181036000830152612f2e81612afb565b9050919050565b6000602082019050612f4a6000830184612b1e565b92915050565b6000604082019050612f656000830185612b1e565b612f726020830184612748565b9392505050565b6000604082019050612f8e6000830185612b1e565b612f9b6020830184612b1e565b9392505050565b600081519050919050565b600081905092915050565b600082825260208201905092915050565b6000612fd48261334b565b9150612fdf8361334b565b92508273ffffffffffffffffffffffffffffffffffffffff038211156130085761300761346b565b5b828201905092915050565b600061301e8261336b565b91506130298361336b565b9250827fffffffffffffffffffffffffffffffffffffffffffffffffffffffffffffffff0382111561305e5761305d61346b565b5b828201905092915050565b60006130748261336b565b915061307f8361336b565b92508261308f5761308e61349a565b5b828204905092915050565b6000808291508390505b60018511156130e4578086048111156130c0576130bf61346b565b5b60018516156130cf5780820291505b80810290506130dd85613509565b94506130a4565b94509492505050565b60006130f88261336b565b91506131038361336b565b92506131307fffffffffffffffffffffffffffffffffffffffffffffffffffffffffffffffff8484613138565b905092915050565b6000826131485760019050613204565b816131565760009050613204565b816001811461316c5760028114613176576131a5565b6001915050613204565b60ff8411156131885761318761346b565b5b8360020a91508482111561319f5761319e61346b565b5b50613204565b5060208310610133831016604e8410600b84101617156131da5782820a9050838111156131d5576131d461346b565b5b613204565b6131e7848484600161309a565b925090508184048111156131fe576131fd61346b565b5b81810290505b9392505050565b60006132168261334b565b91506132218361334b565b92508173ffffffffffffffffffffffffffffffffffffffff048311821515161561324e5761324d61346b565b5b828202905092915050565b60006132648261336b565b915061326f8361336b565b9250817fffffffffffffffffffffffffffffffffffffffffffffffffffffffffffffffff04831182151516156132a8576132a761346b565b5b828202905092915050565b60006132be8261334b565b91506132c98361334b565b9250828210156132dc576132db61346b565b5b828203905092915050565b60006132f28261336b565b91506132fd8361336b565b9250828210156133105761330f61346b565b5b828203905092915050565b60006133268261334b565b9050919050565b60006133388261334b565b9050919050565b60008115159050919050565b600073ffffffffffffffffffffffffffffffffffffffff82169050919050565b6000819050919050565b600061338082613399565b9050919050565b60006133928261336b565b9050919050565b60006133a4826133ab565b9050919050565b60006133b68261334b565b9050919050565b60005b838110156133db5780820151818401526020810190506133c0565b838111156133ea576000848401525b50505050565b6000600282049050600182168061340857607f821691505b6020821081141561341c5761341b6134c9565b5b50919050565b600061342d8261336b565b91507fffffffffffffffffffffffffffffffffffffffffffffffffffffffffffffffff8214156134605761345f61346b565b5b600182019050919050565b7f4e487b7100000000000000000000000000000000000000000000000000000000600052601160045260246000fd5b7f4e487b7100000000000000000000000000000000000000000000000000000000600052601260045260246000fd5b7f4e487b7100000000000000000000000000000000000000000000000000000000600052602260045260246000fd5b6000601f19601f8301169050919050565b60008160011c9050919050565b7f596f7520617265206e6f742074686520466163746f72792e0000000000000000600082015250565b7f6d696e696d616c2070726f7669646520616d6f756e7420697320696e76616c6960008201527f6400000000000000000000000000000000000000000000000000000000000000602082015250565b7f6576656e74206475726174696f6e20697320746f6f2073686f72740000000000600082015250565b7f7374617274696e674174206d75737420626520696e2074686520667574757265600082015250565b7f5769746864726177616c20756e617661696c61626c65207965742e0000000000600082015250565b7f596f7520646f6e2774206861766520616e7920636f6e747269627574696f6e2e600082015250565b7f54686520726571756972656420616d6f756e7420686173206265656e2070726f60008201527f7669646564210000000000000000000000000000000000000000000000000000602082015250565b7f54686520726571756972656420616d6f756e7420686173206e6f74206265656e60008201527f2070726f76696465642100000000000000000000000000000000000000000000602082015250565b7f4561726c7920746f20636c61696d2e2053616c65206973206e6f742066696e6960008201527f736865642e000000000000000000000000000000000000000000000000000000602082015250565b7f6f776e6572206d75737420626520746865726500000000000000000000000000600082015250565b7f73656e64657220697320636c61696d696e6720736f6d656f6e65206f7468657260008201527f27732066756e6420666f7220736f6d656f6e65206f746865722e000000000000602082015250565b7f546865206f66666572696e6720686173206e6f74207374617274656420796574600082015250565b7f6665652072617465206973206f7574206f662072616e67650000000000000000600082015250565b7f646973747269627574696f6e20616d6f756e7420697320696e76616c69640000600082015250565b7f546865206f66666572696e67206d75737420626520636f6d706c657465640000600082015250565b7f546865206f66666572696e67206d7573742062652066696e697368656420666960008201527f7273742e00000000000000000000000000000000000000000000000000000000602082015250565b50565b7f5468697320636f6e74726163742068617320616c7265616479206265656e206960008201527f6e697469616c697a656400000000000000000000000000000000000000000000602082015250565b7f596f7520617265206e6f7420746865206f776e65722e00000000000000000000600082015250565b7f7472616e73666572206661696c65640000000000000000000000000000000000600082015250565b7f5265656e7472616e637947756172643a207265656e7472616e742063616c6c00600082015250565b7f65787069726174696f6e206475726174696f6e206d757374206265206d6f726560008201527f207468616e203330206461797300000000000000000000000000000000000000602082015250565b7f546865206f66666572696e672068617320616c726561647920656e6465640000600082015250565b7f436c61696d61626c65207465726d20686173206265656e20657870697265642e600082015250565b7f6c6f636b206475726174696f6e20697320696e76616c69640000000000000000600082015250565b7f746f6b656e206d75737420626520746865726500000000000000000000000000600082015250565b613a538161331b565b8114613a5e57600080fd5b50565b613a6a8161333f565b8114613a7557600080fd5b50565b613a818161336b565b8114613a8c57600080fd5b5056fea2646970667358221220e90aee4463b4600aa5f27a965b23d9274da5917ffd6dd969664eddc2ed333a1264736f6c63430008030033",
  "linkReferences": {},
  "deployedLinkReferences": {}
}