{
  "_format": "hh-sol-artifact-1",
  "contractName": "BulksaleV1",
  "sourceName": "contracts/BulksaleV1.sol",
  "abi": [
    {
      "anonymous": false,
      "inputs": [
        {
          "indexed": true,
          "internalType": "address",
          "name": "account",
          "type": "address"
        },
        {
          "indexed": false,
          "internalType": "uint256",
          "name": "userShare",
          "type": "uint256"
        },
        {
          "indexed": false,
          "internalType": "uint256",
          "name": "tokenAmount",
          "type": "uint256"
        }
      ],
      "name": "Claimed",
      "type": "event"
    },
    {
      "anonymous": false,
      "inputs": [
        {
          "indexed": true,
          "internalType": "bytes",
          "name": "abiBytes",
          "type": "bytes"
        }
      ],
      "name": "Initialized",
      "type": "event"
    },
    {
      "anonymous": false,
      "inputs": [
        {
          "indexed": true,
          "internalType": "address",
          "name": "account",
          "type": "address"
        },
        {
          "indexed": false,
          "internalType": "uint256",
          "name": "amount",
          "type": "uint256"
        }
      ],
      "name": "Received",
      "type": "event"
    },
    {
      "inputs": [],
      "name": "END",
      "outputs": [
        {
          "internalType": "uint256",
          "name": "",
          "type": "uint256"
        }
      ],
      "stateMutability": "view",
      "type": "function"
    },
    {
      "inputs": [],
      "name": "ERC20ONSALE",
      "outputs": [
        {
          "internalType": "contract IERC20",
          "name": "",
          "type": "address"
        }
      ],
      "stateMutability": "view",
      "type": "function"
    },
    {
      "inputs": [],
      "name": "EXPIRATION_DURATION",
      "outputs": [
        {
          "internalType": "uint256",
          "name": "",
          "type": "uint256"
        }
      ],
      "stateMutability": "view",
      "type": "function"
    },
    {
      "inputs": [],
      "name": "FEERATEPERMIL",
      "outputs": [
        {
          "internalType": "uint256",
          "name": "",
          "type": "uint256"
        }
      ],
      "stateMutability": "view",
      "type": "function"
    },
    {
      "inputs": [],
      "name": "LOCK_DURATION",
      "outputs": [
        {
          "internalType": "uint256",
          "name": "",
          "type": "uint256"
        }
      ],
      "stateMutability": "view",
      "type": "function"
    },
    {
      "inputs": [],
      "name": "MINIMAL_PROVIDE_AMOUNT",
      "outputs": [
        {
          "internalType": "uint256",
          "name": "",
          "type": "uint256"
        }
      ],
      "stateMutability": "view",
      "type": "function"
    },
    {
      "inputs": [],
      "name": "START",
      "outputs": [
        {
          "internalType": "uint256",
          "name": "",
          "type": "uint256"
        }
      ],
      "stateMutability": "view",
      "type": "function"
    },
    {
      "inputs": [],
      "name": "TOTAL_DISTRIBUTE_AMOUNT",
      "outputs": [
        {
          "internalType": "uint256",
          "name": "",
          "type": "uint256"
        }
      ],
      "stateMutability": "view",
      "type": "function"
    },
    {
      "inputs": [
        {
          "internalType": "address",
          "name": "contributor",
          "type": "address"
        },
        {
          "internalType": "address",
          "name": "recipient",
          "type": "address"
        }
      ],
      "name": "claim",
      "outputs": [],
      "stateMutability": "nonpayable",
      "type": "function"
    },
    {
      "inputs": [],
      "name": "factory",
      "outputs": [
        {
          "internalType": "address",
          "name": "",
          "type": "address"
        }
      ],
      "stateMutability": "view",
      "type": "function"
    },
    {
      "inputs": [
        {
          "internalType": "bytes",
          "name": "abiBytes",
          "type": "bytes"
        }
      ],
      "name": "initialize",
      "outputs": [
        {
          "internalType": "bool",
          "name": "",
          "type": "bool"
        }
      ],
      "stateMutability": "nonpayable",
      "type": "function"
    },
    {
      "inputs": [],
      "name": "owner",
      "outputs": [
        {
          "internalType": "address",
          "name": "",
          "type": "address"
        }
      ],
      "stateMutability": "view",
      "type": "function"
    },
    {
      "inputs": [
        {
          "internalType": "address",
          "name": "",
          "type": "address"
        }
      ],
      "name": "provided",
      "outputs": [
        {
          "internalType": "uint256",
          "name": "",
          "type": "uint256"
        }
      ],
      "stateMutability": "view",
      "type": "function"
    },
    {
      "inputs": [],
      "name": "totalProvided",
      "outputs": [
        {
          "internalType": "uint256",
          "name": "",
          "type": "uint256"
        }
      ],
      "stateMutability": "view",
      "type": "function"
    },
    {
      "inputs": [],
      "name": "withdrawERC20ONSALE",
      "outputs": [],
      "stateMutability": "nonpayable",
      "type": "function"
    },
    {
      "inputs": [],
      "name": "withdrawProvidedETH",
      "outputs": [],
      "stateMutability": "nonpayable",
      "type": "function"
    },
    {
      "inputs": [],
      "name": "withdrawUnclaimedERC20ONSALE",
      "outputs": [],
      "stateMutability": "nonpayable",
      "type": "function"
    },
    {
      "stateMutability": "payable",
      "type": "receive"
    }
  ],
  "bytecode": "0x60806040526000600160006101000a81548160ff0219169083151502179055506360927a6460025562093a806002546200003a91906200008d565b6003556a4abe89ada68453d43000006004556825f273933db570000060055562278d0060065562ed4e00600755601e6009556000600b553480156200007e57600080fd5b50600160008190555062000123565b60006200009a82620000ea565b9150620000a783620000ea565b9250827fffffffffffffffffffffffffffffffffffffffffffffffffffffffffffffffff03821115620000df57620000de620000f4565b5b828201905092915050565b6000819050919050565b7f4e487b7100000000000000000000000000000000000000000000000000000000600052601160045260246000fd5b612cc080620001336000396000f3fe6080604052600436106101025760003560e01c80638da5cb5b11610095578063ba9a061a11610064578063ba9a061a14610453578063c45a01551461047e578063e43608d8146104a9578063efe7a504146104c0578063feb7010d146104eb57610250565b80638da5cb5b146103955780639ddb9ee1146103c0578063aa1cf2a2146103fd578063ab1223071461042857610250565b8063387b1bed116100d1578063387b1bed146102ff578063439fab9114610316578063485d383414610353578063746fd2971461037e57610250565b806302e3cb0b1461025557806321c0b342146102805780632794a63d146102a95780632a0722a6146102d457610250565b366102505742600254111561014c576040517f08c379a0000000000000000000000000000000000000000000000000000000008152600401610143906121f2565b60405180910390fd5b600354421115610191576040517f08c379a000000000000000000000000000000000000000000000000000000000815260040161018890612372565b60405180910390fd5b34600b60008282546101a391906124bc565b9250508190555034600c60003373ffffffffffffffffffffffffffffffffffffffff1673ffffffffffffffffffffffffffffffffffffffff16815260200190815260200160002060008282546101f991906124bc565b925050819055503373ffffffffffffffffffffffffffffffffffffffff167f88a5966d370b9919b20f3e2c13ff65706f196a4e32cc2c12bf57088f885258743460405161024691906123d2565b60405180910390a2005b600080fd5b34801561026157600080fd5b5061026a610516565b60405161027791906123d2565b60405180910390f35b34801561028c57600080fd5b506102a760048036038101906102a29190611b4c565b61051c565b005b3480156102b557600080fd5b506102be610b41565b6040516102cb91906123d2565b60405180910390f35b3480156102e057600080fd5b506102e9610b47565b6040516102f691906123d2565b60405180910390f35b34801561030b57600080fd5b50610314610b4d565b005b34801561032257600080fd5b5061033d60048036038101906103389190611bb1565b610e3b565b60405161034a919061209c565b60405180910390f35b34801561035f57600080fd5b506103686112f3565b60405161037591906123d2565b60405180910390f35b34801561038a57600080fd5b506103936112f9565b005b3480156103a157600080fd5b506103aa6115ae565b6040516103b79190612058565b60405180910390f35b3480156103cc57600080fd5b506103e760048036038101906103e29190611b23565b6115d4565b6040516103f491906123d2565b60405180910390f35b34801561040957600080fd5b506104126115ec565b60405161041f91906123d2565b60405180910390f35b34801561043457600080fd5b5061043d6115f2565b60405161044a91906123d2565b60405180910390f35b34801561045f57600080fd5b506104686115f8565b60405161047591906123d2565b60405180910390f35b34801561048a57600080fd5b506104936115fe565b6040516104a09190612058565b60405180910390f35b3480156104b557600080fd5b506104be611616565b005b3480156104cc57600080fd5b506104d561195f565b6040516104e291906123d2565b60405180910390f35b3480156104f757600080fd5b50610500611965565b60405161050d91906120b7565b60405180910390f35b600b5481565b60026000541415610562576040517f08c379a000000000000000000000000000000000000000000000000000000000815260040161055990612332565b60405180910390fd5b600260008190555060035442116105ae576040517f08c379a00000000000000000000000000000000000000000000000000000000081526004016105a590612192565b60405180910390fd5b6000600c60008473ffffffffffffffffffffffffffffffffffffffff1673ffffffffffffffffffffffffffffffffffffffff1681526020019081526020016000205411610630576040517f08c379a000000000000000000000000000000000000000000000000000000000815260040161062790612132565b60405180910390fd5b6000600c60008473ffffffffffffffffffffffffffffffffffffffff1673ffffffffffffffffffffffffffffffffffffffff1681526020019081526020016000205490506000600c60008573ffffffffffffffffffffffffffffffffffffffff1673ffffffffffffffffffffffffffffffffffffffff16815260200190815260200160002081905550600554600b54101580156106db57506007546002546106d891906124bc565b42105b156109cf576000600b54826004546106f39190612543565b6106fd9190612512565b905060008111610742576040517f08c379a000000000000000000000000000000000000000000000000000000000815260040161073990612292565b60405180910390fd5b8373ffffffffffffffffffffffffffffffffffffffff163373ffffffffffffffffffffffffffffffffffffffff161480156107a857508273ffffffffffffffffffffffffffffffffffffffff168473ffffffffffffffffffffffffffffffffffffffff16145b8061081657508373ffffffffffffffffffffffffffffffffffffffff163373ffffffffffffffffffffffffffffffffffffffff161415801561081557508273ffffffffffffffffffffffffffffffffffffffff168473ffffffffffffffffffffffffffffffffffffffff16145b5b8061088457508373ffffffffffffffffffffffffffffffffffffffff163373ffffffffffffffffffffffffffffffffffffffff1614801561088357508273ffffffffffffffffffffffffffffffffffffffff168473ffffffffffffffffffffffffffffffffffffffff1614155b5b1561098e57600a60009054906101000a900473ffffffffffffffffffffffffffffffffffffffff1673ffffffffffffffffffffffffffffffffffffffff1663a9059cbb84836040518363ffffffff1660e01b81526004016108e6929190612073565b602060405180830381600087803b15801561090057600080fd5b505af1158015610914573d6000803e3d6000fd5b505050506040513d601f19601f820116820180604052508101906109389190611b88565b508273ffffffffffffffffffffffffffffffffffffffff167f987d620f307ff6b94d58743cb7a7509f24071586a77759b77c2d4e29f75a2f9a8383604051610981929190612416565b60405180910390a26109c9565b6040517f08c379a00000000000000000000000000000000000000000000000000000000081526004016109c0906121d2565b60405180910390fd5b50610b34565b600554600b541080156109f057506007546002546109ed91906124bc565b42105b15610af85760008273ffffffffffffffffffffffffffffffffffffffff1682604051610a1b90612043565b60006040518083038185875af1925050503d8060008114610a58576040519150601f19603f3d011682016040523d82523d6000602084013e610a5d565b606091505b5050905080610aa1576040517f08c379a0000000000000000000000000000000000000000000000000000000008152600401610a9890612312565b60405180910390fd5b8273ffffffffffffffffffffffffffffffffffffffff167f987d620f307ff6b94d58743cb7a7509f24071586a77759b77c2d4e29f75a2f9a836000604051610aea9291906123ed565b60405180910390a250610b33565b6040517f08c379a0000000000000000000000000000000000000000000000000000000008152600401610b2a90612392565b60405180910390fd5b5b5060016000819055505050565b60075481565b60055481565b600860009054906101000a900473ffffffffffffffffffffffffffffffffffffffff1673ffffffffffffffffffffffffffffffffffffffff163373ffffffffffffffffffffffffffffffffffffffff1614610bdd576040517f08c379a0000000000000000000000000000000000000000000000000000000008152600401610bd4906122d2565b60405180910390fd5b60026000541415610c23576040517f08c379a0000000000000000000000000000000000000000000000000000000008152600401610c1a90612332565b60405180910390fd5b60026000819055504260035410610c6f576040517f08c379a0000000000000000000000000000000000000000000000000000000008152600401610c6690612272565b60405180910390fd5b600554600b5410610cb5576040517f08c379a0000000000000000000000000000000000000000000000000000000008152600401610cac90612152565b60405180910390fd5b600a60009054906101000a900473ffffffffffffffffffffffffffffffffffffffff1673ffffffffffffffffffffffffffffffffffffffff1663a9059cbb600860009054906101000a900473ffffffffffffffffffffffffffffffffffffffff16600a60009054906101000a900473ffffffffffffffffffffffffffffffffffffffff1673ffffffffffffffffffffffffffffffffffffffff166370a08231306040518263ffffffff1660e01b8152600401610d719190612058565b60206040518083038186803b158015610d8957600080fd5b505afa158015610d9d573d6000803e3d6000fd5b505050506040513d601f19601f82011682018060405250810190610dc19190611c1c565b6040518363ffffffff1660e01b8152600401610dde929190612073565b602060405180830381600087803b158015610df857600080fd5b505af1158015610e0c573d6000803e3d6000fd5b505050506040513d601f19601f82011682018060405250810190610e309190611b88565b506001600081905550565b6000600160009054906101000a900460ff1615610e8d576040517f08c379a0000000000000000000000000000000000000000000000000000000008152600401610e84906122b2565b60405180910390fd5b735fbdb2315678afecb367f032d93f642f64180aa373ffffffffffffffffffffffffffffffffffffffff163373ffffffffffffffffffffffffffffffffffffffff1614610f0f576040517f08c379a0000000000000000000000000000000000000000000000000000000008152600401610f06906120d2565b60405180910390fd5b600082806020019051810190610f259190611bf2565b90508060200151421115610f6e576040517f08c379a0000000000000000000000000000000000000000000000000000000008152600401610f65906122f2565b60405180910390fd5b6201518081604001511015610fb8576040517f08c379a0000000000000000000000000000000000000000000000000000000008152600401610faf90612112565b60405180910390fd5b60008160a0015111610fff576040517f08c379a0000000000000000000000000000000000000000000000000000000008152600401610ff690612252565b60405180910390fd5b60008160c0015111611046576040517f08c379a000000000000000000000000000000000000000000000000000000000815260040161103d906120f2565b60405180910390fd5b60008160600151101561108e576040517f08c379a0000000000000000000000000000000000000000000000000000000008152600401611085906123b2565b60405180910390fd5b62278d00816080015110156110d8576040517f08c379a00000000000000000000000000000000000000000000000000000000081526004016110cf90612352565b60405180910390fd5b600073ffffffffffffffffffffffffffffffffffffffff168160e0015173ffffffffffffffffffffffffffffffffffffffff16141561114c576040517f08c379a0000000000000000000000000000000000000000000000000000000008152600401611143906121b2565b60405180910390fd5b80610100015160011115801561116757506064816101000151105b6111a6576040517f08c379a000000000000000000000000000000000000000000000000000000000815260040161119d90612212565b60405180910390fd5b8060000151600a60006101000a81548173ffffffffffffffffffffffffffffffffffffffff021916908373ffffffffffffffffffffffffffffffffffffffff16021790555080602001516002819055508060400151816020015161120a91906124bc565b6003819055508060a001516004819055508060c00151600581905550806060015160068190555080608001516007819055508060e00151600860006101000a81548173ffffffffffffffffffffffffffffffffffffffff021916908373ffffffffffffffffffffffffffffffffffffffff1602179055508061010001516009819055508260405161129b919061202c565b60405180910390207f5e399709a9ff1709f6f6be7268c8e5c3eeaa9da9cd9797e78f07ef287c3717fe60405160405180910390a260018060006101000a81548160ff0219169083151502179055506001915050919050565b60065481565b600860009054906101000a900473ffffffffffffffffffffffffffffffffffffffff1673ffffffffffffffffffffffffffffffffffffffff163373ffffffffffffffffffffffffffffffffffffffff1614611389576040517f08c379a0000000000000000000000000000000000000000000000000000000008152600401611380906122d2565b60405180910390fd5b600260005414156113cf576040517f08c379a00000000000000000000000000000000000000000000000000000000081526004016113c690612332565b60405180910390fd5b6002600081905550426006546003546113e891906124bc565b10611428576040517f08c379a000000000000000000000000000000000000000000000000000000000815260040161141f90612232565b60405180910390fd5b600a60009054906101000a900473ffffffffffffffffffffffffffffffffffffffff1673ffffffffffffffffffffffffffffffffffffffff1663a9059cbb600860009054906101000a900473ffffffffffffffffffffffffffffffffffffffff16600a60009054906101000a900473ffffffffffffffffffffffffffffffffffffffff1673ffffffffffffffffffffffffffffffffffffffff166370a08231306040518263ffffffff1660e01b81526004016114e49190612058565b60206040518083038186803b1580156114fc57600080fd5b505afa158015611510573d6000803e3d6000fd5b505050506040513d601f19601f820116820180604052508101906115349190611c1c565b6040518363ffffffff1660e01b8152600401611551929190612073565b602060405180830381600087803b15801561156b57600080fd5b505af115801561157f573d6000803e3d6000fd5b505050506040513d601f19601f820116820180604052508101906115a39190611b88565b506001600081905550565b600860009054906101000a900473ffffffffffffffffffffffffffffffffffffffff1681565b600c6020528060005260406000206000915090505481565b60045481565b60095481565b60025481565b735fbdb2315678afecb367f032d93f642f64180aa381565b600860009054906101000a900473ffffffffffffffffffffffffffffffffffffffff1673ffffffffffffffffffffffffffffffffffffffff163373ffffffffffffffffffffffffffffffffffffffff16146116a6576040517f08c379a000000000000000000000000000000000000000000000000000000000815260040161169d906122d2565b60405180910390fd5b600260005414156116ec576040517f08c379a00000000000000000000000000000000000000000000000000000000081526004016116e390612332565b60405180910390fd5b60026000819055504260035410611738576040517f08c379a000000000000000000000000000000000000000000000000000000000815260040161172f90612272565b60405180910390fd5b600554600b54101561177f576040517f08c379a000000000000000000000000000000000000000000000000000000000815260040161177690612172565b60405180910390fd5b6000600860009054906101000a900473ffffffffffffffffffffffffffffffffffffffff1673ffffffffffffffffffffffffffffffffffffffff166103e86009546103e86117cd919061259d565b476117d89190612543565b6117e29190612512565b6040516117ee90612043565b60006040518083038185875af1925050503d806000811461182b576040519150601f19603f3d011682016040523d82523d6000602084013e611830565b606091505b5050905080611874576040517f08c379a000000000000000000000000000000000000000000000000000000000815260040161186b90612312565b60405180910390fd5b6000735fbdb2315678afecb367f032d93f642f64180aa373ffffffffffffffffffffffffffffffffffffffff166103e8600954476118b29190612543565b6118bc9190612512565b6161a8906040516118cc90612043565b600060405180830381858888f193505050503d806000811461190a576040519150601f19603f3d011682016040523d82523d6000602084013e61190f565b606091505b5050905080611953576040517f08c379a000000000000000000000000000000000000000000000000000000000815260040161194a90612312565b60405180910390fd5b50506001600081905550565b60035481565b600a60009054906101000a900473ffffffffffffffffffffffffffffffffffffffff1681565b600061199e61199984612464565b61243f565b9050828152602081018484840111156119b657600080fd5b6119c184828561264f565b509392505050565b6000813590506119d881612c45565b92915050565b6000815190506119ed81612c45565b92915050565b600081519050611a0281612c5c565b92915050565b600082601f830112611a1957600080fd5b8135611a2984826020860161198b565b91505092915050565b60006101208284031215611a4557600080fd5b611a5061012061243f565b90506000611a60848285016119de565b6000830152506020611a7484828501611b0e565b6020830152506040611a8884828501611b0e565b6040830152506060611a9c84828501611b0e565b6060830152506080611ab084828501611b0e565b60808301525060a0611ac484828501611b0e565b60a08301525060c0611ad884828501611b0e565b60c08301525060e0611aec848285016119de565b60e083015250610100611b0184828501611b0e565b6101008301525092915050565b600081519050611b1d81612c73565b92915050565b600060208284031215611b3557600080fd5b6000611b43848285016119c9565b91505092915050565b60008060408385031215611b5f57600080fd5b6000611b6d858286016119c9565b9250506020611b7e858286016119c9565b9150509250929050565b600060208284031215611b9a57600080fd5b6000611ba8848285016119f3565b91505092915050565b600060208284031215611bc357600080fd5b600082013567ffffffffffffffff811115611bdd57600080fd5b611be984828501611a08565b91505092915050565b60006101208284031215611c0557600080fd5b6000611c1384828501611a32565b91505092915050565b600060208284031215611c2e57600080fd5b6000611c3c84828501611b0e565b91505092915050565b611c4e816125d1565b82525050565b611c5d816125e3565b82525050565b6000611c6e82612495565b611c7881856124a0565b9350611c8881856020860161265e565b80840191505092915050565b611c9d81612619565b82525050565b611cac8161263d565b82525050565b6000611cbf6018836124ab565b9150611cca82612760565b602082019050919050565b6000611ce26021836124ab565b9150611ced82612789565b604082019050919050565b6000611d05601b836124ab565b9150611d10826127d8565b602082019050919050565b6000611d286020836124ab565b9150611d3382612801565b602082019050919050565b6000611d4b6026836124ab565b9150611d568261282a565b604082019050919050565b6000611d6e602a836124ab565b9150611d7982612879565b604082019050919050565b6000611d916025836124ab565b9150611d9c826128c8565b604082019050919050565b6000611db46013836124ab565b9150611dbf82612917565b602082019050919050565b6000611dd7603a836124ab565b9150611de282612940565b604082019050919050565b6000611dfa6020836124ab565b9150611e058261298f565b602082019050919050565b6000611e1d6018836124ab565b9150611e28826129b8565b602082019050919050565b6000611e40601a836124ab565b9150611e4b826129e1565b602082019050919050565b6000611e63601e836124ab565b9150611e6e82612a0a565b602082019050919050565b6000611e86601e836124ab565b9150611e9182612a33565b602082019050919050565b6000611ea9601a836124ab565b9150611eb482612a5c565b602082019050919050565b6000611ecc6000836124a0565b9150611ed782612a85565b600082019050919050565b6000611eef602a836124ab565b9150611efa82612a88565b604082019050919050565b6000611f126016836124ab565b9150611f1d82612ad7565b602082019050919050565b6000611f35601b836124ab565b9150611f4082612b00565b602082019050919050565b6000611f58600f836124ab565b9150611f6382612b29565b602082019050919050565b6000611f7b601f836124ab565b9150611f8682612b52565b602082019050919050565b6000611f9e602d836124ab565b9150611fa982612b7b565b604082019050919050565b6000611fc1601e836124ab565b9150611fcc82612bca565b602082019050919050565b6000611fe46020836124ab565b9150611fef82612bf3565b602082019050919050565b60006120076018836124ab565b915061201282612c1c565b602082019050919050565b6120268161260f565b82525050565b60006120388284611c63565b915081905092915050565b600061204e82611ebf565b9150819050919050565b600060208201905061206d6000830184611c45565b92915050565b60006040820190506120886000830185611c45565b612095602083018461201d565b9392505050565b60006020820190506120b16000830184611c54565b92915050565b60006020820190506120cc6000830184611c94565b92915050565b600060208201905081810360008301526120eb81611cb2565b9050919050565b6000602082019050818103600083015261210b81611cd5565b9050919050565b6000602082019050818103600083015261212b81611cf8565b9050919050565b6000602082019050818103600083015261214b81611d1b565b9050919050565b6000602082019050818103600083015261216b81611d3e565b9050919050565b6000602082019050818103600083015261218b81611d61565b9050919050565b600060208201905081810360008301526121ab81611d84565b9050919050565b600060208201905081810360008301526121cb81611da7565b9050919050565b600060208201905081810360008301526121eb81611dca565b9050919050565b6000602082019050818103600083015261220b81611ded565b9050919050565b6000602082019050818103600083015261222b81611e10565b9050919050565b6000602082019050818103600083015261224b81611e33565b9050919050565b6000602082019050818103600083015261226b81611e56565b9050919050565b6000602082019050818103600083015261228b81611e79565b9050919050565b600060208201905081810360008301526122ab81611e9c565b9050919050565b600060208201905081810360008301526122cb81611ee2565b9050919050565b600060208201905081810360008301526122eb81611f05565b9050919050565b6000602082019050818103600083015261230b81611f28565b9050919050565b6000602082019050818103600083015261232b81611f4b565b9050919050565b6000602082019050818103600083015261234b81611f6e565b9050919050565b6000602082019050818103600083015261236b81611f91565b9050919050565b6000602082019050818103600083015261238b81611fb4565b9050919050565b600060208201905081810360008301526123ab81611fd7565b9050919050565b600060208201905081810360008301526123cb81611ffa565b9050919050565b60006020820190506123e7600083018461201d565b92915050565b6000604082019050612402600083018561201d565b61240f6020830184611ca3565b9392505050565b600060408201905061242b600083018561201d565b612438602083018461201d565b9392505050565b600061244961245a565b90506124558282612691565b919050565b6000604051905090565b600067ffffffffffffffff82111561247f5761247e612720565b5b6124888261274f565b9050602081019050919050565b600081519050919050565b600081905092915050565b600082825260208201905092915050565b60006124c78261260f565b91506124d28361260f565b9250827fffffffffffffffffffffffffffffffffffffffffffffffffffffffffffffffff03821115612507576125066126c2565b5b828201905092915050565b600061251d8261260f565b91506125288361260f565b925082612538576125376126f1565b5b828204905092915050565b600061254e8261260f565b91506125598361260f565b9250817fffffffffffffffffffffffffffffffffffffffffffffffffffffffffffffffff0483118215151615612592576125916126c2565b5b828202905092915050565b60006125a88261260f565b91506125b38361260f565b9250828210156125c6576125c56126c2565b5b828203905092915050565b60006125dc826125ef565b9050919050565b60008115159050919050565b600073ffffffffffffffffffffffffffffffffffffffff82169050919050565b6000819050919050565b60006126248261262b565b9050919050565b6000612636826125ef565b9050919050565b60006126488261260f565b9050919050565b82818337600083830152505050565b60005b8381101561267c578082015181840152602081019050612661565b8381111561268b576000848401525b50505050565b61269a8261274f565b810181811067ffffffffffffffff821117156126b9576126b8612720565b5b80604052505050565b7f4e487b7100000000000000000000000000000000000000000000000000000000600052601160045260246000fd5b7f4e487b7100000000000000000000000000000000000000000000000000000000600052601260045260246000fd5b7f4e487b7100000000000000000000000000000000000000000000000000000000600052604160045260246000fd5b6000601f19601f8301169050919050565b7f596f7520617265206e6f742074686520466163746f72792e0000000000000000600082015250565b7f6d696e696d616c2070726f7669646520616d6f756e7420697320696e76616c6960008201527f6400000000000000000000000000000000000000000000000000000000000000602082015250565b7f6576656e74206475726174696f6e20697320746f6f2073686f72740000000000600082015250565b7f596f7520646f6e2774206861766520616e7920636f6e747269627574696f6e2e600082015250565b7f54686520726571756972656420616d6f756e7420686173206265656e2070726f60008201527f7669646564210000000000000000000000000000000000000000000000000000602082015250565b7f54686520726571756972656420616d6f756e7420686173206e6f74206265656e60008201527f2070726f76696465642100000000000000000000000000000000000000000000602082015250565b7f4561726c7920746f20636c61696d2e2053616c65206973206e6f742066696e6960008201527f736865642e000000000000000000000000000000000000000000000000000000602082015250565b7f6f776e6572206d75737420626520746865726500000000000000000000000000600082015250565b7f73656e64657220697320636c61696d696e6720736f6d656f6e65206f7468657260008201527f27732066756e6420666f7220736f6d656f6e65206f746865722e000000000000602082015250565b7f546865206f66666572696e6720686173206e6f74207374617274656420796574600082015250565b7f6665652072617465206973206f7574206f662072616e67650000000000000000600082015250565b7f5769746864726177616c20756e617661696c61626c6520796574000000000000600082015250565b7f646973747269627574696f6e20616d6f756e7420697320696e76616c69640000600082015250565b7f546865206f66666572696e67206d75737420626520636f6d706c657465640000600082015250565b7f53686172652063616c63756c6174696f6e206973206275676779000000000000600082015250565b50565b7f5468697320636f6e74726163742068617320616c7265616479206265656e206960008201527f6e697469616c697a656400000000000000000000000000000000000000000000602082015250565b7f596f7520617265206e6f7420746865206f776e65722e00000000000000000000600082015250565b7f7374617274206d75737420626520696e20746865206675747572650000000000600082015250565b7f7472616e73666572206661696c65640000000000000000000000000000000000600082015250565b7f5265656e7472616e637947756172643a207265656e7472616e742063616c6c00600082015250565b7f65787069726174696f6e206475726174696f6e206d757374206265206d6f726560008201527f207468616e203330206461797300000000000000000000000000000000000000602082015250565b7f546865206f66666572696e672068617320616c726561647920656e6465640000600082015250565b7f436c61696d61626c65207465726d20686173206265656e20657870697265642e600082015250565b7f6c6f636b206475726174696f6e20697320696e76616c69640000000000000000600082015250565b612c4e816125d1565b8114612c5957600080fd5b50565b612c65816125e3565b8114612c7057600080fd5b50565b612c7c8161260f565b8114612c8757600080fd5b5056fea2646970667358221220defc042afa661ff3748e9f8585088c8d3dfc563db57f4da169785595b628762c64736f6c63430008030033",
  "linkReferences": {},
  "deployedLinkReferences": {}
}