{
  "address": "0xFF3B1A13eceff8e564a59d2BdF13BF4567771c92",
  "abi": [
    {
      "anonymous": false,
      "inputs": [
        {
          "indexed": true,
          "internalType": "address",
          "name": "account",
          "type": "address"
        },
        {
          "indexed": false,
          "internalType": "uint256",
          "name": "userShare",
          "type": "uint256"
        },
        {
          "indexed": false,
          "internalType": "uint256",
          "name": "erc20allocation",
          "type": "uint256"
        }
      ],
      "name": "Claimed",
      "type": "event"
    },
    {
      "anonymous": false,
      "inputs": [
        {
          "indexed": true,
          "internalType": "bytes",
          "name": "abiBytes",
          "type": "bytes"
        }
      ],
      "name": "Initialized",
      "type": "event"
    },
    {
      "anonymous": false,
      "inputs": [
        {
          "indexed": true,
          "internalType": "address",
          "name": "account",
          "type": "address"
        },
        {
          "indexed": false,
          "internalType": "uint256",
          "name": "amount",
          "type": "uint256"
        }
      ],
      "name": "Received",
      "type": "event"
    },
    {
      "inputs": [],
      "name": "END",
      "outputs": [
        {
          "internalType": "uint256",
          "name": "",
          "type": "uint256"
        }
      ],
      "stateMutability": "view",
      "type": "function"
    },
    {
      "inputs": [],
      "name": "ERC20ONSALE",
      "outputs": [
        {
          "internalType": "contract IERC20",
          "name": "",
          "type": "address"
        }
      ],
      "stateMutability": "view",
      "type": "function"
    },
    {
      "inputs": [],
      "name": "EXPIRATION_DURATION",
      "outputs": [
        {
          "internalType": "uint256",
          "name": "",
          "type": "uint256"
        }
      ],
      "stateMutability": "view",
      "type": "function"
    },
    {
      "inputs": [],
      "name": "FEERATEPERMIL",
      "outputs": [
        {
          "internalType": "uint256",
          "name": "",
          "type": "uint256"
        }
      ],
      "stateMutability": "view",
      "type": "function"
    },
    {
      "inputs": [],
      "name": "LOCK_DURATION",
      "outputs": [
        {
          "internalType": "uint256",
          "name": "",
          "type": "uint256"
        }
      ],
      "stateMutability": "view",
      "type": "function"
    },
    {
      "inputs": [],
      "name": "MINIMAL_PROVIDE_AMOUNT",
      "outputs": [
        {
          "internalType": "uint256",
          "name": "",
          "type": "uint256"
        }
      ],
      "stateMutability": "view",
      "type": "function"
    },
    {
      "inputs": [],
      "name": "START",
      "outputs": [
        {
          "internalType": "uint256",
          "name": "",
          "type": "uint256"
        }
      ],
      "stateMutability": "view",
      "type": "function"
    },
    {
      "inputs": [],
      "name": "TOTAL_DISTRIBUTE_AMOUNT",
      "outputs": [
        {
          "internalType": "uint256",
          "name": "",
          "type": "uint256"
        }
      ],
      "stateMutability": "view",
      "type": "function"
    },
    {
      "inputs": [
        {
          "internalType": "address",
          "name": "contributor",
          "type": "address"
        },
        {
          "internalType": "address",
          "name": "recipient",
          "type": "address"
        }
      ],
      "name": "claim",
      "outputs": [],
      "stateMutability": "nonpayable",
      "type": "function"
    },
    {
      "inputs": [],
      "name": "factory",
      "outputs": [
        {
          "internalType": "address",
          "name": "",
          "type": "address"
        }
      ],
      "stateMutability": "view",
      "type": "function"
    },
    {
      "inputs": [
        {
          "internalType": "bytes",
          "name": "abiBytes",
          "type": "bytes"
        }
      ],
      "name": "initialize",
      "outputs": [
        {
          "internalType": "bool",
          "name": "",
          "type": "bool"
        }
      ],
      "stateMutability": "nonpayable",
      "type": "function"
    },
    {
      "inputs": [],
      "name": "owner",
      "outputs": [
        {
          "internalType": "address",
          "name": "",
          "type": "address"
        }
      ],
      "stateMutability": "view",
      "type": "function"
    },
    {
      "inputs": [
        {
          "internalType": "address",
          "name": "",
          "type": "address"
        }
      ],
      "name": "provided",
      "outputs": [
        {
          "internalType": "uint256",
          "name": "",
          "type": "uint256"
        }
      ],
      "stateMutability": "view",
      "type": "function"
    },
    {
      "inputs": [],
      "name": "totalProvided",
      "outputs": [
        {
          "internalType": "uint256",
          "name": "",
          "type": "uint256"
        }
      ],
      "stateMutability": "view",
      "type": "function"
    },
    {
      "inputs": [],
      "name": "withdrawERC20ONSALE",
      "outputs": [],
      "stateMutability": "nonpayable",
      "type": "function"
    },
    {
      "inputs": [],
      "name": "withdrawProvidedETH",
      "outputs": [],
      "stateMutability": "nonpayable",
      "type": "function"
    },
    {
      "inputs": [],
      "name": "withdrawUnclaimedERC20ONSALE",
      "outputs": [],
      "stateMutability": "nonpayable",
      "type": "function"
    },
    {
      "stateMutability": "payable",
      "type": "receive"
    }
  ],
  "transactionHash": "0xee405ad727ef095e6476ec01cb4a1b5a9f531a2b587b72751d3bf32db2bd5659",
  "args": [],
  "solcInputHash": "66dda650ba3050eed0af1b8549109da7",
  "bytecode": "0x60806040526000600160006101000a81548160ff02191690831515021790555062093a8060025462000032919062000085565b6003556a4abe89ada68453d43000006004556825f273933db570000060055562278d0060065562ed4e00600755601e6009556000600b553480156200007657600080fd5b5060016000819055506200011b565b60006200009282620000e2565b91506200009f83620000e2565b9250827fffffffffffffffffffffffffffffffffffffffffffffffffffffffffffffffff03821115620000d757620000d6620000ec565b5b828201905092915050565b6000819050919050565b7f4e487b7100000000000000000000000000000000000000000000000000000000600052601160045260246000fd5b612c67806200012b6000396000f3fe6080604052600436106101025760003560e01c80638da5cb5b11610095578063ba9a061a11610064578063ba9a061a14610453578063c45a01551461047e578063e43608d8146104a9578063efe7a504146104c0578063feb7010d146104eb57610250565b80638da5cb5b146103955780639ddb9ee1146103c0578063aa1cf2a2146103fd578063ab1223071461042857610250565b8063387b1bed116100d1578063387b1bed146102ff578063439fab9114610316578063485d383414610353578063746fd2971461037e57610250565b806302e3cb0b1461025557806321c0b342146102805780632794a63d146102a95780632a0722a6146102d457610250565b366102505742600254111561014c576040517f08c379a0000000000000000000000000000000000000000000000000000000008152600401610143906121e2565b60405180910390fd5b600354421115610191576040517f08c379a000000000000000000000000000000000000000000000000000000000815260040161018890612342565b60405180910390fd5b34600b60008282546101a3919061248c565b9250508190555034600c60003373ffffffffffffffffffffffffffffffffffffffff1673ffffffffffffffffffffffffffffffffffffffff16815260200190815260200160002060008282546101f9919061248c565b925050819055503373ffffffffffffffffffffffffffffffffffffffff167f88a5966d370b9919b20f3e2c13ff65706f196a4e32cc2c12bf57088f885258743460405161024691906123a2565b60405180910390a2005b600080fd5b34801561026157600080fd5b5061026a610516565b60405161027791906123a2565b60405180910390f35b34801561028c57600080fd5b506102a760048036038101906102a29190611b5f565b61051c565b005b3480156102b557600080fd5b506102be610b0b565b6040516102cb91906123a2565b60405180910390f35b3480156102e057600080fd5b506102e9610b11565b6040516102f691906123a2565b60405180910390f35b34801561030b57600080fd5b50610314610b17565b005b34801561032257600080fd5b5061033d60048036038101906103389190611bc4565b610e05565b60405161034a919061208c565b60405180910390f35b34801561035f57600080fd5b506103686112bd565b60405161037591906123a2565b60405180910390f35b34801561038a57600080fd5b506103936112c3565b005b3480156103a157600080fd5b506103aa611578565b6040516103b79190612048565b60405180910390f35b3480156103cc57600080fd5b506103e760048036038101906103e29190611b36565b61159e565b6040516103f491906123a2565b60405180910390f35b34801561040957600080fd5b506104126115b6565b60405161041f91906123a2565b60405180910390f35b34801561043457600080fd5b5061043d6115bc565b60405161044a91906123a2565b60405180910390f35b34801561045f57600080fd5b506104686115c2565b60405161047591906123a2565b60405180910390f35b34801561048a57600080fd5b506104936115c8565b6040516104a09190612048565b60405180910390f35b3480156104b557600080fd5b506104be6115e0565b005b3480156104cc57600080fd5b506104d5611929565b6040516104e291906123a2565b60405180910390f35b3480156104f757600080fd5b5061050061192f565b60405161050d91906120a7565b60405180910390f35b600b5481565b60026000541415610562576040517f08c379a000000000000000000000000000000000000000000000000000000000815260040161055990612302565b60405180910390fd5b600260008190555060035442116105ae576040517f08c379a00000000000000000000000000000000000000000000000000000000081526004016105a590612182565b60405180910390fd5b6000600c60008473ffffffffffffffffffffffffffffffffffffffff1673ffffffffffffffffffffffffffffffffffffffff1681526020019081526020016000205411610630576040517f08c379a000000000000000000000000000000000000000000000000000000000815260040161062790612122565b60405180910390fd5b6000600c60008473ffffffffffffffffffffffffffffffffffffffff1673ffffffffffffffffffffffffffffffffffffffff1681526020019081526020016000205490506000600c60008573ffffffffffffffffffffffffffffffffffffffff1673ffffffffffffffffffffffffffffffffffffffff1681526020019081526020016000208190555060006106ca82600b54600454611955565b905060006007546002546106de919061248c565b421090506000600554600b5410159050600080841490508280156106ff5750815b8015610709575080155b1561099a578673ffffffffffffffffffffffffffffffffffffffff163373ffffffffffffffffffffffffffffffffffffffff1614801561077457508573ffffffffffffffffffffffffffffffffffffffff168773ffffffffffffffffffffffffffffffffffffffff16145b806107e257508673ffffffffffffffffffffffffffffffffffffffff163373ffffffffffffffffffffffffffffffffffffffff16141580156107e157508573ffffffffffffffffffffffffffffffffffffffff168773ffffffffffffffffffffffffffffffffffffffff16145b5b8061085057508673ffffffffffffffffffffffffffffffffffffffff163373ffffffffffffffffffffffffffffffffffffffff1614801561084f57508573ffffffffffffffffffffffffffffffffffffffff168773ffffffffffffffffffffffffffffffffffffffff1614155b5b1561095a57600a60009054906101000a900473ffffffffffffffffffffffffffffffffffffffff1673ffffffffffffffffffffffffffffffffffffffff1663a9059cbb87866040518363ffffffff1660e01b81526004016108b2929190612063565b602060405180830381600087803b1580156108cc57600080fd5b505af11580156108e0573d6000803e3d6000fd5b505050506040513d601f19601f820116820180604052508101906109049190611b9b565b508573ffffffffffffffffffffffffffffffffffffffff167f987d620f307ff6b94d58743cb7a7509f24071586a77759b77c2d4e29f75a2f9a868660405161094d9291906123e6565b60405180910390a2610995565b6040517f08c379a000000000000000000000000000000000000000000000000000000000815260040161098c906121c2565b60405180910390fd5b610afa565b8280156109a5575081155b806109b657508280156109b55750805b5b15610abe5760008773ffffffffffffffffffffffffffffffffffffffff16866040516109e190612033565b60006040518083038185875af1925050503d8060008114610a1e576040519150601f19603f3d011682016040523d82523d6000602084013e610a23565b606091505b5050905080610a67576040517f08c379a0000000000000000000000000000000000000000000000000000000008152600401610a5e906122e2565b60405180910390fd5b8773ffffffffffffffffffffffffffffffffffffffff167f987d620f307ff6b94d58743cb7a7509f24071586a77759b77c2d4e29f75a2f9a876000604051610ab09291906123bd565b60405180910390a250610af9565b6040517f08c379a0000000000000000000000000000000000000000000000000000000008152600401610af090612362565b60405180910390fd5b5b505050505060016000819055505050565b60075481565b60055481565b600860009054906101000a900473ffffffffffffffffffffffffffffffffffffffff1673ffffffffffffffffffffffffffffffffffffffff163373ffffffffffffffffffffffffffffffffffffffff1614610ba7576040517f08c379a0000000000000000000000000000000000000000000000000000000008152600401610b9e906122a2565b60405180910390fd5b60026000541415610bed576040517f08c379a0000000000000000000000000000000000000000000000000000000008152600401610be490612302565b60405180910390fd5b60026000819055504260035410610c39576040517f08c379a0000000000000000000000000000000000000000000000000000000008152600401610c3090612262565b60405180910390fd5b600554600b5410610c7f576040517f08c379a0000000000000000000000000000000000000000000000000000000008152600401610c7690612142565b60405180910390fd5b600a60009054906101000a900473ffffffffffffffffffffffffffffffffffffffff1673ffffffffffffffffffffffffffffffffffffffff1663a9059cbb600860009054906101000a900473ffffffffffffffffffffffffffffffffffffffff16600a60009054906101000a900473ffffffffffffffffffffffffffffffffffffffff1673ffffffffffffffffffffffffffffffffffffffff166370a08231306040518263ffffffff1660e01b8152600401610d3b9190612048565b60206040518083038186803b158015610d5357600080fd5b505afa158015610d67573d6000803e3d6000fd5b505050506040513d601f19601f82011682018060405250810190610d8b9190611c2f565b6040518363ffffffff1660e01b8152600401610da8929190612063565b602060405180830381600087803b158015610dc257600080fd5b505af1158015610dd6573d6000803e3d6000fd5b505050506040513d601f19601f82011682018060405250810190610dfa9190611b9b565b506001600081905550565b6000600160009054906101000a900460ff1615610e57576040517f08c379a0000000000000000000000000000000000000000000000000000000008152600401610e4e90612282565b60405180910390fd5b735fbdb2315678afecb367f032d93f642f64180aa373ffffffffffffffffffffffffffffffffffffffff163373ffffffffffffffffffffffffffffffffffffffff1614610ed9576040517f08c379a0000000000000000000000000000000000000000000000000000000008152600401610ed0906120c2565b60405180910390fd5b600082806020019051810190610eef9190611c05565b90508060200151421115610f38576040517f08c379a0000000000000000000000000000000000000000000000000000000008152600401610f2f906122c2565b60405180910390fd5b6201518081604001511015610f82576040517f08c379a0000000000000000000000000000000000000000000000000000000008152600401610f7990612102565b60405180910390fd5b60008160a0015111610fc9576040517f08c379a0000000000000000000000000000000000000000000000000000000008152600401610fc090612242565b60405180910390fd5b60008160c0015111611010576040517f08c379a0000000000000000000000000000000000000000000000000000000008152600401611007906120e2565b60405180910390fd5b600081606001511015611058576040517f08c379a000000000000000000000000000000000000000000000000000000000815260040161104f90612382565b60405180910390fd5b62278d00816080015110156110a2576040517f08c379a000000000000000000000000000000000000000000000000000000000815260040161109990612322565b60405180910390fd5b600073ffffffffffffffffffffffffffffffffffffffff168160e0015173ffffffffffffffffffffffffffffffffffffffff161415611116576040517f08c379a000000000000000000000000000000000000000000000000000000000815260040161110d906121a2565b60405180910390fd5b80610100015160011115801561113157506064816101000151105b611170576040517f08c379a000000000000000000000000000000000000000000000000000000000815260040161116790612202565b60405180910390fd5b8060000151600a60006101000a81548173ffffffffffffffffffffffffffffffffffffffff021916908373ffffffffffffffffffffffffffffffffffffffff1602179055508060200151600281905550806040015181602001516111d4919061248c565b6003819055508060a001516004819055508060c00151600581905550806060015160068190555080608001516007819055508060e00151600860006101000a81548173ffffffffffffffffffffffffffffffffffffffff021916908373ffffffffffffffffffffffffffffffffffffffff16021790555080610100015160098190555082604051611265919061201c565b60405180910390207f5e399709a9ff1709f6f6be7268c8e5c3eeaa9da9cd9797e78f07ef287c3717fe60405160405180910390a260018060006101000a81548160ff0219169083151502179055506001915050919050565b60065481565b600860009054906101000a900473ffffffffffffffffffffffffffffffffffffffff1673ffffffffffffffffffffffffffffffffffffffff163373ffffffffffffffffffffffffffffffffffffffff1614611353576040517f08c379a000000000000000000000000000000000000000000000000000000000815260040161134a906122a2565b60405180910390fd5b60026000541415611399576040517f08c379a000000000000000000000000000000000000000000000000000000000815260040161139090612302565b60405180910390fd5b6002600081905550426006546003546113b2919061248c565b106113f2576040517f08c379a00000000000000000000000000000000000000000000000000000000081526004016113e990612222565b60405180910390fd5b600a60009054906101000a900473ffffffffffffffffffffffffffffffffffffffff1673ffffffffffffffffffffffffffffffffffffffff1663a9059cbb600860009054906101000a900473ffffffffffffffffffffffffffffffffffffffff16600a60009054906101000a900473ffffffffffffffffffffffffffffffffffffffff1673ffffffffffffffffffffffffffffffffffffffff166370a08231306040518263ffffffff1660e01b81526004016114ae9190612048565b60206040518083038186803b1580156114c657600080fd5b505afa1580156114da573d6000803e3d6000fd5b505050506040513d601f19601f820116820180604052508101906114fe9190611c2f565b6040518363ffffffff1660e01b815260040161151b929190612063565b602060405180830381600087803b15801561153557600080fd5b505af1158015611549573d6000803e3d6000fd5b505050506040513d601f19601f8201168201806040525081019061156d9190611b9b565b506001600081905550565b600860009054906101000a900473ffffffffffffffffffffffffffffffffffffffff1681565b600c6020528060005260406000206000915090505481565b60045481565b60095481565b60025481565b735fbdb2315678afecb367f032d93f642f64180aa381565b600860009054906101000a900473ffffffffffffffffffffffffffffffffffffffff1673ffffffffffffffffffffffffffffffffffffffff163373ffffffffffffffffffffffffffffffffffffffff1614611670576040517f08c379a0000000000000000000000000000000000000000000000000000000008152600401611667906122a2565b60405180910390fd5b600260005414156116b6576040517f08c379a00000000000000000000000000000000000000000000000000000000081526004016116ad90612302565b60405180910390fd5b60026000819055504260035410611702576040517f08c379a00000000000000000000000000000000000000000000000000000000081526004016116f990612262565b60405180910390fd5b600554600b541015611749576040517f08c379a000000000000000000000000000000000000000000000000000000000815260040161174090612162565b60405180910390fd5b6000600860009054906101000a900473ffffffffffffffffffffffffffffffffffffffff1673ffffffffffffffffffffffffffffffffffffffff166103e86009546103e8611797919061256d565b476117a29190612513565b6117ac91906124e2565b6040516117b890612033565b60006040518083038185875af1925050503d80600081146117f5576040519150601f19603f3d011682016040523d82523d6000602084013e6117fa565b606091505b505090508061183e576040517f08c379a0000000000000000000000000000000000000000000000000000000008152600401611835906122e2565b60405180910390fd5b6000735fbdb2315678afecb367f032d93f642f64180aa373ffffffffffffffffffffffffffffffffffffffff166103e86009544761187c9190612513565b61188691906124e2565b6161a89060405161189690612033565b600060405180830381858888f193505050503d80600081146118d4576040519150601f19603f3d011682016040523d82523d6000602084013e6118d9565b606091505b505090508061191d576040517f08c379a0000000000000000000000000000000000000000000000000000000008152600401611914906122e2565b60405180910390fd5b50506001600081905550565b60035481565b600a60009054906101000a900473ffffffffffffffffffffffffffffffffffffffff1681565b60008282101561197d5782828561196c9190612513565b61197691906124e2565b9050611997565b83838361198a91906124e2565b6119949190612513565b90505b9392505050565b60006119b16119ac84612434565b61240f565b9050828152602081018484840111156119c957600080fd5b6119d484828561261f565b509392505050565b6000813590506119eb81612bec565b92915050565b600081519050611a0081612bec565b92915050565b600081519050611a1581612c03565b92915050565b600082601f830112611a2c57600080fd5b8135611a3c84826020860161199e565b91505092915050565b60006101208284031215611a5857600080fd5b611a6361012061240f565b90506000611a73848285016119f1565b6000830152506020611a8784828501611b21565b6020830152506040611a9b84828501611b21565b6040830152506060611aaf84828501611b21565b6060830152506080611ac384828501611b21565b60808301525060a0611ad784828501611b21565b60a08301525060c0611aeb84828501611b21565b60c08301525060e0611aff848285016119f1565b60e083015250610100611b1484828501611b21565b6101008301525092915050565b600081519050611b3081612c1a565b92915050565b600060208284031215611b4857600080fd5b6000611b56848285016119dc565b91505092915050565b60008060408385031215611b7257600080fd5b6000611b80858286016119dc565b9250506020611b91858286016119dc565b9150509250929050565b600060208284031215611bad57600080fd5b6000611bbb84828501611a06565b91505092915050565b600060208284031215611bd657600080fd5b600082013567ffffffffffffffff811115611bf057600080fd5b611bfc84828501611a1b565b91505092915050565b60006101208284031215611c1857600080fd5b6000611c2684828501611a45565b91505092915050565b600060208284031215611c4157600080fd5b6000611c4f84828501611b21565b91505092915050565b611c61816125a1565b82525050565b611c70816125b3565b82525050565b6000611c8182612465565b611c8b8185612470565b9350611c9b81856020860161262e565b80840191505092915050565b611cb0816125e9565b82525050565b611cbf8161260d565b82525050565b6000611cd260188361247b565b9150611cdd82612730565b602082019050919050565b6000611cf560218361247b565b9150611d0082612759565b604082019050919050565b6000611d18601b8361247b565b9150611d23826127a8565b602082019050919050565b6000611d3b60208361247b565b9150611d46826127d1565b602082019050919050565b6000611d5e60268361247b565b9150611d69826127fa565b604082019050919050565b6000611d81602a8361247b565b9150611d8c82612849565b604082019050919050565b6000611da460258361247b565b9150611daf82612898565b604082019050919050565b6000611dc760138361247b565b9150611dd2826128e7565b602082019050919050565b6000611dea603a8361247b565b9150611df582612910565b604082019050919050565b6000611e0d60208361247b565b9150611e188261295f565b602082019050919050565b6000611e3060188361247b565b9150611e3b82612988565b602082019050919050565b6000611e53601a8361247b565b9150611e5e826129b1565b602082019050919050565b6000611e76601e8361247b565b9150611e81826129da565b602082019050919050565b6000611e99601e8361247b565b9150611ea482612a03565b602082019050919050565b6000611ebc600083612470565b9150611ec782612a2c565b600082019050919050565b6000611edf602a8361247b565b9150611eea82612a2f565b604082019050919050565b6000611f0260168361247b565b9150611f0d82612a7e565b602082019050919050565b6000611f25601b8361247b565b9150611f3082612aa7565b602082019050919050565b6000611f48600f8361247b565b9150611f5382612ad0565b602082019050919050565b6000611f6b601f8361247b565b9150611f7682612af9565b602082019050919050565b6000611f8e602d8361247b565b9150611f9982612b22565b604082019050919050565b6000611fb1601e8361247b565b9150611fbc82612b71565b602082019050919050565b6000611fd460208361247b565b9150611fdf82612b9a565b602082019050919050565b6000611ff760188361247b565b915061200282612bc3565b602082019050919050565b612016816125df565b82525050565b60006120288284611c76565b915081905092915050565b600061203e82611eaf565b9150819050919050565b600060208201905061205d6000830184611c58565b92915050565b60006040820190506120786000830185611c58565b612085602083018461200d565b9392505050565b60006020820190506120a16000830184611c67565b92915050565b60006020820190506120bc6000830184611ca7565b92915050565b600060208201905081810360008301526120db81611cc5565b9050919050565b600060208201905081810360008301526120fb81611ce8565b9050919050565b6000602082019050818103600083015261211b81611d0b565b9050919050565b6000602082019050818103600083015261213b81611d2e565b9050919050565b6000602082019050818103600083015261215b81611d51565b9050919050565b6000602082019050818103600083015261217b81611d74565b9050919050565b6000602082019050818103600083015261219b81611d97565b9050919050565b600060208201905081810360008301526121bb81611dba565b9050919050565b600060208201905081810360008301526121db81611ddd565b9050919050565b600060208201905081810360008301526121fb81611e00565b9050919050565b6000602082019050818103600083015261221b81611e23565b9050919050565b6000602082019050818103600083015261223b81611e46565b9050919050565b6000602082019050818103600083015261225b81611e69565b9050919050565b6000602082019050818103600083015261227b81611e8c565b9050919050565b6000602082019050818103600083015261229b81611ed2565b9050919050565b600060208201905081810360008301526122bb81611ef5565b9050919050565b600060208201905081810360008301526122db81611f18565b9050919050565b600060208201905081810360008301526122fb81611f3b565b9050919050565b6000602082019050818103600083015261231b81611f5e565b9050919050565b6000602082019050818103600083015261233b81611f81565b9050919050565b6000602082019050818103600083015261235b81611fa4565b9050919050565b6000602082019050818103600083015261237b81611fc7565b9050919050565b6000602082019050818103600083015261239b81611fea565b9050919050565b60006020820190506123b7600083018461200d565b92915050565b60006040820190506123d2600083018561200d565b6123df6020830184611cb6565b9392505050565b60006040820190506123fb600083018561200d565b612408602083018461200d565b9392505050565b600061241961242a565b90506124258282612661565b919050565b6000604051905090565b600067ffffffffffffffff82111561244f5761244e6126f0565b5b6124588261271f565b9050602081019050919050565b600081519050919050565b600081905092915050565b600082825260208201905092915050565b6000612497826125df565b91506124a2836125df565b9250827fffffffffffffffffffffffffffffffffffffffffffffffffffffffffffffffff038211156124d7576124d6612692565b5b828201905092915050565b60006124ed826125df565b91506124f8836125df565b925082612508576125076126c1565b5b828204905092915050565b600061251e826125df565b9150612529836125df565b9250817fffffffffffffffffffffffffffffffffffffffffffffffffffffffffffffffff048311821515161561256257612561612692565b5b828202905092915050565b6000612578826125df565b9150612583836125df565b92508282101561259657612595612692565b5b828203905092915050565b60006125ac826125bf565b9050919050565b60008115159050919050565b600073ffffffffffffffffffffffffffffffffffffffff82169050919050565b6000819050919050565b60006125f4826125fb565b9050919050565b6000612606826125bf565b9050919050565b6000612618826125df565b9050919050565b82818337600083830152505050565b60005b8381101561264c578082015181840152602081019050612631565b8381111561265b576000848401525b50505050565b61266a8261271f565b810181811067ffffffffffffffff82111715612689576126886126f0565b5b80604052505050565b7f4e487b7100000000000000000000000000000000000000000000000000000000600052601160045260246000fd5b7f4e487b7100000000000000000000000000000000000000000000000000000000600052601260045260246000fd5b7f4e487b7100000000000000000000000000000000000000000000000000000000600052604160045260246000fd5b6000601f19601f8301169050919050565b7f596f7520617265206e6f742074686520466163746f72792e0000000000000000600082015250565b7f6d696e696d616c2070726f7669646520616d6f756e7420697320696e76616c6960008201527f6400000000000000000000000000000000000000000000000000000000000000602082015250565b7f6576656e74206475726174696f6e20697320746f6f2073686f72740000000000600082015250565b7f596f7520646f6e2774206861766520616e7920636f6e747269627574696f6e2e600082015250565b7f54686520726571756972656420616d6f756e7420686173206265656e2070726f60008201527f7669646564210000000000000000000000000000000000000000000000000000602082015250565b7f54686520726571756972656420616d6f756e7420686173206e6f74206265656e60008201527f2070726f76696465642100000000000000000000000000000000000000000000602082015250565b7f4561726c7920746f20636c61696d2e2053616c65206973206e6f742066696e6960008201527f736865642e000000000000000000000000000000000000000000000000000000602082015250565b7f6f776e6572206d75737420626520746865726500000000000000000000000000600082015250565b7f73656e64657220697320636c61696d696e6720736f6d656f6e65206f7468657260008201527f27732066756e6420666f7220736f6d656f6e65206f746865722e000000000000602082015250565b7f546865206f66666572696e6720686173206e6f74207374617274656420796574600082015250565b7f6665652072617465206973206f7574206f662072616e67650000000000000000600082015250565b7f5769746864726177616c20756e617661696c61626c6520796574000000000000600082015250565b7f646973747269627574696f6e20616d6f756e7420697320696e76616c69640000600082015250565b7f546865206f66666572696e67206d75737420626520636f6d706c657465640000600082015250565b50565b7f5468697320636f6e74726163742068617320616c7265616479206265656e206960008201527f6e697469616c697a656400000000000000000000000000000000000000000000602082015250565b7f596f7520617265206e6f7420746865206f776e65722e00000000000000000000600082015250565b7f7374617274206d75737420626520696e20746865206675747572650000000000600082015250565b7f7472616e73666572206661696c65640000000000000000000000000000000000600082015250565b7f5265656e7472616e637947756172643a207265656e7472616e742063616c6c00600082015250565b7f65787069726174696f6e206475726174696f6e206d757374206265206d6f726560008201527f207468616e203330206461797300000000000000000000000000000000000000602082015250565b7f546865206f66666572696e672068617320616c726561647920656e6465640000600082015250565b7f436c61696d61626c65207465726d20686173206265656e20657870697265642e600082015250565b7f6c6f636b206475726174696f6e20697320696e76616c69640000000000000000600082015250565b612bf5816125a1565b8114612c0057600080fd5b50565b612c0c816125b3565b8114612c1757600080fd5b50565b612c23816125df565b8114612c2e57600080fd5b5056fea2646970667358221220e07a6832ce2282c31dd66c68bb02bc4f02c0c6b9776e355695537e573d7a939c64736f6c63430008030033",
  "devdoc": {
    "author": "0xMotoko",
    "kind": "dev",
    "methods": {},
    "title": "BulksaleV1",
    "version": 1
  },
  "userdoc": {
    "kind": "user",
    "methods": {},
    "notice": "Minimal Proxy Platform-ish fork of the HegicInitialOffering.sol",
    "version": 1
  },
  "storageLayout": {
    "storage": [
      {
        "astId": 10,
        "contract": "contracts/BulksaleV1.sol:BulksaleV1",
        "label": "_status",
        "offset": 0,
        "slot": "0",
        "type": "t_uint256"
      },
      {
        "astId": 686,
        "contract": "contracts/BulksaleV1.sol:BulksaleV1",
        "label": "initialized",
        "offset": 0,
        "slot": "1",
        "type": "t_bool"
      },
      {
        "astId": 694,
        "contract": "contracts/BulksaleV1.sol:BulksaleV1",
        "label": "START",
        "offset": 0,
        "slot": "2",
        "type": "t_uint256"
      },
      {
        "astId": 699,
        "contract": "contracts/BulksaleV1.sol:BulksaleV1",
        "label": "END",
        "offset": 0,
        "slot": "3",
        "type": "t_uint256"
      },
      {
        "astId": 702,
        "contract": "contracts/BulksaleV1.sol:BulksaleV1",
        "label": "TOTAL_DISTRIBUTE_AMOUNT",
        "offset": 0,
        "slot": "4",
        "type": "t_uint256"
      },
      {
        "astId": 705,
        "contract": "contracts/BulksaleV1.sol:BulksaleV1",
        "label": "MINIMAL_PROVIDE_AMOUNT",
        "offset": 0,
        "slot": "5",
        "type": "t_uint256"
      },
      {
        "astId": 708,
        "contract": "contracts/BulksaleV1.sol:BulksaleV1",
        "label": "LOCK_DURATION",
        "offset": 0,
        "slot": "6",
        "type": "t_uint256"
      },
      {
        "astId": 711,
        "contract": "contracts/BulksaleV1.sol:BulksaleV1",
        "label": "EXPIRATION_DURATION",
        "offset": 0,
        "slot": "7",
        "type": "t_uint256"
      },
      {
        "astId": 713,
        "contract": "contracts/BulksaleV1.sol:BulksaleV1",
        "label": "owner",
        "offset": 0,
        "slot": "8",
        "type": "t_address"
      },
      {
        "astId": 716,
        "contract": "contracts/BulksaleV1.sol:BulksaleV1",
        "label": "FEERATEPERMIL",
        "offset": 0,
        "slot": "9",
        "type": "t_uint256"
      },
      {
        "astId": 719,
        "contract": "contracts/BulksaleV1.sol:BulksaleV1",
        "label": "ERC20ONSALE",
        "offset": 0,
        "slot": "10",
        "type": "t_contract(IERC20)624"
      },
      {
        "astId": 931,
        "contract": "contracts/BulksaleV1.sol:BulksaleV1",
        "label": "totalProvided",
        "offset": 0,
        "slot": "11",
        "type": "t_uint256"
      },
      {
        "astId": 935,
        "contract": "contracts/BulksaleV1.sol:BulksaleV1",
        "label": "provided",
        "offset": 0,
        "slot": "12",
        "type": "t_mapping(t_address,t_uint256)"
      }
    ],
    "types": {
      "t_address": {
        "encoding": "inplace",
        "label": "address",
        "numberOfBytes": "20"
      },
      "t_bool": {
        "encoding": "inplace",
        "label": "bool",
        "numberOfBytes": "1"
      },
      "t_contract(IERC20)624": {
        "encoding": "inplace",
        "label": "contract IERC20",
        "numberOfBytes": "20"
      },
      "t_mapping(t_address,t_uint256)": {
        "encoding": "mapping",
        "key": "t_address",
        "label": "mapping(address => uint256)",
        "numberOfBytes": "32",
        "value": "t_uint256"
      },
      "t_uint256": {
        "encoding": "inplace",
        "label": "uint256",
        "numberOfBytes": "32"
      }
    }
  }
}