{
  "address": "0x32Fd8cf8b7348A7F9d714DB92Fe4d44A8f9A179b",
  "abi": [
    {
      "inputs": [
        {
          "internalType": "address",
          "name": "initialOwner",
          "type": "address"
        }
      ],
      "stateMutability": "nonpayable",
      "type": "constructor"
    },
    {
      "anonymous": false,
      "inputs": [
        {
          "indexed": true,
          "internalType": "address",
          "name": "sender",
          "type": "address"
        },
        {
          "indexed": true,
          "internalType": "string",
          "name": "templateName",
          "type": "string"
        },
        {
          "indexed": true,
          "internalType": "address",
          "name": "deployedAddr",
          "type": "address"
        },
        {
          "indexed": false,
          "internalType": "bytes",
          "name": "abiArgs",
          "type": "bytes"
        }
      ],
      "name": "Deployed",
      "type": "event"
    },
    {
      "anonymous": false,
      "inputs": [
        {
          "indexed": true,
          "internalType": "address",
          "name": "oldGoverner",
          "type": "address"
        },
        {
          "indexed": true,
          "internalType": "address",
          "name": "newGoverner",
          "type": "address"
        }
      ],
      "name": "GovernanceChanged",
      "type": "event"
    },
    {
      "anonymous": false,
      "inputs": [
        {
          "indexed": true,
          "internalType": "address",
          "name": "sender",
          "type": "address"
        },
        {
          "indexed": false,
          "internalType": "uint256",
          "name": "fee",
          "type": "uint256"
        },
        {
          "indexed": false,
          "internalType": "uint256",
          "name": "treasury",
          "type": "uint256"
        }
      ],
      "name": "Received",
      "type": "event"
    },
    {
      "anonymous": false,
      "inputs": [
        {
          "indexed": true,
          "internalType": "string",
          "name": "templateName",
          "type": "string"
        },
        {
          "indexed": true,
          "internalType": "address",
          "name": "templateAddr",
          "type": "address"
        },
        {
          "indexed": true,
          "internalType": "address",
          "name": "governer",
          "type": "address"
        }
      ],
      "name": "TemplateAdded",
      "type": "event"
    },
    {
      "anonymous": false,
      "inputs": [
        {
          "indexed": true,
          "internalType": "address",
          "name": "sender",
          "type": "address"
        },
        {
          "indexed": false,
          "internalType": "address",
          "name": "governance",
          "type": "address"
        },
        {
          "indexed": false,
          "internalType": "uint256",
          "name": "amount",
          "type": "uint256"
        },
        {
          "indexed": false,
          "internalType": "uint256",
          "name": "treasuryAfter",
          "type": "uint256"
        }
      ],
      "name": "Withdrawn",
      "type": "event"
    },
    {
      "inputs": [
        {
          "internalType": "string",
          "name": "templateName",
          "type": "string"
        },
        {
          "internalType": "address",
          "name": "templateAddr",
          "type": "address"
        }
      ],
      "name": "addTemplate",
      "outputs": [],
      "stateMutability": "nonpayable",
      "type": "function"
    },
    {
      "inputs": [
        {
          "internalType": "string",
          "name": "templateName",
          "type": "string"
        },
        {
          "internalType": "address",
          "name": "tokenAddr",
          "type": "address"
        },
        {
          "internalType": "uint256",
          "name": "sellingAmount",
          "type": "uint256"
        },
        {
          "internalType": "bytes",
          "name": "abiArgs",
          "type": "bytes"
        }
      ],
      "name": "deploy",
      "outputs": [
        {
          "internalType": "address",
          "name": "deployedAddr",
          "type": "address"
        }
      ],
      "stateMutability": "nonpayable",
      "type": "function"
    },
    {
      "inputs": [],
      "name": "governance",
      "outputs": [
        {
          "internalType": "address",
          "name": "",
          "type": "address"
        }
      ],
      "stateMutability": "view",
      "type": "function"
    },
    {
      "inputs": [
        {
          "internalType": "address",
          "name": "newGoverner",
          "type": "address"
        }
      ],
      "name": "setGovernance",
      "outputs": [],
      "stateMutability": "nonpayable",
      "type": "function"
    },
    {
      "inputs": [
        {
          "internalType": "string",
          "name": "",
          "type": "string"
        }
      ],
      "name": "templates",
      "outputs": [
        {
          "internalType": "address",
          "name": "",
          "type": "address"
        }
      ],
      "stateMutability": "view",
      "type": "function"
    },
    {
      "inputs": [
        {
          "internalType": "address",
          "name": "to",
          "type": "address"
        },
        {
          "internalType": "uint256",
          "name": "amount",
          "type": "uint256"
        }
      ],
      "name": "withdraw",
      "outputs": [],
      "stateMutability": "nonpayable",
      "type": "function"
    },
    {
      "stateMutability": "payable",
      "type": "receive"
    }
  ],
  "transactionHash": "0xdf907cb18b54607ed5894887cbf613128901e06cbb175931e50a71326a7552b6",
  "args": [
    "0xdAe503Fd260358b8f344D136160c299530006170"
  ],
  "solcInputHash": "a8f2d69802e18d45efd15cb1491f2a4c",
  "bytecode": "0x608060405260006003553480156200001657600080fd5b5060405162001f9338038062001f9383398181016040528101906200003c9190620000a3565b600160008190555080600260006101000a81548173ffffffffffffffffffffffffffffffffffffffff021916908373ffffffffffffffffffffffffffffffffffffffff160217905550506200011d565b6000815190506200009d8162000103565b92915050565b600060208284031215620000b657600080fd5b6000620000c6848285016200008c565b91505092915050565b6000620000dc82620000e3565b9050919050565b600073ffffffffffffffffffffffffffffffffffffffff82169050919050565b6200010e81620000cf565b81146200011a57600080fd5b50565b611e66806200012d6000396000f3fe6080604052600436106100595760003560e01c80634c105a87146100b55780635aa6e675146100f2578063ab033ea91461011d578063b22beeda14610146578063dd3fac7c14610183578063f3fef3a3146101ac576100b0565b366100b0573373ffffffffffffffffffffffffffffffffffffffff167f74cf3d18d0ddca79038197ad0dd2c7fa5005ef61a5d1ed190e8a8a437e2fcf1034476040516100a6929190611830565b60405180910390a2005b600080fd5b3480156100c157600080fd5b506100dc60048036038101906100d79190611133565b6101d5565b6040516100e9919061157c565b60405180910390f35b3480156100fe57600080fd5b50610107610715565b604051610114919061157c565b60405180910390f35b34801561012957600080fd5b50610144600480360381019061013f9190611010565b61073b565b005b34801561015257600080fd5b5061016d6004803603810190610168919061109e565b6108fb565b60405161017a919061157c565b60405180910390f35b34801561018f57600080fd5b506101aa60048036038101906101a591906110df565b610944565b005b3480156101b857600080fd5b506101d360048036038101906101ce9190611039565b610b74565b005b60006002600054141561021d576040517f08c379a000000000000000000000000000000000000000000000000000000000815260040161021490611810565b60405180910390fd5b60026000819055506000855111610269576040517f08c379a0000000000000000000000000000000000000000000000000000000008152600401610260906116b0565b60405180910390fd5b600073ffffffffffffffffffffffffffffffffffffffff168473ffffffffffffffffffffffffffffffffffffffff1614156102d9576040517f08c379a00000000000000000000000000000000000000000000000000000000081526004016102d0906116f0565b60405180910390fd5b60006001866040516102eb9190611550565b908152602001604051809103902060009054906101000a900473ffffffffffffffffffffffffffffffffffffffff169050600073ffffffffffffffffffffffffffffffffffffffff168173ffffffffffffffffffffffffffffffffffffffff16141561038c576040517f08c379a000000000000000000000000000000000000000000000000000000000815260040161038390611690565b60405180910390fd5b600084116103cf576040517f08c379a00000000000000000000000000000000000000000000000000000000081526004016103c690611790565b60405180910390fd5b60008573ffffffffffffffffffffffffffffffffffffffff1663dd62ed3e33306040518363ffffffff1660e01b815260040161040c929190611597565b60206040518083038186803b15801561042457600080fd5b505afa158015610438573d6000803e3d6000fd5b505050506040513d601f19601f8201168201806040525081019061045c91906111c6565b9050600081116104a1576040517f08c379a000000000000000000000000000000000000000000000000000000000815260040161049890611730565b60405180910390fd5b848110156104e4576040517f08c379a00000000000000000000000000000000000000000000000000000000081526004016104db906116d0565b60405180910390fd5b6104ee8285610e32565b92508573ffffffffffffffffffffffffffffffffffffffff166323b872dd3385886040518463ffffffff1660e01b815260040161052d939291906115c0565b602060405180830381600087803b15801561054757600080fd5b505af115801561055b573d6000803e3d6000fd5b505050506040513d601f19601f8201168201806040525081019061057f9190611075565b6105be576040517f08c379a00000000000000000000000000000000000000000000000000000000081526004016105b590611670565b60405180910390fd5b8273ffffffffffffffffffffffffffffffffffffffff1663439fab91856040518263ffffffff1660e01b81526004016105f7919061162e565b602060405180830381600087803b15801561061157600080fd5b505af1158015610625573d6000803e3d6000fd5b505050506040513d601f19601f820116820180604052508101906106499190611075565b610688576040517f08c379a000000000000000000000000000000000000000000000000000000000815260040161067f90611710565b60405180910390fd5b8273ffffffffffffffffffffffffffffffffffffffff16876040516106ad9190611550565b60405180910390203373ffffffffffffffffffffffffffffffffffffffff167feaf3e32328dded221c43928594c0b120f1ca35c76de3ca47f2d646f15cec5585876040516106fb919061162e565b60405180910390a450506001600081905550949350505050565b600260009054906101000a900473ffffffffffffffffffffffffffffffffffffffff1681565b600260009054906101000a900473ffffffffffffffffffffffffffffffffffffffff1673ffffffffffffffffffffffffffffffffffffffff163373ffffffffffffffffffffffffffffffffffffffff16146107cb576040517f08c379a00000000000000000000000000000000000000000000000000000000081526004016107c2906117f0565b60405180910390fd5b600073ffffffffffffffffffffffffffffffffffffffff168173ffffffffffffffffffffffffffffffffffffffff16141561083b576040517f08c379a000000000000000000000000000000000000000000000000000000000815260040161083290611750565b60405180910390fd5b8073ffffffffffffffffffffffffffffffffffffffff16600260009054906101000a900473ffffffffffffffffffffffffffffffffffffffff1673ffffffffffffffffffffffffffffffffffffffff167f3aaaebeb4821d6a7e5c77ece53cff0afcc56c82add2c978dbbb7f73e84cbcfd260405160405180910390a380600260006101000a81548173ffffffffffffffffffffffffffffffffffffffff021916908373ffffffffffffffffffffffffffffffffffffffff16021790555050565b6001818051602081018201805184825260208301602085012081835280955050505050506000915054906101000a900473ffffffffffffffffffffffffffffffffffffffff1681565b600260009054906101000a900473ffffffffffffffffffffffffffffffffffffffff1673ffffffffffffffffffffffffffffffffffffffff163373ffffffffffffffffffffffffffffffffffffffff16146109d4576040517f08c379a00000000000000000000000000000000000000000000000000000000081526004016109cb906117f0565b60405180910390fd5b600073ffffffffffffffffffffffffffffffffffffffff166001836040516109fc9190611550565b908152602001604051809103902060009054906101000a900473ffffffffffffffffffffffffffffffffffffffff1673ffffffffffffffffffffffffffffffffffffffff1614610a81576040517f08c379a0000000000000000000000000000000000000000000000000000000008152600401610a7890611770565b60405180910390fd5b80600183604051610a929190611550565b908152602001604051809103902060006101000a81548173ffffffffffffffffffffffffffffffffffffffff021916908373ffffffffffffffffffffffffffffffffffffffff160217905550600260009054906101000a900473ffffffffffffffffffffffffffffffffffffffff1673ffffffffffffffffffffffffffffffffffffffff168173ffffffffffffffffffffffffffffffffffffffff1683604051610b3c9190611550565b60405180910390207f723df8b5c179a677dc2dc19d7904aef24eb403b08a15218a43357705f703370660405160405180910390a45050565b600260009054906101000a900473ffffffffffffffffffffffffffffffffffffffff1673ffffffffffffffffffffffffffffffffffffffff163373ffffffffffffffffffffffffffffffffffffffff1614610c04576040517f08c379a0000000000000000000000000000000000000000000000000000000008152600401610bfb906117f0565b60405180910390fd5b60026000541415610c4a576040517f08c379a0000000000000000000000000000000000000000000000000000000008152600401610c4190611810565b60405180910390fd5b6002600081905550600073ffffffffffffffffffffffffffffffffffffffff168273ffffffffffffffffffffffffffffffffffffffff161415610cc2576040517f08c379a0000000000000000000000000000000000000000000000000000000008152600401610cb990611650565b60405180910390fd5b80471015610d05576040517f08c379a0000000000000000000000000000000000000000000000000000000008152600401610cfc906117d0565b60405180910390fd5b60008273ffffffffffffffffffffffffffffffffffffffff1682604051610d2b90611567565b60006040518083038185875af1925050503d8060008114610d68576040519150601f19603f3d011682016040523d82523d6000602084013e610d6d565b606091505b5050905080610db1576040517f08c379a0000000000000000000000000000000000000000000000000000000008152600401610da8906117b0565b60405180910390fd5b3373ffffffffffffffffffffffffffffffffffffffff167f91fb9d98b786c57d74c099ccd2beca1739e9f6a81fb49001ca465c4b7591bbe2600260009054906101000a900473ffffffffffffffffffffffffffffffffffffffff168447604051610e1d939291906115f7565b60405180910390a25060016000819055505050565b6000808360601b9050600160036000828254610e4e919061192e565b925050819055506000848433600354604051602001610e709493929190611506565b6040516020818303038152906040528051906020012090506040517f3d602d80600a3d3981f3363d3d373d3d3d363d7300000000000000000000000081528260148201527f5af43d82803e903d91602b57fd5bf300000000000000000000000000000000006028820152816037826000f5935050505092915050565b6000610eff610efa8461187e565b611859565b905082815260208101848484011115610f1757600080fd5b610f228482856119cc565b509392505050565b6000610f3d610f38846118af565b611859565b905082815260208101848484011115610f5557600080fd5b610f608482856119cc565b509392505050565b600081359050610f7781611deb565b92915050565b600081519050610f8c81611e02565b92915050565b600082601f830112610fa357600080fd5b8135610fb3848260208601610eec565b91505092915050565b600082601f830112610fcd57600080fd5b8135610fdd848260208601610f2a565b91505092915050565b600081359050610ff581611e19565b92915050565b60008151905061100a81611e19565b92915050565b60006020828403121561102257600080fd5b600061103084828501610f68565b91505092915050565b6000806040838503121561104c57600080fd5b600061105a85828601610f68565b925050602061106b85828601610fe6565b9150509250929050565b60006020828403121561108757600080fd5b600061109584828501610f7d565b91505092915050565b6000602082840312156110b057600080fd5b600082013567ffffffffffffffff8111156110ca57600080fd5b6110d684828501610fbc565b91505092915050565b600080604083850312156110f257600080fd5b600083013567ffffffffffffffff81111561110c57600080fd5b61111885828601610fbc565b925050602061112985828601610f68565b9150509250929050565b6000806000806080858703121561114957600080fd5b600085013567ffffffffffffffff81111561116357600080fd5b61116f87828801610fbc565b945050602061118087828801610f68565b935050604061119187828801610fe6565b925050606085013567ffffffffffffffff8111156111ae57600080fd5b6111ba87828801610f92565b91505092959194509250565b6000602082840312156111d857600080fd5b60006111e684828501610ffb565b91505092915050565b6111f881611984565b82525050565b61120f61120a82611984565b611a3f565b82525050565b6000611220826118e0565b61122a81856118f6565b935061123a8185602086016119db565b61124381611acb565b840191505092915050565b6000611259826118e0565b6112638185611907565b93506112738185602086016119db565b80840191505092915050565b600061128a826118eb565b6112948185611923565b93506112a48185602086016119db565b80840191505092915050565b60006112bd601683611912565b91506112c882611ae9565b602082019050919050565b60006112e0601483611912565b91506112eb82611b12565b602082019050919050565b6000611303601d83611912565b915061130e82611b3b565b602082019050919050565b6000611326600d83611912565b915061133182611b64565b602082019050919050565b6000611349601883611912565b915061135482611b8d565b602082019050919050565b600061136c601983611912565b915061137782611bb6565b602082019050919050565b600061138f602983611912565b915061139a82611bdf565b604082019050919050565b60006113b2602583611912565b91506113bd82611c2e565b604082019050919050565b60006113d5600083611907565b91506113e082611c7d565b600082019050919050565b60006113f8601783611912565b915061140382611c80565b602082019050919050565b600061141b602483611912565b915061142682611ca9565b604082019050919050565b600061143e603183611912565b915061144982611cf8565b604082019050919050565b6000611461600f83611912565b915061146c82611d47565b602082019050919050565b6000611484601183611912565b915061148f82611d70565b602082019050919050565b60006114a7601883611912565b91506114b282611d99565b602082019050919050565b60006114ca601f83611912565b91506114d582611dc2565b602082019050919050565b6114e9816119c2565b82525050565b6115006114fb826119c2565b611a63565b82525050565b600061151282876111fe565b601482019150611522828661124e565b915061152e82856111fe565b60148201915061153e82846114ef565b60208201915081905095945050505050565b600061155c828461127f565b915081905092915050565b6000611572826113c8565b9150819050919050565b600060208201905061159160008301846111ef565b92915050565b60006040820190506115ac60008301856111ef565b6115b960208301846111ef565b9392505050565b60006060820190506115d560008301866111ef565b6115e260208301856111ef565b6115ef60408301846114e0565b949350505050565b600060608201905061160c60008301866111ef565b61161960208301856114e0565b61162660408301846114e0565b949350505050565b600060208201905081810360008301526116488184611215565b905092915050565b60006020820190508181036000830152611669816112b0565b9050919050565b60006020820190508181036000830152611689816112d3565b9050919050565b600060208201905081810360008301526116a9816112f6565b9050919050565b600060208201905081810360008301526116c981611319565b9050919050565b600060208201905081810360008301526116e98161133c565b9050919050565b600060208201905081810360008301526117098161135f565b9050919050565b6000602082019050818103600083015261172981611382565b9050919050565b60006020820190508181036000830152611749816113a5565b9050919050565b60006020820190508181036000830152611769816113eb565b9050919050565b600060208201905081810360008301526117898161140e565b9050919050565b600060208201905081810360008301526117a981611431565b9050919050565b600060208201905081810360008301526117c981611454565b9050919050565b600060208201905081810360008301526117e981611477565b9050919050565b600060208201905081810360008301526118098161149a565b9050919050565b60006020820190508181036000830152611829816114bd565b9050919050565b600060408201905061184560008301856114e0565b61185260208301846114e0565b9392505050565b6000611863611874565b905061186f8282611a0e565b919050565b6000604051905090565b600067ffffffffffffffff82111561189957611898611a9c565b5b6118a282611acb565b9050602081019050919050565b600067ffffffffffffffff8211156118ca576118c9611a9c565b5b6118d382611acb565b9050602081019050919050565b600081519050919050565b600081519050919050565b600082825260208201905092915050565b600081905092915050565b600082825260208201905092915050565b600081905092915050565b6000611939826119c2565b9150611944836119c2565b9250827fffffffffffffffffffffffffffffffffffffffffffffffffffffffffffffffff0382111561197957611978611a6d565b5b828201905092915050565b600061198f826119a2565b9050919050565b60008115159050919050565b600073ffffffffffffffffffffffffffffffffffffffff82169050919050565b6000819050919050565b82818337600083830152505050565b60005b838110156119f95780820151818401526020810190506119de565b83811115611a08576000848401525b50505050565b611a1782611acb565b810181811067ffffffffffffffff82111715611a3657611a35611a9c565b5b80604052505050565b6000611a4a82611a51565b9050919050565b6000611a5c82611adc565b9050919050565b6000819050919050565b7f4e487b7100000000000000000000000000000000000000000000000000000000600052601160045260246000fd5b7f4e487b7100000000000000000000000000000000000000000000000000000000600052604160045260246000fd5b6000601f19601f8301169050919050565b60008160601b9050919050565b7f446f6e2774206469736361726420747265617572792100000000000000000000600082015250565b7f5472616e7366657246726f6d206661696c65642e000000000000000000000000600082015250565b7f4e6f20737563682074656d706c61746520696e20746865206c6973742e000000600082015250565b7f456d70747920737472696e672e00000000000000000000000000000000000000600082015250565b7f616c6c6f77616e6365206973206e6f7420656e6f7567682e0000000000000000600082015250565b7f476f2077697468206e6f6e206e756c6c20616464726573732e00000000000000600082015250565b7f4661696c656420746f20696e697469616c697a652074686520636c6f6e65642060008201527f636f6e74726163742e0000000000000000000000000000000000000000000000602082015250565b7f596f75206861766520746f20617070726f7665204552432d323020746f20646560008201527f706c6f792e000000000000000000000000000000000000000000000000000000602082015250565b50565b7f676f7665726e65722063616e6e6f74206265206e756c6c000000000000000000600082015250565b7f546869732074656d706c617465206e616d6520697320616c726561647920746160008201527f6b656e2e00000000000000000000000000000000000000000000000000000000602082015250565b7f486176696e6720616e206576656e7420776974686f757420746f6b656e73206160008201527f7265206e6f74207065726d69747465642e000000000000000000000000000000602082015250565b7f7472616e73666572206661696c65640000000000000000000000000000000000600082015250565b7f416d6f756e7420697320746f6f20626967000000000000000000000000000000600082015250565b7f596f75277265206e6f742074686520676f7665726e65722e0000000000000000600082015250565b7f5265656e7472616e637947756172643a207265656e7472616e742063616c6c00600082015250565b611df481611984565b8114611dff57600080fd5b50565b611e0b81611996565b8114611e1657600080fd5b50565b611e22816119c2565b8114611e2d57600080fd5b5056fea2646970667358221220a78d9615d1e5a7fc5a6318cea69b1949ef0e804652c6cac65bd0a638d3abb8d964736f6c63430008030033",
  "devdoc": {
    "kind": "dev",
    "methods": {},
    "version": 1
  },
  "userdoc": {
    "kind": "user",
    "methods": {},
    "version": 1
  },
  "storageLayout": {
    "storage": [
      {
        "astId": 10,
        "contract": "contracts/Factory.sol:Factory",
        "label": "_status",
        "offset": 0,
        "slot": "0",
        "type": "t_uint256"
      },
      {
        "astId": 1393,
        "contract": "contracts/Factory.sol:Factory",
        "label": "templates",
        "offset": 0,
        "slot": "1",
        "type": "t_mapping(t_string_memory_ptr,t_address)"
      },
      {
        "astId": 1395,
        "contract": "contracts/Factory.sol:Factory",
        "label": "governance",
        "offset": 0,
        "slot": "2",
        "type": "t_address"
      },
      {
        "astId": 1398,
        "contract": "contracts/Factory.sol:Factory",
        "label": "nonce",
        "offset": 0,
        "slot": "3",
        "type": "t_uint256"
      }
    ],
    "types": {
      "t_address": {
        "encoding": "inplace",
        "label": "address",
        "numberOfBytes": "20"
      },
      "t_mapping(t_string_memory_ptr,t_address)": {
        "encoding": "mapping",
        "key": "t_string_memory_ptr",
        "label": "mapping(string => address)",
        "numberOfBytes": "32",
        "value": "t_address"
      },
      "t_string_memory_ptr": {
        "encoding": "bytes",
        "label": "string",
        "numberOfBytes": "32"
      },
      "t_uint256": {
        "encoding": "inplace",
        "label": "uint256",
        "numberOfBytes": "32"
      }
    }
  }
}